:020000040800F2
:10000000A897002079020008030F0008CF0D000810
:10001000010F0008FD03000867140008000000003D
:10002000000000000000000000000000C101000806
:100030003D040008000000001502000855100008EB
:10004000930200089302000893020008930200083C
:10005000930200089302000893020008930200082C
:10006000930200089302000893020008930200081C
:10007000930200089302000893020008930200080C
:1000800093020008930200089302000893020008FC
:1000900093020008930200089302000893020008EC
:1000A00093020008930200089302000893020008DC
:1000B00093020008930200089302000893020008CC
:1000C00093020008930200089302000893020008BC
:1000D00093020008930200089302000893020008AC
:1000E000930200089302000893020008930200089C
:1000F000930200089302000893020008930200088C
:1001000093020008750F000893020008930200088C
:10011000930200089302000893020008930200086B
:1001200093020008930200089302000839040008B3
:10013000930200089302000893020008930200084B
:10014000930200089302000893020008930200083B
:10015000930200083B040008930200089302000881
:10016000930200089302000893020008930200081B
:1001700093020008930200089302000800000000A8
:1001800093020008930200089302000893020008FB
:1001900093020008930200089302000893020008EB
:1001A000930200089302000893020008DFF80CD0C5
:1001B00000F0D6F80048004745190008A89700202D
:1001C0002A4B19680868B0E8F04F80F30988BFF33C
:1001D0006F8F4FF0000080F311887047000000001F
:1001E00006480068006880F3088862B661B6BFF30D
:1001F0004F8FBFF36F8F00DF00BF00BF08ED00E03F
:10020000DFF80C00016841F470010160704700BF25
:1002100088ED00E0EFF30980BFF36F8F134B1A688E
:100220001EF0100F08BF20ED108A20E9F04F10607B
:1002300008B44FF0500080F31188BFF34F8FBFF325
:100240006F8F02F0EBF84FF0000080F3118808BCCC
:1002500019680868B0E8F04F1EF0100F08BFB0EC46
:10026000108A80F30988BFF36F8F70471000002059
:10027000EFF30580704700000648804706480047B6
:10028000FEE7FEE7FEE7FEE7FEE7FEE7FEE7FEE746
:10029000FEE7FEE705110008AD0100082DE9F05F5B
:1002A0000546002092469B468846064681464024E5
:1002B0001BE0284641464746224600F041F8534697
:1002C0005A46C01A914110D311461846224600F0F2
:1002D00028F82D1A67EB01084F462246012000211D
:1002E00000F01FF817EB00094E41201EA4F1010495
:1002F000DFDC484631462A464346BDE8F09F40EAE7
:1003000001039B0703D009E008C9121F08C0042A93
:10031000FAD203E011F8013B00F8013B521EF9D27A
:100320007047202A04DB203A00FA02F100207047CF
:100330009140C2F1200320FA03F319439040704723
:10034000202A04DB203A21FA02F00021704721FA2A
:1003500002F3D040C2F12002914008431946704791
:10036000064C074D06E0E06840F0010394E8070002
:1003700098471034AC42F6D3FFF71CFF5C2D000801
:100380007C2D00087CB501F03BFE042100220846CC
:1003900002F022F90F4C002304F108012060042030
:1003A000C501CDE900012A460BA10E4802F058FB19
:1003B00004F10C010320CDE9000100232A460AA123
:1003C0000D4802F04DFB606801F018FFBDE87C406D
:1003D00001F050BE7000002053656E645F5461737D
:1003E0006B000000790F0008526563656976655FF0
:1003F0005461736B00000000050F0008FEE7000069
:1004000010B50C4C0A4820604FF4E13060600020C9
:10041000A060E0602061A0610C206061204600F0D7
:1004200005FC2068C16841F02001C16010BD0000DA
:10043000001001406893002070477047704700002B
:100440002DE9F84FDFF88C91002209F1040A0AF136
:10045000040B4FF00F080BF1040E01260B689640B9
:100460003340B34271D14C68022C01D0122C11D10F
:10047000D40800EB84073D6A5407E40E08FA04FC34
:1004800025EA0C05D1F810C00CFA04FC4CEA050C66
:10049000C7F820C007685400032591F804C0A540A0
:1004A0000CF0030CAF430CFA04FC4CEA070CC0F848
:1004B00000C04F68012F05D0022F03D0112F01D0AB
:1004C000122F11D18768D1F80CC0AF430CFA04FC8D
:1004D0004CEA070CC0F808C04768B7430E79C6F36A
:1004E000001696403E434660C668AE438D68A54000
:1004F0003543C5604C68E40065D5374C256845F444
:1005000080452560246822F0030504F480440094AB
:10051000324C2E19D6F808789407250F08FA05F4FE
:10052000A7432F4CA04201D1002424E02D4CA0422F
:1005300001D101241FE02C4CA04201D102241AE079
:100540002A4CA04202D1032415E03CE0284CA042F2
:1005500001D104240FE0274CA04201D105240AE078
:10056000254CA04201D1062405E0244CA04201D133
:10057000072400E00824AC403C43C6F80848D9F8FA
:1005800000404D464E689C43F60300D51C432C604A
:10059000DAF8004055464E689C43B60300D51C432C
:1005A0002C60DBF800405D464E689C43F60200D5A7
:1005B0001C432C60DEF8004075464E689C43B60232
:1005C00000D51C432C60521C102AFFF446AFBDE836
:1005D000F88F0000003C01404438024000300140E8
:1005E000000002400004024000080240000C0240EB
:1005F000001002400014024000180240001C02409B
:100600000069084000D0012070470AB1816170473D
:100610000904FBE701480068000C7047002004E073
:100620000148806870470000040000200B4810B5A6
:10063000016841F400710160016841F4806101606A
:10064000016841F480710160032000F057F80F2029
:1006500000F006F800F024F8002010BD003C024035
:1006600070B50D4D04464FF47A712878B1FBF0F067
:100670000A490968B1FBF0F000F0C4FA48B9102C3F
:1006800007D200222146501E00F018F800206C60AE
:1006900070BD012070BD000004000020000000209B
:1006A0007047002809DB00F01F020121914040093A
:1006B000800000F1E020C0F800117047F0B40E4B4C
:1006C0001B68C3F30223C3F10704042C00D90424DC
:1006D0001D1D072D01D2002300E0DB1E012606FAB6
:1006E00004F56D1E0D409D409E40761E164045EA65
:1006F0000601F0BC00F0C8BE0CED00E0064A00F0B8
:10070000070110684FF6FF03184040EA0120034933
:1007100008431060704700000CED00E00000FA058F
:100720002DE9F0470D46040065D0DFF81491D9F8A3
:100730000000EFB200F00F00A84207D289F8007065
:10074000D9F8000000F00F00A84254D120683D4EB7
:10075000810712D5400703D5306840F4E05030607F
:100760002078000703D5306840F46040306030687E
:10077000A16820F0F000084330602078C0072DD039
:10078000304960680839012812D0022813D00328A4
:1007900011D00968890700292DDA316821F0030199
:1007A00001433160FFF73CFF804641F2883A0EE09A
:1007B00009688903EFE709688901ECE7FFF730FF73
:1007C000A0EB0801514502D90320BDE8F08730684D
:1007D000616800F00C00B0EB810FEFD1D9F8001088
:1007E000484601F00F01A94207D90770006800F0E0
:1007F0000F00A84201D00120E7E72078400705D587
:100800003068E16820F4E050084330602078000749
:1008100006D53068216920F4604040EAC1003060AC
:1008200000F036F83168084AC1F30311515CC84042
:10083000064908600F20FFF713FF0020C5E70000FE
:10084000003C024008380240442D0008000000200F
:100850000448054900680968044AC1F38221515CD3
:10086000C84070470000002008380240542D00089E
:100870000448054900680968044AC1F34231515CE3
:10088000C84070470000002008380240542D00087E
:10089000154810B5006810F00C01144813D043102F
:1008A00004290FD008290ED10F4C241F216801F014
:1008B0003F022168490207D52068C0F38810A0FBD9
:1008C000030106E0184610BD2168C1F38811A1FBA1
:1008D00000010023FFF7E2FC2168C1F30141491C3C
:1008E0004900B0FBF1F010BD083802400024F400CC
:1008F0002DE9F84F040073D02078BD4DC00748D0D3
:10090000BB4808300168C1F38101012908D00068A3
:10091000C0F3810002280AD1281D0068400206D5D4
:100920002868800335D560680028E4D031E060682D
:10093000B0F5803F10D0B0F5A02F286810D020F47B
:1009400080302860286820F4802028606068A0B18A
:10095000FFF766FE06460CE0286840F48030F4E7B6
:1009600040F480202860F7E7FFF75AFE801B6428D8
:1009700072D828688003F7D50BE0FFF751FE0646D2
:1009800004E0FFF74DFE801B6428F1D8286880033F
:10099000F7D42078DFF85C9280074FF0000A3ED54C
:1009A00093480830016811F00C0F09D00068C0F3BB
:1009B000810002280BD18E48001D0068400206D439
:1009C0002868800715D5E068012809D111E0E068A2
:1009D000B8B10120C9F80000FFF722FE064605E085
:1009E00003E1FFF71DFE801B0228C1D8286880079D
:1009F000F7D52868216920F0F80040EAC100286096
:100A00000DE0C9F800A0FFF70BFE064604E0FFF773
:100A100007FE801B02281FD828688007F7D420789B
:100A2000000722D5724F74496069743770B1012094
:100A30000860FFF7F5FD064604E0FFF7F1FD801BB7
:100A4000022809D838688007F7D50EE0C1F800A061
:100A5000FFF7E6FD064605E081E0FFF7E1FD801BBC
:100A600002287CD838688007F7D42078400769D5F9
:100A7000DFF87CB14FF000080BF1400BDBF8000011
:100A8000C0000CD4DBF8001041F08051CBF800100E
:100A9000DBF800004FF0010800F080500090574F45
:100AA0003868C0050FD4386840F480703860FFF7AC
:100AB000B7FD064604E0FFF7B3FD801B02284ED8C1
:100AC0003868C005F7D54A4FA068703701280FD0A5
:100AD0000528386810D020F001003860386820F010
:100AE00004003860A068B0B1FFF79AFD06460EE03A
:100AF000386840F00100F4E740F004003860F7E7A0
:100B0000FFF78EFD811B41F28830814265D838683D
:100B10008007F5D50DE0FFF783FD064606E0FFF7F9
:100B20007FFD811B41F28830814256D838688007AA
:100B3000F5D4B8F1000F05D0DBF8001021F080519A
:100B4000CBF80010A069C8B3294908310968C1F37E
:100B50008101022949D00228504607D000E03CE03C
:100B6000C9F86000FFF75CFD044639E04F46C9F85C
:100B70006000FFF755FD064604E0FFF751FD801BBE
:100B800002282AD828688001F7D4D4E9070108434D
:100B9000A16A1B4A490802EB0141626A41EA8211DB
:100BA000084394F82C1040EA01611148001D0160CF
:100BB00001203866FFF734FD044605E013E0FFF737
:100BC0002FFD001B022808D828688001F7D50AE00D
:100BD000FFF726FD001B022802D90320BDE8F88F8D
:100BE00028688001F4D40020F8E70120F6E700002F
:100BF0000038024000004742800E4742007000402B
:100C00000000FFFF10B5401EB0F1807F01D301202E
:100C100010BD4FF0E02460610F21601700F034FC3C
:100C20000020A06107202061002010BD70B50400E5
:100C300004D094F83900002510B106E0012070BD01
:100C400084F83850204600F023F8242084F8390036
:100C50002068C16821F40051C160204600F07CFA90
:100C60002068016921F4904101612068416921F007
:100C70002A0141612068C16841F40051C160E56307
:100C8000202084F8390084F83A00002070BD00006C
:100C900030B51E4887B0016841F01001016000685E
:100CA00000F01000059019481438016841F0010166
:100CB0000160016801F001010591016841F0010145
:100CC00001600068072400F0010005904FF40070F7
:100CD000009002200190012002900320CDE903043E
:100CE0000B4D69462846FFF7ABFB2915009104948C
:100CF00069462846FFF7A4FB012200212520FFF7C3
:100D0000DDFC2520FFF7CDFC07B030BD44380240A4
:100D1000000002402DE9F843044690F839001E46D1
:100D200017460D46202850D1A5B19FB194F8380040
:100D300001284AD0012084F838004FF00008C4F898
:100D40003C80212084F83900FFF76AFCA7848146A3
:100D5000E78426E00120BDE8F883E08C401EE084B3
:100D6000A0684B46B0F5805F4FF000024FF0800165
:100D70002046009603D000F045FBE8B90DE000F0F6
:100D800041FBC8B928882168C0F308004860206981
:100D900008B16D1C05E0AD1C03E0216815F8010BDE
:100DA0004860E08C0028D8D14B46002240212046E4
:100DB000009600F027FB08B10320CCE7202084F840
:100DC000390084F838800020C5E70220C3E7FEE739
:100DD00070B5194886B00024016841F00101016036
:100DE000016801F001010591016841F01001016005
:100DF0000068124D00F0100005902246012128469F
:100E0000FFF703FC0E4E01221C213046FFF7FDFBCD
:100E10001C20CDE9000401240320CDE902406946ED
:100E20003046FFF70DFB02200290694600942846E9
:100E3000FFF706FB06B070BD3038024000000240EC
:100E40000010024070B504460E480D46844220460C
:100E500009D1FFF7D5FB50B929462046FFF7D0FB53
:100E60000028F9D00BE0FFF7CBFB012801D00020D0
:100E700070BD29462046FFF7C3FB0128F9D00120A9
:100E800070BD000000100240084B30B161B100227B
:100E90004FF480611846FFF7B8BB19B100224FF438
:100EA0000071F7E70122FAE70122F1E7001402409E
:100EB000114810B5016886B041F02001016000685A
:100EC0000E4C00F0200005904FF4C060009001200F
:100ED000019002900320039069462046FFF7B0FA84
:100EE000012251022046FFF790FB01229102204689
:100EF000FFF78BFB06B010BD3038024000140240F3
:100F0000FEE7704708B50D4C4FF0FF3500232A4629
:100F10006946206801F096FB0146012806D008A02A
:100F200000F0A2FA009820B1012103E00CA0009982
:100F3000F6E700210020FFF7A7FFE7E77000002099
:100F4000CAFDBEDDBDD3CAD5B3F6B4EDA3ACB4EDD6
:100F5000CEF3B4FAC2EB3A30782531780A000000BB
:100F6000CAD5B5BDCAFDBEDDA3BA25642E2E2E0A94
:100F700000000000704700001CB500200090012018
:100F8000174D184E184C019001212846FFF75AFFC3
:100F900001280DD115A000F067FA00231A46694612
:100FA000206801F05BFC012802D116A000F05CFA79
:100FB00008213046FFF746FF01280DD118A000F0A8
:100FC00053FA00231A4601A9206801F047FC0128C2
:100FD00002D119A000F048FA142001F0D7F8D3E7A5
:100FE000000002400010024070000020B7A2CBCDEC
:100FF000CFFBCFA273656E645F64617461302E2E87
:101000002E0A0000CFFBCFA273656E645F6461742B
:101010006130B7A2CBCDB3C9B9A62E2E2E0A0000DF
:10102000B7A2CBCDCFFBCFA273656E645F64617452
:1010300061312E2E2E0A0000CFFBCFA273656E64A5
:101040005F6461746131B7A2CBCDB3C9B9A62E2E4E
:101050002E0A000010B501F02FFD012803D0BDE8D5
:10106000104001F0A3BA10BD30B5234893B000245E
:10107000016841F080510160006800F080501190DB
:101080001E48016841F4804101600068022500F4B7
:101090008040119001200090000401908001CDE972
:1010A0000650082008904FF4A870CDE909050720E4
:1010B0000B906846FFF71CFC00B1FEE70F20CDE95E
:1010C0000C054FF4A050CDE90E404FF48050109025
:1010D00005210CA8FFF724FB00B1FEE7FFF79AFA01
:1010E00041F20101884204D10548016841F4807150
:1010F000016013B030BD0000403802400070004075
:10110000003C02401048016841F4700101600F4842
:10111000016841F0010101600C4A002108321160B0
:1011200002680B4B1A400260031D0A4A1A600268EB
:1011300022F48022026005480C3001600249580602
:10114000803908607047000088ED00E000380240F8
:10115000FFFFF6FE103000242DE9F0410446006840
:101160000169E26821F4405111430161A1682069DD
:10117000E26901436069104301432068C26849F293
:101180000C639A430A43C26020684169A26921F452
:10119000407111434161E0696425B0F5004F974A01
:1011A000974920684FF032083FD0884201D09042E2
:1011B0007CD1FFF75DFB00EBC00101EB0010616823
:1011C0008900B0FBF1F6FFF753FB00EBC00101EB28
:1011D000001061688900B0FBF1F0B0FBF5F06FF032
:1011E0001801484306EB800108EB0110B0FBF5F055
:1011F00000F0F006FFF73CFB00EBC00101EB001034
:1012000061688900B0FBF1F0B0FBF5F006EB001669
:10121000FFF72EFB00EBC00101EB001061688900B5
:10122000B0FBF1F7FFF724FBD2E0884201D09042F7
:101230003DD1FFF71DFB00EBC00101EB0010616821
:101240004900B0FBF1F0B0FBF5F00601FFF710FB31
:1012500000EBC00101EB001061684900B0FBF1F741
:10126000FFF706FB00EBC00101EB001061684900CD
:10127000B0FBF1F0B0FBF5F06FF01801484307EB5D
:10128000800108EBC100B0FBF5F000F0F80006EBC0
:101290004006FFF7EDFA00EBC00101EB00106168BA
:1012A0004900B0FBF1F7FFF7E3FA3CE055E0FFF748
:1012B000CFFA00EBC00101EB001061684900B0FB00
:1012C000F1F0B0FBF5F00601FFF7C2FA00EBC00148
:1012D00001EB001061684900B0FBF1F7FFF7B8FAC5
:1012E00000EBC00101EB001061684900B0FBF1F0B8
:1012F000B0FBF5F06FF01801484307EB800108EBF5
:10130000C100B0FBF5F000F0F80006EB4006FFF777
:101310009FFA00EBC00101EB001061684900B0FBCF
:10132000F1F7FFF795FA00EBC00101EB00106168DF
:101330004900B0FBF1F0B0FBF5F06FF01801484345
:1013400007EB800108EBC100B0FBF5F000F00700EF
:10135000216830448860BDE8F081FFF779FA00EB3E
:10136000C00101EB001061688900B0FBF1F6FFF7E6
:101370006FFA00EBC00101EB001061688900B0FB5F
:10138000F1F0B0FBF5F06FF01801484306EB800177
:1013900008EB0110B0FBF5F000F0F006FFF758FA8B
:1013A00000EBC00101EB001061688900B0FBF1F0B7
:1013B000B0FBF5F006EB0016FFF74AFA00EBC001B0
:1013C00001EB001061688900B0FBF1F7FFF740FA0C
:1013D00000EBC00101EB001061688900B0FBF1F087
:1013E000B0FBF5F06FF01801484307EB800108EB04
:1013F0000110B0FBF5F000F00F00A9E70014014068
:10140000001001402DE9F0411E461746884604466B
:10141000069D1CE0681C1AD025B1FFF701F9801B5E
:10142000A84214D92068C16821F4D071C160206835
:10143000416921F001014161202084F8390084F8DC
:101440003A00002084F838000320BDE8F0812068CD
:10145000016838EA010004D00020B842DAD0002048
:10146000F3E70120F9E7FEE70FB4054B10B503A938
:10147000044A029800F028F810BC5DF814FB000044
:101480002D190008800000200907090E002804DB40
:1014900000F1E02080F80014704700F00F0000F128
:1014A000E02080F8141D704702E008C8121F08C130
:1014B000002AFAD170477047002001E001C1121FD5
:1014C000002AFBD1704700002DE9FF4F8DB00F4679
:1014D0000546002606E025280BD0DDE90F129047CF
:1014E0006D1C761C28780028F5D111B03046BDE877
:1014F000F08F0024A246A1460122EC4900E00443FB
:1015000015F8013F203B02FA03F00842F7D1287892
:101510002A2810D06FF02F022878A0F13001092975
:1015200014D80AEB8A0102EB410144F0020400EBFB
:10153000010A6D1CF0E701CF5FEA000A03D544F40D
:101540000054CAF1000A44F002046D1C28782E28C9
:1015500017D115F8010F44F004042A280ED06FF0BB
:101560002F022878A0F1300109290AD809EB890156
:1015700002EB410100EB01096D1CF2E757F8049BF7
:101580006D1C28786C280FD006DC4C2817D06828F2
:101590000DD06A2814D104E0742810D07A280FD115
:1015A0000DE044F400140AE044F4801401E044F433
:1015B00040146978814202D104F580146D1C6D1CC1
:1015C0002A786E2A1FD00CDC632A31D004DC002A72
:1015D0008BD0582A11D1A3E0642A68D0692A0CD193
:1015E00065E0732A2ED004DC6F2A73D0702A04D1F0
:1015F0009BE0752A6FD0782A6ED01046DDE90F1275
:101600009047761C50E1C4F30250022806D003280C
:1016100009D0042801CF09D0066045E101CFF117B8
:10162000C0E9006140E101CF06803DE106703BE189
:1016300017F8040B8DF8000000208DF80100EB4630
:10164000012003E057F804BB4FF0FF3061074FF073
:10165000000102D40DE008F10101884649450FDA86
:101660008045F8DB1BF808100029F4D108E008F1E8
:10167000010188468142FADB1BF808100029F6D1E7
:10168000DDE90F23AAEB08008146214600F036F978
:10169000304400EB080604E0DDE90F121BF8010BF3
:1016A0009047B8F10108F7D221464846F7E00A21F1
:1016B000C4F302534FF0000B0891022B04D001CF6A
:1016C000C117032B09D00AE0FF1D27F00707F7E831
:1016D000020108E032E01FE020E000B2C117042B55
:1016E00001D140B2C117031E71F1000307DA4FF0B8
:1016F000000CD0EB0C006CEB01012D2302E0230564
:1017000004D52B238DF82430012303E0E30701D017
:101710002023F7E7984658E00A2110E010210EE058
:1017200010204FF0000B08900CE010214FF0000B40
:1017300044F004044FF00809089103E008214FF039
:10174000000B0891C4F30253022B04D001CF0021F7
:10175000032B06D006E0FF1D27F00707F7E802017C
:1017600003E080B2042B00D1C0B24FF00008230781
:101770002BD5702A07D0DDF820C08CF0100C5CEA65
:101780000B0C05D00EE040238DF82430012308E037
:1017900050EA010306D030238DF824308DF825203F
:1017A00002239846DDF820C08CF0080C5CEA0B0C94
:1017B0000BD150EA010301D1630706D530238DF820
:1017C00024304FF00108A9F10109582A04D038A2A9
:1017D0000B9208AA0A920BE03AA2F9E75B46089A34
:1017E000FEF75CFD0B9B9B5C0A9A521E0A921370DB
:1017F00050EA0102F2D10A98ADEB000000F1200B93
:10180000600702D524F4803401E04FF00109D94586
:1018100002DDA9EB0B0000E0002000EB0B014144CE
:101820000890AAEB010AE00306D4DDE90F23214664
:10183000504600F063F806444FF0000908E009A99B
:1018400011F80900DDE90F12904709F10109761C32
:10185000C145F4DBE0030CD5DDE90F2321465046FA
:1018600000F04CF8064404E0DDE90F123020904708
:10187000761C0899481E08900029F5DC08E00A98B3
:101880000A990078491C0A91DDE90F129047761CED
:10189000BBF10001ABF1010BF1DC21465046DDE963
:1018A0000F2300F019F806446D1C1BE609280100FF
:1018B00030313233343536373839616263646566C6
:1018C0000000000030313233343536373839414288
:1018D00043444546000000002DE9F0410446002540
:1018E0001E461746880404D405E039462020B04738
:1018F0006D1C641EF9D52846BDE8F0812DE9F04144
:10190000044600251E469046C80301D5302700E056
:101910002027880404D505E041463846B0476D1CB1
:10192000641EF9D52846BDE8F081000013B54FF4D8
:101930007A73012269460248FFF7ECF900981CBD52
:10194000689300201CB5FEF771FEFFF78DFBFFF7D3
:101950003FFAFFF7ADFAFEF753FD09490520CDE93F
:10196000000100234FF4007206A10A4801F078F844
:10197000012801D000201CBD00F000FDFEE70000A2
:10198000740000204170705461736B437265617420
:1019900065000000850300082DE9F041184E0F4650
:1019A0000446F5683068001D00F0E6FA38B9306882
:1019B00090F82C1001208840316981433161601C0E
:1019C00007D137B13168BDE8F0410E48091D00F07C
:1019D0000BBB30682C44AC424460316805D2B06B1C
:1019E000BDE8F041091D00F0E7BA706B091D00F079
:1019F000E3FAB06A844200D2B462BDE8F08100002C
:101A000010000020540300202DE9F041054600F0AD
:101A1000F7FA2D4EB068401CB06030682B4F10B103
:101A2000706930B32BE03560B068012827D10024FD
:101A300004EB840007EB800000F0B0FA641C202C5B
:101A4000F6D3234800F0AAFA2148143000F0A6FA91
:101A50001F48283000F0A2FA1D483C3000F09EFAE2
:101A60001B48503000F09AFA194870631430B06384
:101A700005E03068E96AC06A884200D83560706A5B
:101A80000121401C7062E86A326981401143316172
:101A900000EB800007EB8000291D00F0A5FA00F0A4
:101AA000E9FA706900280CD03068E96AC06A884297
:101AB00007D208494FF080500860BFF34F8FBFF343
:101AC0006F8FBDE8F081000010000020840000202E
:101AD0000403002004ED00E070B5124E124D1CE02E
:101AE00000F094FC306820B1002401F0B7F8A4B9EC
:101AF00001E00124F9E700F083FAF068C468201DD2
:101B000000F03AFAA868401EA8606868401E686045
:101B100000F0B0FA204600F049F868680028DFD1EC
:101B200070BD0000400300201000002030B4026CA3
:101B30000B46002A0BD0C1681144C1604468A14221
:101B400001D30168C16030BC1846FEF7D8BB30BC79
:101B500070472DE9F041856B164604460027026C5C
:101B6000FAB17EB1E068FEF7CAFBE168206C091AA1
:101B7000E1602268914202D26168081AE060022E98
:101B80000DD00EE0A068FEF7BAFB216CA0680844F7
:101B9000A0606168884204D32068A06001E005B1BC
:101BA0006D1E6D1CA5633846BDE8F08110B5044676
:101BB000006B00F08FFA2046BDE8104000F08ABAB2
:101BC00010484FF41041420706D0C01D0D4920F0C7
:101BD0000700411AC1F510410B4A00230144C2E934
:101BE00000030839103A21F0070111604B600B60C7
:101BF0000B1AC0E9001393604FF000405360D060AF
:101C0000704700006803002068000020074E4FF076
:101C10008054074DFFF760FF30680128FAD92C6027
:101C2000BFF34F8FBFF36F8FF4E7000084000020F5
:101C300004ED00E02DE9F047DDE909840E46824617
:101C40006FF00301206B01EB82010844089D20F036
:101C500007079946780705D040F22B3218A11EA03D
:101C6000FFF702FC00202218315C82F83410315C4E
:101C700011B1401C1028F6D3002684F84360202DB3
:101C800000D31F25201DE56200F093F904F1180030
:101C900000F08FF92461C5F120006462A0616664E0
:101CA00084F848604A465146384600F04FF92060B3
:101CB000B8F1000F01D0C8F80040BDE8F08700007F
:101CC0002E2E5C4672656552544F535C7372635C92
:101CD0007461736B732E63004572726F723A257371
:101CE0002C25640D0A00000030B5114900E01146B2
:101CF0000A688242FBD34B685C18844203D1406877
:101D000018444860084643681C18944209D1084C9E
:101D1000103C2468A24209D052681A4442600A6802
:101D200012680260814200D0086030BD0460F9E7AB
:101D30006800002010B5044600F062F9A06B20B1E5
:101D4000002400F097F9204610BD0124F9E70000B7
:101D50000648416B096829B1416BC968C96849687F
:101D6000816270474FF0FF31FAE700001000002059
:101D700008484068401C05D040F20F1206A110A090
:101D8000FFF772FB502080F31188BFF34F8FBFF332
:101D90006F8FFEE74C0000202E2E5C467265655268
:101DA000544F535C706F72745C525644535C415292
:101DB0004D5F434D34465C706F72742E63000000BB
:101DC0004572726F723A25732C25640D0A0000006B
:101DD0002DE9F041044600F013F994F9455004F15F
:101DE000240609E0606A48B1304600F0E9FE08B117
:101DF00000F06CFA6D1E6DB2002DF3DC4FF0FF3673
:101E000084F8456000F036F900F0FAF894F944508F
:101E100004F1100709E0206948B1384600F0D0FE0F
:101E200008B100F053FA6D1E6DB2002DF3DC84F89A
:101E30004460BDE8F04100F01DB900002DE9F0411B
:101E40000546002600F0E2FA324F386808B9FFF77D
:101E5000B7FEF86805424FD1002D4DD00835680710
:101E60000BD005F00700C0F108000544680704D056
:101E7000BF2229A131A0FFF7F7FA002D3CD07868E6
:101E8000854239D8234910310846046801E02146CB
:101E900004466068A84202D220680028F7D138685A
:101EA000B846844228D00E6820680860606808360A
:101EB000401B10280ED96719780704D0EC2216A110
:101EC0001EA0FFF7D1FA6068401B78603846656055
:101ED000FFF70AFF6168D8F804004246401AC8F8C4
:101EE0000400D8F80830984200D29060D8F80C006E
:101EF00001430020C4E9000100F0B0FE700705D0E6
:101F00004FF4967204A10DA0FFF7AEFA3046BDE87B
:101F1000F0810000580000202E2E5C46726565524C
:101F2000544F535C706F72745C4D656D4D616E679C
:101F30005C686561705F342E630000004572726FEB
:101F4000723A25732C25640D0A00000010B5031F9A
:101F50004FF080741C601B1F21F001011960191FD4
:101F6000044B0B6014390A60091F6FF002024438F9
:101F70000A6010BD711D0008D0E9013201699A6044
:101F8000D0E901235A604A68824201D182684A60DE
:101F9000002202610868401E0860704700F10801D5
:101FA0004FF0FF32C0E90112C16001610021016000
:101FB000704700210161704730B50C68621C02D087
:101FC00000F1080202E0026904E01A4653681D6845
:101FD000A542FAD953684B6099608A6051600861E4
:101FE0000168491C016030BD42684A6093688B609B
:101FF00093685960916008610168491C01607047ED
:10200000502080F31188BFF34F8FBFF36F8F0949C2
:102010004868401C486001280AD10748006810F051
:10202000FF0F05D040F2B91204A10EA0FFF71CBAB1
:10203000704700004C00002004ED00E02E2E5C46AE
:1020400072656552544F535C706F72745C525644A3
:10205000535C41524D5F434D34465C706F72742E39
:10206000630000004572726F723A25732C25640D6F
:102070000A00000010B5084C606828B94FF4E072FF
:1020800006A110A0FFF7F0F96068401E606001D162
:1020900080F3118810BD00004C0000202E2E5C46FD
:1020A00072656552544F535C706F72745C52564443
:1020B000535C41524D5F434D34465C706F72742ED9
:1020C000630000004572726F723A25732C25640D0F
:1020D0000A00000070B500282AD0164DA0F10804AF
:1020E0006068E968084205D14FF4A07212A11BA0F4
:1020F000FFF7BAF9206828B140F241120EA117A0EB
:10210000FFF7B2F96068E968084211D02268002A36
:102110000ED18843606000F079F96068696808440E
:1021200068602046FFF7E0FDBDE8704000F096BD16
:1021300070BD0000580000202E2E5C46726565526E
:10214000544F535C706F72745C4D656D4D616E677A
:102150005C686561705F342E630000004572726FC9
:10216000723A25732C25640D0A00000006484FF4CE
:102170007A710068B0FBF1F14FF0E020491E416137
:1021800007210161704700000000002010B5040025
:1021900012D00E49096B29B140F2CF420CA112A016
:1021A000FFF762F900F032F900212046FFF7F4FB57
:1021B00000F054FD002807D10F494FF0805008600F
:1021C000BFF34F8FBFF36F8F10BD000010000020D2
:1021D0002E2E5C4672656552544F535C7372635C7D
:1021E0007461736B732E63004572726F723A25735C
:1021F0002C25640D0A00000004ED00E070B50446D3
:10220000FFF7FEFE234D04B92C68201DFFF7B4FE36
:1022100058B9E06A204A00EB800152F8211021B938
:1022200001218140286988432861A06A18B104F11E
:102230001800FFF7A1FE686A401C686228688442A3
:1022400007D1211D1548FFF7CFFE6868401C686064
:1022500007E0A868401EA8602046FFF7A7FCFFF72C
:1022600077FDFFF707FF6869002812D028688442CD
:102270000FD1286B28B140F2654209A10EA0FFF7EB
:10228000F3F811494FF080500860BFF34F8FBFF350
:102290006F8F70BD100000208400002040030020DC
:1022A0002E2E5C4672656552544F535C7372635CAC
:1022B0007461736B732E63004572726F723A25738B
:1022C0002C25640D0A00000004ED00E00149012006
:1022D000C86170471000002070B50D46040005D19C
:1022E00040F6063207A10DA0FFF7BEF80F480168BF
:1022F00020461831FFF760FE2846BDE870400121F6
:10230000FFF74ABB2E2E5C4672656552544F535CF4
:102310007372635C7461736B732E63004572726FCA
:10232000723A25732C25640D0A000000100000206D
:1023300010B5040005D140F6C13205A10AA0FFF78F
:1023400093F80D48016A2160C068606010BD00000C
:102350002E2E5C4672656552544F535C7372635CFB
:102360007461736B732E63004572726F723A2573DA
:102370002C25640D0A000000100000201CB5154833
:102380000024CDE900402346802213A1144800F028
:1023900067FB01280AD0401C1BD102B040F28472B6
:1023A000BDE810400FA115A0FFF75EB8502080F3E4
:1023B0001188BFF34F8FBFF36F8F06484FF0FF3187
:1023C0002C38816201214161C460BDE81C4000F0ED
:1023D00065B81CBD3C00002049444C45000000008D
:1023E0000D1C00082E2E5C4672656552544F535CDE
:1023F0007372635C7461736B732E63004572726FEA
:10240000723A25732C25640D0A0000000248016B06
:10241000491C0163704700001000002070B5134D87
:10242000286B10B10120E86170BD0020E8612869C7
:102430000F4EB0FA80F0C0F11F0000EB800456F898
:10244000240028B940F6F6220AA110A0FFF70CF8E4
:1024500006EB840000F1080241684968416091423E
:1024600001D149684160C868286070BD1000002033
:10247000840000202E2E5C4672656552544F535CDA
:102480007372635C7461736B732E63004572726F59
:10249000723A25732C25640D0A0000001CB5304CDF
:1024A00020683049884205D140F259122EA138A047
:1024B000FEF7DAFF20682B49491E884205D14FF408
:1024C000AD7229A132A0FEF7CFFF354C20780190E4
:1024D000FF20207020788DF800009DF800009DF806
:1024E000001000F0F000884205D040F273121EA1E7
:1024F00027A0FEF7B9FF9DF800002A4A00F050001F
:1025000010700720906007E09068401E90609DF872
:10251000000040008DF800009DF800000006F3D494
:10252000107A000200F4E0609060019820700C487E
:102530002030016841F470010160016841F0704190
:102540000160FFF713FE00205060FDF759FE1648AA
:10255000016841F040410160FDF742FE00201CBDD2
:1025600000ED00E071C20F412E2E5C46726565528F
:10257000544F535C706F72745C525644535C4152BA
:102580004D5F434D34465C706F72742E63000000E3
:102590004572726F723A25732C25640D0A00000093
:1025A00000E400E04C00002034EF00E010B55020C3
:1025B00080F31188BFF34F8FBFF36F8F00F08AFA5B
:1025C00018B104494FF080500860002080F3118852
:1025D00010BD000004ED00E070B50E46050005D109
:1025E0004FF4C4720DA113A0FEF73EFF96B105FB98
:1025F00006F04830FFF722FC040009D004F148013E
:1026000020464EB10160C0E90F56012100F0D0F81C
:10261000204670BD0020ECE70060F4E72E2E5C46FB
:1026200072656552544F535C7372635C7175657566
:10263000652E63004572726F723A25732C25640D06
:102640000A0000002DE9FF4F83B09B468A46040034
:102650004FF0000605D140F2DC424AA14FA0FEF740
:1026600003FFBAF1000F07D1206C28B140F2DD4220
:1026700044A14AA0FEF7F8FE00F01EFA38B905980A
:1026800028B14FF49C623FA144A0FEF7EDFE4FF04D
:1026900000094FF08057DFF81481FFF7B1FCA56BFC
:1026A0001DB351462046E668FFF740FABBF1000F24
:1026B00013D0E660606A50B104F1240000F080FAA3
:1026C00028B1C8F80070BFF34F8FBFF36F8FFFF7CB
:1026D000D1FC012007B0BDE8F08F6D1EA563206915
:1026E0000028F4D004F11000E8E7059808B11EB105
:1026F00006E0FFF7BFFC27E06846FFF719FE01265A
:10270000FFF7B8FCFFF782FEFFF77AFC94F944006C
:10271000401C01D184F8449094F94500401C01D13B
:1027200084F84590FFF7A6FC05A9684600F052F929
:10273000002820460AD0FFF74BFB00F08FFA204616
:10274000FFF7F8FA0028A8D00020C3E7FFF7F2FA55
:1027500090B104F124000599FFF7BEFD2046FFF774
:1027600037FB00F07BFA002897D1C8F80070BFF360
:102770004F8FBFF36F8F90E72046FFF729FB00F0E4
:102780006DFA8AE72E2E5C4672656552544F535C93
:102790007372635C71756575652E63004572726F47
:1027A000723A25732C25640D0A00000004ED00E048
:1027B00070B50D46040005D140F21B121CA122A0E9
:1027C000FEF752FEFFF71CFCD4E90F20216802FB44
:1027D000001161600021A1632168A1600A46D4E96B
:1027E0000F01401E00FB0121E16021464FF0FF3048
:1027F00001F8440F487004F110004DB1FFF7CEFB13
:1028000004F12400FFF7CAFBFFF734FC012070BD80
:1028100021690029F8D000F0D3F90028F4D00E493E
:102820004FF080500860BFF34F8FBFF36F8FEBE71F
:102830002E2E5C4672656552544F535C7372635C16
:1028400071756575652E63004572726F723A2573F6
:102850002C25640D0A00000004ED00E02DE9FF4F77
:1028600083B01F468B4604004FF0000605D140F2AE
:10287000D9224DA152A0FEF7F7FDBBF1000F07D101
:10288000206C28B140F2DA2247A14DA0FEF7ECFD02
:10289000022F08D1E06B012805D040F2DB2242A1D3
:1028A00047A0FEF7E1FD00F007F938B9059828B117
:1028B00040F2DE223CA142A0FEF7D6FD4FF0000A16
:1028C0004FF08058DFF80891FFF79AFBA06BE16B9F
:1028D000884205D3022F03D00598C8B1DEB11EE0AF
:1028E0003A4659462046FFF734F9616A19B104F1B6
:1028F000240000F065F928B1C9F80080BFF34F8FBC
:10290000BFF36F8FFFF7B6FB012007B0BDE8F08F74
:10291000FFF7B0FB21E06846FFF70AFD0126FFF74D
:10292000A9FBFFF773FDFFF76BFB94F94400401C14
:1029300001D184F844A094F94500401C01D184F8E9
:1029400045A0FFF797FB05A9684600F043F830B1B2
:102950002046FFF73DFA00F081F90020D5E7FFF7A8
:102960004FFBA06BE16B884201D1012500E00025FF
:10297000FFF780FB95B104F110000599FFF7ACFC5F
:102980002046FFF725FA00F069F900289CD1C9F824
:102990000080BFF34F8FBFF36F8F95E72046FFF79F
:1029A00017FA00F05BF98FE72E2E5C4672656552D0
:1029B000544F535C7372635C71756575652E63006B
:1029C0004572726F723A25732C25640D0A0000005F
:1029D00004ED00E070B50D46040005D140F6CB32A1
:1029E00014A11AA0FEF740FD2DB940F6CC3211A17A
:1029F00016A0FEF739FDFFF703FB184AD0682968D7
:102A00004B1C0FD02368126A934202D06268824244
:102A10000AD96268801A884206D2081A28602046BD
:102A2000FFF786FC002400E00124FFF723FB20468B
:102A300070BD00002E2E5C4672656552544F535C8B
:102A40007372635C7461736B732E63004572726F93
:102A5000723A25732C25640D0A0000001000002036
:102A60002DE9FF5F8346DDE90E87994616468A46C3
:102A70009000FFF7E3F905001AD04C20FFF7DEF9CC
:102A8000040012D025630021CDE90241CDE9008781
:102A90004B46324651465846FFF7CCF82046FEF7E3
:102AA000B3FF012004B0BDE8F09F2846FFF712FBFA
:102AB0004FF0FF30F6E700000548416919B1006B9F
:102AC00018B10020704701207047022070470000B5
:102AD000100000202DE9F0412D4F0026386B40B149
:102AE000B869401CB861F86900B101263046BDE8FC
:102AF000F081FD686D1CFD6011D1786B006828B114
:102B000040F6D91223A129A0FEF7AEFC786BB96B71
:102B10007963B863386A401C3862FFF719F9B86AFC
:102B2000DFF89880854209D3786B006880B1786BB4
:102B3000C068C468606885420DD2B8623868C06AEF
:102B400000EB800158F821000128CCD90126CAE702
:102B50004FF0FF30F1E7201DFFF70EFAA06A18B121
:102B600004F11800FFF708FAE06A01213A69814090
:102B70001143396100EB800108EB8100211DFFF753
:102B800033FAE06A3968C96A8842CDD30126CBE7B7
:102B9000100000202E2E5C4672656552544F535C27
:102BA0007372635C7461736B732E63004572726F32
:102BB000723A25732C25640D0A0000008400002061
:102BC0002DE9F041C068C4682CB940F6613216A105
:102BD0001BA0FEF749FC04F118000746FFF7CCF9EB
:102BE0001B4D286B012660B139461A48FFF7FCF9E6
:102BF000E06A2968C96A884213D90120EE61BDE8FC
:102C0000F081201DFFF7B8F9E06A2A6906FA00F1A1
:102C100011432961104900EB800001EB8000211D68
:102C2000E4E70020EBE700002E2E5C46726565525B
:102C3000544F535C7372635C7461736B732E6300E7
:102C40004572726F723A25732C25640D0A000000DC
:102C5000100000202C030020840000202DE9F04704
:102C60002B4D00242746286B28B94FF4FD6229A17B
:102C70002EA0FEF7F9FBFFF7C3F9286B401E28636F
:102C8000286BE8BBA8682D490126C8B3A1F52A79AD
:102C90008846D8F80010E9B1D8F80C00C46804F1EF
:102CA0001800FFF769F9201DFFF766F9E06A2A6945
:102CB00006FA00F11143296100EB800109EB810064
:102CC000211DFFF791F9E06A2968C96A8842E0D3BB
:102CD000EE61DEE70CB1FFF73BF8AC693CB1FFF702
:102CE000F9FE00B1EE61641EF9D10020A861E86927
:102CF00030B11349012738070860BFF34F8F00E058
:102D000001E0BFF36F8FFFF7B5F93846BDE8F087F4
:102D1000100000202E2E5C4672656552544F535CA5
:102D20007372635C7461736B732E63004572726FB0
:102D3000723A25732C25640D0A0000002C03002034
:102D400004ED00E0000000000000000001020304A8
:102D50000607080900000000010203047C2D00089A
:102D60000000002084000000A8140008002E0008C5
:102D70008400002024970000B81400080024F40008
:102D80000100000010000000000000000000000032
:102D90000000000000000000000000000000000033
:102DA0000000000000000000000000000000000023
:102DB0000000000000000000000000000000000013
:102DC000000000000000000000000000AAAAAAAA5B
:102DD00000000000000000000000000000000000F3
:102DE00000000000000000000000000000000000E3
:102DF00000000000000000000000000000000000D3
:04000005080001AD41
:00000001FF
