:020000040800F2
:10000000A09700207902000877080008230800085C
:100010007508000809030008F30B00080000000041
:10002000000000000000000000000000C101000806
:100030004903000800000000150200087B080008C2
:10004000930200089302000893020008930200083C
:10005000930200089302000893020008930200082C
:10006000930200089302000893020008930200081C
:10007000930200089302000893020008930200080C
:1000800093020008930200089302000893020008FC
:1000900093020008930200089302000893020008EC
:1000A00093020008930200089302000893020008DC
:1000B00093020008930200089302000893020008CC
:1000C00093020008930200089302000893020008BC
:1000D00093020008930200089302000893020008AC
:1000E000930200089302000893020008930200089C
:1000F000930200089302000893020008930200088C
:10010000930200087908000893020008930200088F
:10011000930200089302000893020008930200086B
:1001200093020008930200089302000845030008A8
:10013000930200089302000893020008930200084B
:10014000930200089302000893020008930200083B
:100150009302000847030008930200089302000876
:10016000930200089302000893020008930200081B
:1001700093020008930200089302000800000000A8
:1001800093020008930200089302000893020008FB
:1001900093020008930200089302000893020008EB
:1001A000930200089302000893020008DFF80CD0C5
:1001B00000F08AF800480047250E0008A0970020AC
:1001C0002A4B19680868B0E8F04F80F30988BFF33C
:1001D0006F8F4FF0000080F311887047000000001F
:1001E00006480068006880F3088862B661B6BFF30D
:1001F0004F8FBFF36F8F00DF00BF00BF08ED00E03F
:10020000DFF80C00016841F470010160704700BF25
:1002100088ED00E0EFF30980BFF36F8F134B1A688E
:100220001EF0100F08BF20ED108A20E9F04F10607B
:1002300008B44FF0500080F31188BFF34F8FBFF325
:100240006F8F01F0F3F94FF0000080F3118808BCC4
:1002500019680868B0E8F04F1EF0100F08BFB0EC46
:10026000108A80F30988BFF36F8F70471000002059
:10027000EFF30580704700000648804706480047B6
:10028000FEE7FEE7FEE7FEE7FEE7FEE7FEE7FEE746
:10029000FEE7FEE791080008AD01000830B50B4607
:1002A000014600202022012409E021FA02F59D42A6
:1002B00005D303FA02F5491B04FA02F52844151E7A
:1002C000A2F10102F1DC30BD064C074D06E0E0680A
:1002D00040F0010394E8070098471034AC42F6D38D
:1002E000FFF768FF381A0008581A000810B501F027
:1002F0001FF80448006801F0E1F8BDE8104001F083
:1003000051B8000070000020FEE7000010B50C4C52
:100310000A4820604FF4E13060600020A060E06097
:100320002061A0610C206061204600F0A9F92068DE
:10033000C16841F02001C16010BD00000010014003
:100340005C93002070477047704700002DE9F84F1C
:10035000DFF88C91002209F1040A0AF1040B4FF036
:100360000F080BF1040E01260B6896403340B34290
:1003700071D14C68022C01D0122C11D1D40800EBA1
:1003800084073D6A5407E40E08FA04FC25EA0C05CC
:10039000D1F810C00CFA04FC4CEA050CC7F820C0D8
:1003A00007685400032591F804C0A5400CF0030C25
:1003B000AF430CFA04FC4CEA070CC0F800C04F68CD
:1003C000012F05D0022F03D0112F01D0122F11D1F0
:1003D0008768D1F80CC0AF430CFA04FC4CEA070C58
:1003E000C0F808C04768B7430E79C6F300169640B8
:1003F0003E434660C668AE438D68A5403543C56040
:100400004C68E40065D5374C256845F48045256087
:10041000246822F0030504F480440094324C2E1921
:10042000D6F808789407250F08FA05F4A7432F4C4F
:10043000A04201D1002424E02D4CA04201D101248E
:100440001FE02C4CA04201D102241AE02A4CA04209
:1004500002D1032415E03CE0284CA04201D1042441
:100460000FE0274CA04201D105240AE0254CA04210
:1004700001D1062405E0244CA04201D1072400E06C
:100480000824AC403C43C6F80848D9F800404D4623
:100490004E689C43F60300D51C432C60DAF80040FC
:1004A00055464E689C43B60300D51C432C60DBF8D0
:1004B00000405D464E689C43F60200D51C432C600C
:1004C000DEF8004075464E689C43B60200D51C43DA
:1004D0002C60521C102AFFF446AFBDE8F88F0000D4
:1004E000003C01404438024000300140000002401E
:1004F0000004024000080240000C024000100240CC
:100500000014024000180240001C02400AB1816140
:1005100070470904FBE7000001488068704700004D
:10052000040000200B4810B5016841F4007101601F
:10053000016841F480610160016841F480710160EB
:10054000032000F057F80F2000F006F800F024F820
:10055000002010BD003C024070B50D4D04464FF424
:100560007A712878B1FBF0F00A490968B1FBF0F024
:1005700000F072F848B9102C07D200222146501E14
:1005800000F018F800206C6070BD012070BD000004
:1005900004000020000000207047002809DB00F064
:1005A0001F02012191404009800000F1E020C0F8C5
:1005B00000117047F0B40E4B1B68C3F30223C3F164
:1005C0000704042C00D904241D1D072D01D200238B
:1005D00000E0DB1E012606FA04F56D1E0D409D406D
:1005E0009E40761E164045EA0601F0BC00F012BBA4
:1005F0000CED00E0064A00F0070110684FF6FF031B
:10060000184040EA01200349084310607047000089
:100610000CED00E00000FA0504480549006809688F
:10062000044AC1F38221515CC84070470000002099
:1006300008380240301A0008044805490068096873
:10064000044AC1F34231515CC840704700000020A9
:1006500008380240301A000810B5401EB0F1807F03
:1006600001D3012010BD4FF0E02460610F2160171D
:1006700000F0D0FA0020A06107202061002010BD0A
:1006800070B5040004D094F83900002510B106E0DC
:10069000012070BD84F83850204600F023F8242053
:1006A00084F839002068C16821F40051C1602046F7
:1006B00000F018F92068016921F490410161206877
:1006C000416921F02A0141612068C16841F400516B
:1006D000C160E563202084F8390084F83A000020E6
:1006E00070BD000030B51E4887B0016841F01001B0
:1006F0000160006800F01000059019481438016886
:1007000041F001010160016801F0010105910168FA
:1007100041F0010101600068072400F0010005902C
:100720004FF40070009002200190012002900320FD
:10073000CDE903040B4D69462846FFF707FE29154E
:100740000091049469462846FFF700FE012200212B
:100750002520FFF72FFF2520FFF71FFF07B030BD33
:1007600044380240000002402DE9F843044690F866
:1007700039001E4617460D46202850D1A5B19FB11D
:1007800094F8380001284AD0012084F838004FF04E
:100790000008C4F83C80212084F83900FFF7BCFE33
:1007A000A7848146E78426E00120BDE8F883E08C39
:1007B000401EE084A0684B46B0F5805F4FF0000219
:1007C0004FF080012046009603D000F0E1F9E8B92F
:1007D0000DE000F0DDF9C8B928882168C0F30800F1
:1007E0004860206908B16D1C05E0AD1C03E021687C
:1007F00015F8010B4860E08C0028D8D14B46002248
:1008000040212046009600F0C3F908B10320CCE750
:10081000202084F8390084F838800020C5E70220C1
:10082000C3E7FEE7114810B5016886B041F020012A
:10083000016000680E4C00F0200005904FF4C0608D
:100840000090012001900290032003906946204609
:10085000FFF77CFD012251022046FFF757FE0122DF
:1008600091022046FFF752FE06B010BD303802401C
:1008700000140240FEE77047704710B500F0E0FF3B
:10088000012803D0BDE8104000F098BF10BD000063
:100890001048016841F4700101600F48016841F09F
:1008A000010101600C4A00210832116002680B4B03
:1008B0001A400260031D0A4A1A60026822F480226C
:1008C000026005480C300160024958068039086012
:1008D0007047000088ED00E000380240FFFFF6FEA0
:1008E000103000242DE9F041044600680169E268F7
:1008F00021F4405111430161A1682069E26901437B
:100900006069104301432068C26849F20C639A434E
:100910000A43C26020684169A26921F44071114311
:100920004161E0696425B0F5004F974A9749206816
:100930004FF032083FD0884201D090427CD1FFF77F
:100940007BFE00EBC00101EB001061688900B0FB89
:10095000F1F6FFF771FE00EBC00101EB00106168DA
:100960008900B0FBF1F0B0FBF5F06FF018014843DF
:1009700006EB800108EB0110B0FBF5F000F0F0068B
:10098000FFF75AFE00EBC00101EB0010616889001F
:10099000B0FBF1F0B0FBF5F006EB0016FFF74CFEF4
:1009A00000EBC00101EB001061688900B0FBF1F7BA
:1009B000FFF742FED2E0884201D090423DD1FFF7DE
:1009C0003BFE00EBC00101EB001061684900B0FB89
:1009D000F1F0B0FBF5F00601FFF72EFE00EBC001D1
:1009E00001EB001061684900B0FBF1F7FFF724FE4E
:1009F00000EBC00101EB001061684900B0FBF1F0B1
:100A0000B0FBF5F06FF01801484307EB800108EBED
:100A1000C100B0FBF5F000F0F80006EB4006FFF770
:100A20000BFE00EBC00101EB001061684900B0FB58
:100A3000F1F7FFF701FE3CE055E0FFF7EDFD00EBBD
:100A4000C00101EB001061684900B0FBF1F0B0FBA0
:100A5000F5F00601FFF7E0FD00EBC00101EB00102F
:100A600061684900B0FBF1F7FFF7D6FD00EBC0016C
:100A700001EB001061684900B0FBF1F0B0FBF5F04C
:100A80006FF01801484307EB800108EBC100B0FB91
:100A9000F5F000F0F80006EB4006FFF7BDFD00EBB7
:100AA000C00101EB001061684900B0FBF1F7FFF7EE
:100AB000B3FD00EBC00101EB001061684900B0FB21
:100AC000F1F0B0FBF5F06FF01801484307EB80013F
:100AD00008EBC100B0FBF5F000F0070021683044DE
:100AE0008860BDE8F081FFF797FD00EBC00101EBE6
:100AF000001061688900B0FBF1F6FFF78DFD00EB97
:100B0000C00101EB001061688900B0FBF1F0B0FB9F
:100B1000F5F06FF01801484306EB800108EB011077
:100B2000B0FBF5F000F0F006FFF776FD00EBC0013A
:100B300001EB001061688900B0FBF1F0B0FBF5F04B
:100B400006EB0016FFF768FD00EBC00101EB00109B
:100B500061688900B0FBF1F7FFF75EFD00EBC001B3
:100B600001EB001061688900B0FBF1F0B0FBF5F01B
:100B70006FF01801484307EB800108EB0110B0FB50
:100B8000F5F000F00F00A9E700140140001001404B
:100B90002DE9F0411E46174688460446069D1CE096
:100BA000681C1AD025B1FFF7B7FC801BA84214D9E6
:100BB0002068C16821F4D071C1602068416921F0CA
:100BC00001014161202084F8390084F83A000020B6
:100BD00084F838000320BDE8F0812068016838EA15
:100BE000010004D00020B842DAD00020F3E7012051
:100BF000F9E7FEE70FB4054B10B503A9044A0298C4
:100C000000F028F810BC5DF814FB00000D0E000881
:100C1000740000200907090E002804DB00F1E02021
:100C200080F80014704700F00F0000F1E02080F819
:100C3000141D704702E008C8121F08C1002AFAD12B
:100C400070477047002001E001C1121F002AFBD14C
:100C5000704700002DE9FF4F8BB09A460F460546BE
:100C6000002606E025280BD052460D9990476D1CB2
:100C7000761C28780028F5D10FB03046BDE8F08FFB
:100C80000024A0460122604900E0044315F8013F1A
:100C9000203B02FA03F00842F7D128782E2817D11A
:100CA00015F8010F44F004042A280ED06FF02F022B
:100CB0002878A0F1300109290AD808EB880102EB55
:100CC000410100EB01086D1CF2E757F8048B6D1C25
:100CD000287869283ED006DC0028CDD063280BD0C8
:100CE000642804D136E0732810D075284BD05246C2
:100CF0000D999047761C85E017F8040B8DF80000DD
:100D000000208DF80100E946012003E057F8049B1C
:100D10004FF0FF3061074FF0000401D40AE0641C7B
:100D200044450DDA8442FADB19F804100029F6D1A3
:100D300006E0641C8442FCDB19F804100029F8D199
:100D4000264404E019F8010B52460D999047641EA1
:100D5000F8D257E001CF4FF00A0B002802DA4042E8
:100D60002D2102E0210504D52B218DF8241001212D
:100D700003E0E10705D02021F7E70DF120090891F4
:100D80000CE00021F9E701CF4FF00A0BF9E75946D3
:100D9000FFF784FA01F1300209F8012D0028F6D19D
:100DA000ADEB090000F1200B600701D44FF0010802
:100DB000D84502DDA8EB0B0000E0002080460024AF
:100DC00006E009A85246005D0D999047641C761C08
:100DD00008988442F5DB04E0302052460D99904794
:100DE000761CB8F10001A8F10108F5DC05E019F85E
:100DF000010B52460D999047761CBBF10001ABF1F7
:100E0000010BF4DC6D1C34E70928010013B54FF425
:100E10007A73012269460248FFF7A6FC00981CBDC0
:100E20005C9300201CB5FFF77DFBFFF7FBFCFFF791
:100E30006DFA09490520CDE9000100234FF4007245
:100E400006A10A4800F0D0FC012801D000201CBDFA
:100E500000F09CFBFEE70000700000204170705421
:100E600061736B437265617465000000ED020008F8
:100E70002DE9F041054600F05BFA2D4EB068401CAC
:100E8000B06030682B4F10B1706930B32BE0356023
:100E9000B068012827D1002404EB840007EB800010
:100EA00000F02CFA641C202CF6D3234800F026FA1C
:100EB0002148143000F022FA1F48283000F01EFAB2
:100EC0001D483C3000F01AFA1B48503000F016FA6A
:100ED000194870631430B06305E03068E96AC06A8D
:100EE000884200D83560706A0121401C7062E86A4F
:100EF000326981401143316100EB800007EB8000D3
:100F0000291D00F009FA00F04DFA706900280CD094
:100F10003068E96AC06A884207D208494FF08050B9
:100F20000860BFF34F8FBFF36F8FBDE8F081000003
:100F30001000002078000020F802002004ED00E0FE
:100F400070B5124E124D1CE000F068FB306820B105
:100F5000002400F0F9FCA4B901E00124F9E700F055
:100F6000E7F9F068C468201D00F0B6F9A868401ED3
:100F7000A8606868401E686000F014FA204600F01F
:100F800009F868680028DFD170BD00003403002034
:100F90001000002010B50446006B00F033FA204624
:100FA000BDE8104000F02EBA10484FF4104142073F
:100FB00006D0C01D0D4920F00700411AC1F51041AF
:100FC0000B4A00230144C2E900030839103A21F01A
:100FD000070111604B600B600B1AC0E900139360AE
:100FE0004FF000405360D060704700005C03002069
:100FF00068000020074E4FF08054074DFFF7A0FF18
:1010000030680128FAD92C60BFF34F8FBFF36F8F80
:10101000F4E700007800002004ED00E02DE9F0473F
:10102000DDE909840E4682466FF00301206B01EB77
:1010300082010844089D20F007079946780705D0EB
:1010400040F22B3218A11EA0FFF7D4FD0020221879
:10105000315C82F83410315C11B1401C1028F6D399
:10106000002684F84360202D00D31F25201DE56253
:1010700000F04FF904F1180000F04BF92461C5F1BC
:1010800020006462A061666484F848604A46514664
:10109000384600F00BF92060B8F1000F01D0C8F815
:1010A0000040BDE8F08700002E2E5C467265655258
:1010B000544F535C7372635C7461736B732E630083
:1010C0004572726F723A25732C25640D0A00000078
:1010D00030B5114900E011460A688242FBD34B68E3
:1010E0005C18844203D1406818444860084643684D
:1010F0001C18944209D1084C103C2468A24209D023
:1011000052681A4442600A6812680260814200D044
:10111000086030BD0460F9E7680000200648416BB4
:10112000096829B1416BC968C9684968816270471B
:101130004FF0FF31FAE70000100000200848406837
:10114000401C05D040F20F1206A110A0FFF752FD7F
:10115000502080F31188BFF34F8FBFF36F8FFEE7EE
:101160004C0000202E2E5C4672656552544F535C35
:10117000706F72745C525644535C41524D5F434DE4
:1011800034465C706F72742E630000004572726F9B
:10119000723A25732C25640D0A0000002DE9F041F8
:1011A0000546002600F03AFA324F386808B9FFF7D2
:1011B000FBFEF86805424FD1002D4DD00835680779
:1011C0000BD005F00700C0F108000544680704D003
:1011D000BF2229A131A0FFF70DFD002D3CD078687A
:1011E000854239D8234910310846046801E0214678
:1011F00004466068A84202D220680028F7D1386807
:10120000B846844228D00E682068086060680836B6
:10121000401B10280ED96719780704D0EC2216A1BC
:101220001EA0FFF7E7FC6068401B786038466560E9
:10123000FFF74EFF6168D8F804004246401AC8F82C
:101240000400D8F80830984200D29060D8F80C001A
:1012500001430020C4E9000100F076FB700705D0CF
:101260004FF4967204A10DA0FFF7C4FC3046BDE810
:10127000F0810000580000202E2E5C4672656552F9
:10128000544F535C706F72745C4D656D4D616E6749
:101290005C686561705F342E630000004572726F98
:1012A000723A25732C25640D0A00000010B5031F47
:1012B0004FF080741C601B1F21F001011960191F81
:1012C000044B0B6014390A60091F6FF002024438A6
:1012D0000A6010BD3D110008D0E9013201699A6031
:1012E000D0E901235A604A68824201D182684A608B
:1012F000002202610868401E0860704700F1080182
:101300004FF0FF32C0E90112C160016100210160AC
:10131000704700210161704742684A6093688B60A2
:1013200093685960916008610168491C01607047C9
:10133000502080F31188BFF34F8FBFF36F8F09499F
:101340004868401C486001280AD10748006810F02E
:10135000FF0F05D040F2B91204A10EA0FFF74ABC5E
:10136000704700004C00002004ED00E02E2E5C468B
:1013700072656552544F535C706F72745C52564480
:10138000535C41524D5F434D34465C706F72742E16
:10139000630000004572726F723A25732C25640D4C
:1013A0000A00000010B5084C606828B94FF4E072DC
:1013B00006A110A0FFF71EFC6068401E606001D10E
:1013C00080F3118810BD00004C0000202E2E5C46DA
:1013D00072656552544F535C706F72745C52564420
:1013E000535C41524D5F434D34465C706F72742EB6
:1013F000630000004572726F723A25732C25640DEC
:101400000A00000070B500282AD0164DA0F108048B
:101410006068E968084205D14FF4A07212A11BA0D0
:10142000FFF7E8FB206828B140F241120EA117A097
:10143000FFF7E0FB6068E968084211D02268002AE3
:101440000ED18843606000F0E9F86068696808447C
:1014500068602046FFF73CFEBDE8704000F074BABB
:1014600070BD0000580000202E2E5C46726565524B
:10147000544F535C706F72745C4D656D4D616E6757
:101480005C686561705F342E630000004572726FA6
:10149000723A25732C25640D0A00000006484FF4AB
:1014A0007A710068B0FBF1F14FF0E020491E416114
:1014B00007210161704700000000002070B504465C
:1014C000FFF736FF234D04B92C68201DFFF704FFFA
:1014D00058B9E06A204A00EB800152F8211021B986
:1014E00001218140286988432861A06A18B104F16C
:1014F0001800FFF7F1FE686A401C686228688442A1
:1015000007D1211D1548FFF707FF6868401C686078
:1015100007E0A868401EA8602046FFF73BFDFFF7E4
:10152000FDFDFFF73FFF6869002812D0286884425C
:101530000FD1286B28B140F2654209A10EA0FFF738
:1015400059FB11494FF080500860BFF34F8FBFF334
:101550006F8F70BD10000020780000203403002041
:101560002E2E5C4672656552544F535C7372635CF9
:101570007461736B732E63004572726F723A2573D8
:101580002C25640D0A00000004ED00E01CB5154890
:101590000024CDE900402346802213A1144800F026
:1015A00023F901280AD0401C1BD102B040F28472FA
:1015B000BDE810400FA115A0FFF71CBB502080F321
:1015C0001188BFF34F8FBFF36F8F06484FF0FF3185
:1015D0002C38816201214161C460BDE81C4000F0EB
:1015E00065B81CBD3C00002049444C45000000008B
:1015F000F50F00082E2E5C4672656552544F535C01
:101600007372635C7461736B732E63004572726FE7
:10161000723A25732C25640D0A0000000248016B04
:10162000491C0163704700001000002070B5134D85
:10163000286B10B10120E86170BD0020E8612869C5
:101640000F4EB0FA80F0C0F11F0000EB800456F896
:10165000240028B940F6F6220AA110A0FFF7CAFA22
:1016600006EB840000F1080241684968416091423C
:1016700001D149684160C868286070BD1000002031
:10168000780000202E2E5C4672656552544F535CE4
:101690007372635C7461736B732E63004572726F57
:1016A000723A25732C25640D0A0000001CB5304CDD
:1016B00020683049884205D140F259122EA138A045
:1016C000FFF798FA20682B49491E884205D14FF44C
:1016D000AD7229A132A0FFF78DFA354C2078019028
:1016E000FF20207020788DF800009DF800009DF804
:1016F000001000F0F000884205D040F273121EA1E5
:1017000027A0FFF777FA9DF800002A4A00F0500062
:1017100010700720906007E09068401E90609DF870
:10172000000040008DF800009DF800000006F3D492
:10173000107A000200F4E0609060019820700C487C
:101740002030016841F470010160016841F070418E
:101750000160FFF7A3FE00205060FEF751FD164820
:10176000016841F040410160FEF73AFD00201CBDD8
:1017700000ED00E071C20F412E2E5C46726565528D
:10178000544F535C706F72745C525644535C4152B8
:101790004D5F434D34465C706F72742E63000000E1
:1017A0004572726F723A25732C25640D0A00000091
:1017B00000E400E04C00002034EF00E010B55020C1
:1017C00080F31188BFF34F8FBFF36F8F00F046F89F
:1017D00018B104494FF080500860002080F3118850
:1017E00010BD000004ED00E02DE9FF5F8346DDE958
:1017F0000E87994616468A469000FFF7CFFC0500F3
:101800001AD04C20FFF7CAFC040012D02563002137
:10181000CDE90241CDE900874B4632465146584654
:10182000FFF7FCFB2046FFF723FB012004B0BDE8D7
:10183000F09F2846FFF7E6FD4FF0FF30F6E7000087
:101840000548416919B1006B18B1002070470120AB
:101850007047022070470000100000202DE9F04181
:101860002D4F0026386B40B1B869401CB861F8694B
:1018700000B101263046BDE8F081FD686D1CFD60B9
:1018800011D1786B006828B140F6D91223A129A0A4
:10189000FFF7B0F9786BB96B7963B863386A401CAD
:1018A0003862FFF73BFCB86ADFF89880854209D3BD
:1018B000786B006880B1786BC068C46860688542E6
:1018C0000DD2B8623868C06A00EB800158F8210078
:1018D0000128CCD90126CAE74FF0FF30F1E7201DDF
:1018E000FFF7FAFCA06A18B104F11800FFF7F4FC46
:1018F000E06A01213A6981401143396100EB8001BE
:1019000008EB8100211DFFF707FDE06A3968C96A0D
:101910008842CDD30126CBE7100000202E2E5C4656
:1019200072656552544F535C7372635C7461736B80
:10193000732E63004572726F723A25732C25640D05
:101940000A000000780000202DE9F0472B4D00240C
:101950002746286B28B94FF4FD6229A12EA0FFF776
:1019600049F9FFF7E5FC286B401E2863286BE8BBAC
:10197000A8682D490126C8B3A1F52A798846D8F868
:101980000010E9B1D8F80C00C46804F11800FFF7A2
:10199000A3FC201DFFF7A0FCE06A2A6906FA00F10B
:1019A0001143296100EB800109EB8100211DFFF744
:1019B000B3FCE06A2968C96A8842E0D3EE61DEE7D9
:1019C0000CB1FFF7ABFBAC693CB1FFF747FF00B1CF
:1019D000EE61641EF9D10020A861E86930B11349B5
:1019E000012738070860BFF34F8F00E001E0BFF325
:1019F0006F8FFFF7D7FC3846BDE8F0871000002056
:101A00002E2E5C4672656552544F535C7372635C54
:101A10007461736B732E63004572726F723A257333
:101A20002C25640D0A0000002003002004ED00E0D6
:101A30000000000001020304581A00080000002002
:101A400078000000340C0008D01A0008780000204C
:101A500028970000440C00080024F4000100000056
:101A60001000000000000000000000000000000066
:101A70000000000000000000000000000000000066
:101A80000000000000000000000000000000000056
:101A90000000000000000000000000000000000046
:101AA0000000000000000000AAAAAAAA000000008E
:101AB0000000000000000000000000000000000026
:101AC0000000000000000000000000000000000016
:04000005080001AD41
:00000001FF
