:020000040800F2
:1000000020130020790200080F0A0008F7080008F2
:100010000D0A0008DD0300088B0D00080000000039
:10002000000000000000000000000000C101000806
:100030001D0400080000000015020008130A000853
:10004000930200089302000893020008930200083C
:10005000930200089302000893020008930200082C
:10006000930200089302000893020008930200081C
:10007000930200089302000893020008930200080C
:1000800093020008930200089302000893020008FC
:1000900093020008930200089302000893020008EC
:1000A00093020008930200089302000893020008DC
:1000B00093020008930200089302000893020008CC
:1000C00093020008930200089302000893020008BC
:1000D00093020008930200089302000893020008AC
:1000E000930200089302000893020008930200089C
:1000F000930200089302000893020008930200088C
:1001000093020008110A00089302000893020008F5
:10011000930200089302000893020008930200086B
:1001200093020008930200089302000819040008D3
:10013000930200089302000893020008930200084B
:10014000930200089302000893020008930200083B
:10015000930200081B0400089302000893020008A1
:10016000930200089302000893020008930200081B
:1001700093020008930200089302000800000000A8
:1001800093020008930200089302000893020008FB
:1001900093020008930200089302000893020008EB
:1001A000930200089302000893020008DFF80CD0C5
:1001B00000F08AF800480047BD0F00082013002017
:1001C0002A4B19680868B0E8F04F80F30988BFF33C
:1001D0006F8F4FF0000080F311887047000000001F
:1001E00006480068006880F3088862B661B6BFF30D
:1001F0004F8FBFF36F8F00DF00BF00BF08ED00E03F
:10020000DFF80C00016841F470010160704700BF25
:1002100088ED00E0EFF30980BFF36F8F134B1A688E
:100220001EF0100F08BF20ED108A20E9F04F10607B
:1002300008B44FF0500080F31188BFF34F8FBFF325
:100240006F8F01F0C1FA4FF0000080F3118808BCF5
:1002500019680868B0E8F04F1EF0100F08BFB0EC46
:10026000108A80F30988BFF36F8F70471000002059
:10027000EFF30580704700000648804706480047B6
:10028000FEE7FEE7FEE7FEE7FEE7FEE7FEE7FEE746
:10029000FEE7FEE7290A0008AD01000830B50B466D
:1002A000014600202022012409E021FA02F59D42A6
:1002B00005D303FA02F5491B04FA02F52844151E7A
:1002C000A2F10102F1DC30BD064C074D06E0E0680A
:1002D00040F0010394E8070098471034AC42F6D38D
:1002E000FFF768FF0C1C00082C1C00083EB501F04D
:1002F000C7F8184A0320A2F24C418DE807000023FA
:10030000802215A1174801F03DFB174C114A00232C
:100310004C326060A2F5267102208DE80700802231
:1003200012A1154801F02EFBA060606808B113A06F
:1003300000E018A000F02AFDA06808B11BA000E0B2
:1003400020A000F023FD206801F098F9BDE83E40B0
:1003500001F0D0B8480E00204C4544315F54617321
:100360006B000000F9080008700000204C45443282
:100370005F5461736B0000004D0900084C45443127
:100380005F5461736B20B4B4BDA8B3C9B9A62E2E57
:100390002E0000004C4544315F5461736BB4B4BD12
:1003A000A8CAA7B0DC2E2E2E000000004C45443217
:1003B0005F5461736B20B4B4BDA8B3C9B9A62E2E27
:1003C0002E0000004C4544325F5461736BB4B4BDE1
:1003D000A8CAA7B0DC2E2E2E00000000FEE7000009
:1003E00010B50C4C0A4820604FF4E13060600020EA
:1003F000A060E0602061A0610C206061204600F0F8
:10040000A9F92068C16841F02001C16010BD000059
:1004100000100140E00E0020704770477047000058
:100420002DE9F84FDFF88C91002209F1040A0AF156
:10043000040B4FF00F080BF1040E01260B689640D9
:100440003340B34271D14C68022C01D0122C11D12F
:10045000D40800EB84073D6A5407E40E08FA04FC54
:1004600025EA0C05D1F810C00CFA04FC4CEA050C86
:10047000C7F820C007685400032591F804C0A540C0
:100480000CF0030CAF430CFA04FC4CEA070CC0F868
:1004900000C04F68012F05D0022F03D0112F01D0CB
:1004A000122F11D18768D1F80CC0AF430CFA04FCAD
:1004B0004CEA070CC0F808C04768B7430E79C6F38A
:1004C000001696403E434660C668AE438D68A54020
:1004D0003543C5604C68E40065D5374C256845F464
:1004E00080452560246822F0030504F480440094CC
:1004F000324C2E19D6F808789407250F08FA05F41F
:10050000A7432F4CA04201D1002424E02D4CA0424F
:1005100001D101241FE02C4CA04201D102241AE099
:100520002A4CA04202D1032415E03CE0284CA04212
:1005300001D104240FE0274CA04201D105240AE098
:10054000254CA04201D1062405E0244CA04201D153
:10055000072400E00824AC403C43C6F80848D9F81A
:1005600000404D464E689C43F60300D51C432C606A
:10057000DAF8004055464E689C43B60300D51C434C
:100580002C60DBF800405D464E689C43F60200D5C7
:100590001C432C60DEF8004075464E689C43B60252
:1005A00000D51C432C60521C102AFFF446AFBDE856
:1005B000F88F0000003C0140443802400030014008
:1005C000000002400004024000080240000C02400B
:1005D000001002400014024000180240001C0240BB
:1005E0000AB1816170470904FBE700000148806897
:1005F00070470000040000200B4810B5016841F46A
:1006000000710160016841F480610160016841F49A
:1006100080710160032000F057F80F2000F006F809
:1006200000F024F8002010BD003C024070B50D4DD4
:1006300004464FF47A712878B1FBF0F00A49096852
:10064000B1FBF0F000F072F848B9102C07D200228C
:100650002146501E00F018F800206C6070BD01208B
:1006600070BD00000400002000000020704700283A
:1006700009DB00F01F02012191404009800000F1D8
:10068000E020C0F800117047F0B40E4B1B68C3F3B4
:100690000223C3F10704042C00D904241D1D072DD7
:1006A00001D2002300E0DB1E012606FA04F56D1ED0
:1006B0000D409D409E40761E164045EA0601F0BC66
:1006C00000F074BB0CED00E0064A00F00701106872
:1006D0004FF6FF03184040EA012003490843106029
:1006E000704700000CED00E00000FA0504480549E1
:1006F00000680968044AC1F38221515CC840704710
:100700000000002008380240041C00080448054985
:1007100000680968044AC1F34231515CC84070471F
:100720000000002008380240041C000810B5401EDC
:10073000B0F1807F01D3012010BD4FF0E024606153
:100740000F21601700F032FB0020A061072020611C
:10075000002010BD70B5040004D094F839000025C5
:1007600010B106E0012070BD84F83850204600F03A
:1007700023F8242084F839002068C16821F400514E
:10078000C160204600F07AF92068016921F49041A7
:1007900001612068416921F02A0141612068C16836
:1007A00041F40051C160E563202084F8390084F8E9
:1007B0003A00002070BD000030B51E4887B00168C7
:1007C00041F010010160006800F010000590194828
:1007D0001438016841F001010160016801F0010174
:1007E0000591016841F0010101600068072400F0F3
:1007F000010005904FF4007000900220019001204C
:1008000002900320CDE903040B4D69462846FFF70B
:1008100007FE29150091049469462846FFF700FE5B
:10082000012200212520FFF72FFF2520FFF71FFFC2
:1008300007B030BD44380240000002402DE9F843C3
:10084000044690F839001E4617460D46202850D120
:10085000A5B19FB194F8380001284AD0012084F84E
:1008600038004FF00008C4F83C80212084F839009B
:10087000FFF7BCFEA7848146E78426E00120BDE89F
:10088000F883E08C401EE084A0684B46B0F5805FA2
:100890004FF000024FF080012046009603D000F098
:1008A00043FAE8B90DE000F03FFAC8B9288821689A
:1008B000C0F308004860206908B16D1C05E0AD1C5C
:1008C00003E0216815F8010B4860E08C0028D8D1BE
:1008D0004B46002240212046009600F025FA08B140
:1008E0000320CCE7202084F8390084F838800020E9
:1008F000C5E70220C3E7FEE74FF4967401210846DE
:1009000000F048F808A000F041FA204600F07EFE12
:100910000021012000F03EF807A000F037FA204641
:1009200000F074FEEAE700004C454420475245457C
:100930004E204F4E2E2E2E004C454420475245450A
:100940004E204F46462E2E2E000000004FF4FA7423
:100950000121002000F01EF808A000F017FA204640
:1009600000F054FE0021084600F014F806A000F044
:100970000DFA204600F04AFEEAE700004C4544200C
:10098000524544204F4E00004C45442052454420DF
:100990004F464600084B30B161B100224FF48061F0
:1009A0001846FFF71DBE19B100224FF40071F7E79A
:1009B0000122FAE70122F1E700140240114810B5C4
:1009C000016886B041F02001016000680E4C00F023
:1009D000200005904FF4C06000900120019002902B
:1009E0000320039069462046FFF71AFD01225102B9
:1009F0002046FFF7F5FD012291022046FFF7F0FDAA
:100A000006B010BD3038024000140240FEE77047C7
:100A1000704710B500F0FEFF012803D0BDE810407C
:100A200000F09ABF10BD00001048016841F4700149
:100A300001600F48016841F0010101600C4A00218A
:100A40000832116002680B4B1A400260031D0A4A0B
:100A50001A60026822F48022026005480C300160AE
:100A600002495806803908607047000088ED00E0B0
:100A700000380240FFFFF6FE103000242DE9F0415F
:100A8000044600680169E26821F4405111430161A4
:100A9000A1682069E269014360691043014320684D
:100AA000C26849F20C639A430A43C26020684169F4
:100AB000A26921F4407111434161E0696425B0F5F8
:100AC000004F974A974920684FF032083FD088423C
:100AD00001D090427CD1FFF719FE00EBC00101EB81
:100AE000001061688900B0FBF1F6FFF70FFE00EB24
:100AF000C00101EB001061688900B0FBF1F0B0FBB0
:100B0000F5F06FF01801484306EB800108EB011087
:100B1000B0FBF5F000F0F006FFF7F8FD00EBC001C8
:100B200001EB001061688900B0FBF1F0B0FBF5F05B
:100B300006EB0016FFF7EAFD00EBC00101EB001029
:100B400061688900B0FBF1F7FFF7E0FDD2E0884271
:100B500001D090423DD1FFF7D9FD00EBC00101EB80
:100B6000001061684900B0FBF1F0B0FBF5F0060140
:100B7000FFF7CCFD00EBC00101EB001061684900FC
:100B8000B0FBF1F7FFF7C2FD00EBC00101EB001075
:100B900061684900B0FBF1F0B0FBF5F06FF01801AF
:100BA000484307EB800108EBC100B0FBF5F000F013
:100BB000F80006EB4006FFF7A9FD00EBC00101EBD2
:100BC000001061684900B0FBF1F7FFF79FFD3CE0C2
:100BD00055E0FFF78BFD00EBC00101EB00106168F1
:100BE0004900B0FBF1F0B0FBF5F00601FFF77EFD28
:100BF00000EBC00101EB001061684900B0FBF1F7A8
:100C0000FFF774FD00EBC00101EB001061684900C3
:100C1000B0FBF1F0B0FBF5F06FF01801484307EBC3
:100C2000800108EBC100B0FBF5F000F0F80006EB26
:100C30004006FFF75BFD00EBC00101EB00106168AF
:100C40004900B0FBF1F7FFF751FD00EBC00101EBEC
:100C5000001061684900B0FBF1F0B0FBF5F06FF0F7
:100C60001801484307EB800108EBC100B0FBF5F029
:100C700000F00700216830448860BDE8F081FFF78C
:100C800035FD00EBC00101EB001061688900B0FB8D
:100C9000F1F6FFF72BFD00EBC00101EB00106168DE
:100CA0008900B0FBF1F0B0FBF5F06FF0180148439C
:100CB00006EB800108EB0110B0FBF5F000F0F00648
:100CC000FFF714FD00EBC00101EB00106168890023
:100CD000B0FBF1F0B0FBF5F006EB0016FFF706FDF8
:100CE00000EBC00101EB001061688900B0FBF1F777
:100CF000FFF7FCFC00EBC00101EB0010616889000C
:100D0000B0FBF1F0B0FBF5F06FF01801484307EBD2
:100D1000800108EB0110B0FBF5F000F00F00A9E72F
:100D200000140140001001402DE9F0411E46174615
:100D300088460446069D1CE0681C1AD025B1FFF7C2
:100D400055FC801BA84214D92068C16821F4D071D9
:100D5000C1602068416921F001014161202084F8CF
:100D6000390084F83A00002084F838000320BDE8F8
:100D7000F0812068016838EA010004D00020B84200
:100D8000DAD00020F3E70120F9E7FEE70FB4054BC6
:100D900010B503A9044A029800F028F810BC5DF8C9
:100DA00014FB0000A50F00087C0000200907090EB5
:100DB000002804DB00F1E02080F80014704700F008
:100DC0000F0000F1E02080F8141D704702E008C811
:100DD000121F08C1002AFAD170477047002001E0B5
:100DE00001C1121F002AFBD1704700002DE9FF4FFF
:100DF0008BB09A460F460546002606E025280BD004
:100E000052460D9990476D1C761C28780028F5D124
:100E10000FB03046BDE8F08F0024A04601226049A3
:100E200000E0044315F8013F203B02FA03F00842BA
:100E3000F7D128782E2817D115F8010F44F00404B3
:100E40002A280ED06FF02F022878A0F1300109294E
:100E50000AD808EB880102EB410100EB01086D1C88
:100E6000F2E757F8048B6D1C287869283ED006DC21
:100E70000028CDD063280BD0642804D136E0732835
:100E800010D075284BD052460D999047761C85E0BE
:100E900017F8040B8DF8000000208DF80100E946DA
:100EA000012003E057F8049B4FF0FF3061074FF03B
:100EB000000401D40AE0641C44450DDA8442FADBE4
:100EC00019F804100029F6D106E0641C8442FCDB0A
:100ED00019F804100029F8D1264404E019F8010B90
:100EE00052460D999047641EF8D257E001CF4FF05B
:100EF0000A0B002802DA40422D2102E0210504D528
:100F00002B218DF82410012103E0E10705D02021D9
:100F1000F7E70DF1200908910CE00021F9E701CF76
:100F20004FF00A0BF9E75946FFF7B8F901F1300223
:100F300009F8012D0028F6D1ADEB090000F1200BD6
:100F4000600701D44FF00108D84502DDA8EB0B0083
:100F500000E000208046002406E009A85246005D1B
:100F60000D999047641C761C08988442F5DB04E0D8
:100F7000302052460D999047761CB8F10001A8F137
:100F80000108F5DC05E019F8010B52460D99904770
:100F9000761CBBF10001ABF1010BF4DC6D1C34E7F6
:100FA0000928010013B54FF47A73012269460248FB
:100FB000FFF744FC00981CBDE00E00200EB5FFF7C3
:100FC0001BFBFFF70DFA0BA0FFF7E0FEFFF7F6FCA7
:100FD0000C4A0420A2F5C0618DE80700002380229E
:100FE00009A10D4800F0CEFC0C49086008B100F0E2
:100FF000ADFBFEE7D3B2BCFEB3F5CABCBBAF2E2E31
:101000002E000000FC0D00204170705461736B4392
:101010007265617465000000ED0200087000002038
:101020002DE9F041184E0F460446F5683068001D62
:1010300000F0D8F938B9306890F82C1001208840B9
:10104000316981433161601C07D137B13168BDE836
:10105000F0410E48091D00F007BA30682C44AC423C
:101060004460316805D2B06BBDE8F041091D00F065
:10107000E3B9706B091D00F0DFF9B06A844200D259
:10108000B462BDE8F0810000100000205003002091
:101090002DE9F041054600F0F3F92D4EB068401CF3
:1010A000B06030682B4F10B1706930B32BE0356001
:1010B000B068012827D1002404EB840007EB8000EE
:1010C00000F0ACF9641C202CF6D3234800F0A6F9FC
:1010D0002148143000F0A2F91F48283000F09EF992
:1010E0001D483C3000F09AF91B48503000F096F94A
:1010F000194870631430B06305E03068E96AC06A6B
:10110000884200D83560706A0121401C7062E86A2C
:10111000326981401143316100EB800007EB8000B0
:10112000291D00F0A1F900F0E5F9706900280CD044
:101130003068E96AC06A884207D208494FF0805097
:101140000860BFF34F8FBFF36F8FBDE8F0810000E1
:1011500010000020800000200003002004ED00E0CB
:1011600070B5124E124D1CE000F026FB306820B125
:10117000002400F0D3FCA4B901E00124F9E700F059
:101180007FF9F068C468201D00F02CF9A868401EA3
:10119000A8606868401E686000F0ACF9204600F066
:1011A00009F868680028DFD170BD00003C0300200A
:1011B0001000002010B5044690F8490058B10128ED
:1011C0000CD002280FD0BDE8104040F6296206A1DD
:1011D0000BA0FFF7DBBD206B00F0BCF92046BDE89B
:1011E000104000F0B7B910BD2E2E5C4672656552F6
:1011F000544F535C7372635C7461736B732E630042
:101200004572726F723A25732C25640D0A00000036
:10121000074E4FF08054074DFFF7A2FF30680128BA
:10122000FAD92C60BFF34F8FBFF36F8FF4E7000044
:101230008000002004ED00E02DE9F047DDE909849D
:101240000E4682466FF00301206B01EB82010844D9
:10125000089D20F007079946780705D040F22B3209
:1012600018A11EA0FFF792FD00202218315C82F821
:101270003410315C11B1401C1028F6D3002684F8DC
:101280004360202D00D31F25201DE56200F0D1F81A
:1012900004F1180000F0CDF82461C5F1200064626B
:1012A000A061666484F848604A465146384600F0BA
:1012B00083F82060B8F1000F01D0C8F80040BDE805
:1012C000F08700002E2E5C4672656552544F535CC9
:1012D0007372635C7461736B732E63004572726F1B
:1012E000723A25732C25640D0A00000030B51149AF
:1012F00000E011460A688242FBD34B685C188442C6
:1013000003D1406818444860084643681C1894425A
:1013100009D1084C103C2468A24209D052681A44F2
:1013200042600A6812680260814200D0086030BDE5
:101330000460F9E7680000200648416B096829B19C
:10134000416BC968C9684968816270474FF0FF31D5
:10135000FAE700001000002008484068401C05D053
:1013600040F20F1206A110A0FFF710FD502080F3ED
:101370001188BFF34F8FBFF36F8FFEE74C00002043
:101380002E2E5C4672656552544F535C706F7274BA
:101390005C525644535C41524D5F434D34465C7041
:1013A0006F72742E630000004572726F723A25737B
:1013B0002C25640D0A00000010B5031F4FF0807447
:1013C0001C601B1F21F001011960191F044B0B60E9
:1013D00014390A60091F6FF0020244380A6010BD18
:1013E00059130008D0E9013201699A60D0E901235C
:1013F0005A604A68824201D182684A6000220261D2
:101400000868401E08607047034B0360A3F24C401D
:101410000860802010607047B007002000F10801CC
:101420004FF0FF32C0E90112C1600161002101608B
:10143000704700210161704730B50C68621C02D012
:1014400000F1080202E0026904E01A4653681D68D0
:10145000A542FAD953684B6099608A60516008616F
:101460000168491C016030BD42684A6093688B6026
:1014700093685960916008610168491C0160704778
:10148000502080F31188BFF34F8FBFF36F8F09494E
:101490004868401C486001280AD10748006810F0DD
:1014A000FF0F05D040F2B91204A10EA0FFF76EBCE9
:1014B000704700004C00002004ED00E02E2E5C463A
:1014C00072656552544F535C706F72745C5256442F
:1014D000535C41524D5F434D34465C706F72742EC5
:1014E000630000004572726F723A25732C25640DFB
:1014F0000A00000010B5084C606828B94FF4E0728B
:1015000006A110A0FFF742FC6068401E606001D198
:1015100080F3118810BD00004C0000202E2E5C4688
:1015200072656552544F535C706F72745C525644CE
:10153000535C41524D5F434D34465C706F72742E64
:10154000630000004572726F723A25732C25640D9A
:101550000A00000070B500282AD0164DA0F108043A
:101560006068E968084205D14FF4A07212A11BA07F
:10157000FFF70CFC206828B140F241120EA117A021
:10158000FFF704FC6068E968084211D02268002A6D
:101590000ED18843606000F00FF960686968084404
:1015A00068602046FFF7A2FEBDE8704000F0B6BAC2
:1015B00070BD0000580000202E2E5C4672656552FA
:1015C000544F535C706F72745C4D656D4D616E6706
:1015D0005C686561705F342E630000004572726F55
:1015E000723A25732C25640D0A00000006484FF45A
:1015F0007A710068B0FBF1F14FF0E020491E4161C3
:1016000007210161704700000000002010B50400B0
:1016100012D00E49096B29B140F2CF420CA112A0A1
:10162000FFF7B4FB00F0C8F800212046FFF7F8FCF4
:1016300000F074FA002807D10F494FF0805008607D
:10164000BFF34F8FBFF36F8F10BD0000100000205D
:101650002E2E5C4672656552544F535C7372635C08
:101660007461736B732E63004572726F723A2573E7
:101670002C25640D0A00000004ED00E070B504465E
:10168000FFF7FEFE234D04B92C68201DFFF7AAFECC
:1016900058B9E06A204A00EB800152F8211021B9C4
:1016A00001218140286988432861A06A18B104F1AA
:1016B0001800FFF797FE686A401C68622868844239
:1016C00007D1211D1548FFF7CFFE6868401C6860F0
:1016D00007E0A868401EA8602046FFF76BFDFFF7F3
:1016E0002BFEFFF707FF6869002812D028688442A4
:1016F0000FD1286B28B140F2654209A10EA0FFF777
:1017000045FB11494FF080500860BFF34F8FBFF386
:101710006F8F70BD10000020800000203C0300206F
:101720002E2E5C4672656552544F535C7372635C37
:101730007461736B732E63004572726F723A257316
:101740002C25640D0A00000004ED00E010B586B001
:101750000024039405AA04A903A80494FFF754FEE7
:10176000DDE903010094CDE9011000230EA110482A
:10177000059A00F007F90F490028C86211D05020DF
:1017800080F31188BFF34F8FBFF36F8F4FF0FF309F
:10179000886201204861CC6006B0BDE8104000F0CE
:1017A00053B806B010BD000049444C45000000008D
:1017B00011120008100000200248016B491C01634F
:1017C000704700001000002070B5134D286B10B159
:1017D0000120E86170BD0020E86128690F4EB0FA71
:1017E00080F0C0F11F0000EB800456F8240028B9F7
:1017F00040F6F6220AA110A0FFF7C8FA06EB840013
:1018000000F10802416849684160914201D149688C
:101810004160C868286070BD100000208000002072
:101820002E2E5C4672656552544F535C7372635C36
:101830007461736B732E63004572726F723A257315
:101840002C25640D0A0000001CB5304C206830497E
:10185000884205D140F259122EA138A0FFF796FA1E
:1018600020682B49491E884205D14FF4AD7229A149
:1018700032A0FFF78BFA354C20780190FF202070C2
:1018800020788DF800009DF800009DF8001000F011
:10189000F000884205D040F273121EA127A0FFF786
:1018A00075FA9DF800002A4A00F0500010700720D9
:1018B000906007E09068401E90609DF80000400036
:1018C0008DF800009DF800000006F3D4107A0002A5
:1018D00000F4E0609060019820700C4820300168AE
:1018E00041F470010160016841F070410160FFF74F
:1018F0007DFE00205060FEF783FC1648016841F031
:1019000040410160FEF76CFC00201CBD00ED00E0D2
:1019100071C20F412E2E5C4672656552544F535C66
:10192000706F72745C525644535C41524D5F434D2C
:1019300034465C706F72742E630000004572726FE3
:10194000723A25732C25640D0A00000000E400E0C3
:101950004C00002034EF00E010B5502080F31188D7
:10196000BFF34F8FBFF36F8F00F062F818B10449D7
:101970004FF080500860002080F3118810BD0000F7
:1019800004ED00E02DE9F04F85B09846DDE90F54F5
:101990000E9F91468A4683462DB940F2552213A1E7
:1019A00018A0FFF7F3F90026A4B1CDB102202563FA
:1019B00084F849000DF1040C04A800978CE851004C
:1019C00043464A4651465846FFF736FC2046FFF745
:1019D0005FFB06E040F2562204A10AA0FFF7D6F909
:1019E0000496049805B0BDE8F08F00002E2E5C46EA
:1019F00072656552544F535C7372635C7461736BB0
:101A0000732E63004572726F723A25732C25640D34
:101A10000A0000000548416919B1006B18B10020A7
:101A2000704701207047022070470000100000201E
:101A30002DE9F0412D4F0026386B40B1B869401CAC
:101A4000B861F86900B101263046BDE8F081FD6853
:101A50006D1CFD6011D1786B006828B140F6D91279
:101A600023A129A0FFF792F9786BB96B7963B8636A
:101A7000386A401C3862FFF75FFCB86ADFF898806C
:101A8000854209D3786B006880B1786BC068C46800
:101A9000606885420DD2B8623868C06A00EB800188
:101AA00058F821000128CCD90126CAE74FF0FF30B1
:101AB000F1E7201DFFF796FCA06A18B104F11800A9
:101AC000FFF790FCE06A01213A69814011433961D6
:101AD00000EB800108EB8100211DFFF7C5FCE06AE7
:101AE0003968C96A8842CDD30126CBE710000020AF
:101AF0002E2E5C4672656552544F535C7372635C64
:101B00007461736B732E63004572726F723A257342
:101B10002C25640D0A000000800000202DE9F0470C
:101B20002B4D00242746286B28B94FF4FD6229A1CC
:101B30002EA0FFF72BF9FFF7A3FC286B401E2863AC
:101B4000286BE8BBA8682D490126C8B3A1F52A79FE
:101B50008846D8F80010E9B1D8F80C00C46804F140
:101B60001800FFF73FFC201DFFF73CFCE06A2A69E4
:101B700006FA00F11143296100EB800109EB8100B5
:101B8000211DFFF771FCE06A2968C96A8842E0D329
:101B9000EE61DEE70CB1FFF7CFFBAC693CB1FFF7BC
:101BA00047FF00B1EE61641EF9D10020A861E86929
:101BB00030B11349012738070860BFF34F8F00E0A9
:101BC00001E0BFF36F8FFFF795FC3846BDE8F08763
:101BD000100000202E2E5C4672656552544F535CF7
:101BE0007372635C7461736B732E63004572726F02
:101BF000723A25732C25640D0A000000280300208A
:101C000004ED00E000000000010203042C1C0008A9
:101C10000000002080000000CC0D0008AC1C000873
:101C200080000020A0120000DC0D00080024F40059
:101C30000100000010000000000000000000000093
:101C40000000000000000000000000000000000094
:101C50000000000000000000000000000000000084
:101C60000000000000000000000000000000000074
:101C7000000000000000000000000000AAAAAAAABC
:101C80000000000000000000000000000000000054
:101C90000000000000000000000000000000000044
:0C1CA00000000000000000000000000038
:04000005080001AD41
:00000001FF
