:020000040800F2
:10000000B0970020790200083B0A0008BB080008EE
:10001000390A000899030008170E000800000000C4
:10002000000000000000000000000000C101000806
:10003000D903000800000000150200089F0A00080C
:10004000930200089302000893020008930200083C
:10005000930200089302000893020008930200082C
:10006000930200089302000893020008930200081C
:10007000930200089302000893020008930200080C
:1000800093020008930200089302000893020008FC
:1000900093020008930200089302000893020008EC
:1000A00093020008930200089302000893020008DC
:1000B00093020008930200089302000893020008CC
:1000C00093020008930200089302000893020008BC
:1000D00093020008930200089302000893020008AC
:1000E000930200089302000893020008930200089C
:1000F000930200089302000893020008930200088C
:10010000930200089D0A0008930200089302000869
:10011000930200089302000893020008930200086B
:10012000930200089302000893020008D503000818
:10013000930200089302000893020008930200084B
:10014000930200089302000893020008930200083B
:1001500093020008D70300089302000893020008E6
:10016000930200089302000893020008930200081B
:1001700093020008930200089302000800000000A8
:1001800093020008930200089302000893020008FB
:1001900093020008930200089302000893020008EB
:1001A000930200089302000893020008DFF80CD0C5
:1001B00000F08AF80048004749100008B097002076
:1001C0002A4B19680868B0E8F04F80F30988BFF33C
:1001D0006F8F4FF0000080F311887047000000001F
:1001E00006480068006880F3088862B661B6BFF30D
:1001F0004F8FBFF36F8F00DF00BF00BF08ED00E03F
:10020000DFF80C00016841F470010160704700BF25
:1002100088ED00E0EFF30980BFF36F8F134B1A688E
:100220001EF0100F08BF20ED108A20E9F04F10607B
:1002300008B44FF0500080F31188BFF34F8FBFF325
:100240006F8F01F0E1FB4FF0000080F3118808BCD4
:1002500019680868B0E8F04F1EF0100F08BFB0EC46
:10026000108A80F30988BFF36F8F70471000002059
:10027000EFF30580704700000648804706480047B6
:10028000FEE7FEE7FEE7FEE7FEE7FEE7FEE7FEE746
:10029000FEE7FEE7B50A0008AD01000830B50B46E1
:1002A000014600202022012409E021FA02F59D42A6
:1002B00005D303FA02F5491B04FA02F52844151E7A
:1002C000A2F10102F1DC30BD064C074D06E0E0680A
:1002D00040F0010394E8070098471034AC42F6D38D
:1002E000FFF768FFA4200008C42000087CB501F0D7
:1002F0009BF901F0C9FB144C206010B113A000F071
:100300008BFD1149082008318501CDE9000100234A
:100310002A4613A1154801F04FFD0B4907200C3167
:10032000CDE9000100232A4611A1154801F044FD42
:10033000012802D113A000F06FFD606801F072FA8D
:10034000BDE87C4001F0AAB970000020CAC2BCFE22
:10035000D7E9B4B4BDA8B3C9B9A62E2E2E0A0000A1
:100360004B65795F5461736B0000000075090008EC
:10037000526563656976655F5461736B00000000C8
:100380003D0A0008C8CECEF1B4B4BDA8B3C9B9A621
:100390002E2E2E0A00000000FEE7000010B50C4CC7
:1003A0000A4820604FF4E13060600020A060E06007
:1003B0002061A0610C206061204600F0ADF920684A
:1003C000C16841F02001C16010BD00000010014073
:1003D0006C93002070477047704700002DE9F84F7C
:1003E000DFF88C91002209F1040A0AF1040B4FF0A6
:1003F0000F080BF1040E01260B6896403340B34200
:1004000071D14C68022C01D0122C11D1D40800EB10
:1004100084073D6A5407E40E08FA04FC25EA0C053B
:10042000D1F810C00CFA04FC4CEA050CC7F820C047
:1004300007685400032591F804C0A5400CF0030C94
:10044000AF430CFA04FC4CEA070CC0F800C04F683C
:10045000012F05D0022F03D0112F01D0122F11D15F
:100460008768D1F80CC0AF430CFA04FC4CEA070CC7
:10047000C0F808C04768B7430E79C6F30016964027
:100480003E434660C668AE438D68A5403543C560AF
:100490004C68E40065D5374C256845F480452560F7
:1004A000246822F0030504F480440094324C2E1991
:1004B000D6F808789407250F08FA05F4A7432F4CBF
:1004C000A04201D1002424E02D4CA04201D10124FE
:1004D0001FE02C4CA04201D102241AE02A4CA04279
:1004E00002D1032415E03CE0284CA04201D10424B1
:1004F0000FE0274CA04201D105240AE0254CA04280
:1005000001D1062405E0244CA04201D1072400E0DB
:100510000824AC403C43C6F80848D9F800404D4692
:100520004E689C43F60300D51C432C60DAF800406B
:1005300055464E689C43B60300D51C432C60DBF83F
:1005400000405D464E689C43F60200D51C432C607B
:10055000DEF8004075464E689C43B60200D51C4349
:100560002C60521C102AFFF446AFBDE8F88F000043
:10057000003C01404438024000300140000002408D
:100580000004024000080240000C0240001002403B
:100590000014024000180240001C0240006908409C
:1005A00000D0012070470AB1816170470904FBE760
:1005B0000148806870470000040000200B4810B517
:1005C000016841F400710160016841F480610160DB
:1005D000016841F480710160032000F057F80F209A
:1005E00000F006F800F024F8002010BD003C0240A6
:1005F00070B50D4D04464FF47A712878B1FBF0F0D8
:100600000A490968B1FBF0F000F072F848B9102C03
:1006100007D200222146501E00F018F800206C601E
:1006200070BD012070BD000004000020000000200B
:100630007047002809DB00F01F02012191404009AA
:10064000800000F1E020C0F800117047F0B40E4BBC
:100650001B68C3F30223C3F10704042C00D904244C
:100660001D1D072D01D2002300E0DB1E012606FA26
:1006700004F56D1E0D409D409E40761E164045EAD5
:100680000601F0BC00F0D8BB0CED00E0064A00F01B
:10069000070110684FF6FF03184040EA01200349A4
:1006A00008431060704700000CED00E00000FA0500
:1006B0000448054900680968044AC1F38221515C75
:1006C000C840704700000020083802409C20000805
:1006D0000448054900680968044AC1F34231515C85
:1006E000C840704700000020083802409C200008E5
:1006F00010B5401EB0F1807F01D3012010BD4FF036
:10070000E02460610F21601700F096FB0020A061DB
:1007100007202061002010BD70B5040004D094F8BB
:100720003900002510B106E0012070BD84F8385072
:10073000204600F023F8242084F839002068C1689E
:1007400021F40051C160204600F0DEF92068016903
:1007500021F4904101612068416921F02A01416141
:100760002068C16841F40051C160E563202084F82D
:10077000390084F83A00002070BD000030B51E48F2
:1007800087B0016841F010010160006800F01000BE
:10079000059019481438016841F0010101600168B1
:1007A00001F001010591016841F00101016000685B
:1007B000072400F0010005904FF400700090022023
:1007C0000190012002900320CDE903040B4D6946FE
:1007D0002846FFF703FE2915009104946946284630
:1007E000FFF7FCFD012200212520FFF72FFF252028
:1007F000FFF71FFF07B030BD443802400000024041
:100800002DE9F843044690F839001E4617460D4678
:10081000202850D1A5B19FB194F8380001284AD0C2
:10082000012084F838004FF00008C4F83C802120F3
:1008300084F83900FFF7BCFEA7848146E78426E0F0
:100840000120BDE8F883E08C401EE084A0684B46A0
:10085000B0F5805F4FF000024FF080012046009617
:1008600003D000F0A7FAE8B90DE000F0A3FAC8B988
:1008700028882168C0F308004860206908B16D1C11
:1008800005E0AD1C03E0216815F8010B4860E08C21
:100890000028D8D14B46002240212046009600F087
:1008A00089FA08B10320CCE7202084F8390084F8C5
:1008B00038800020C5E70220C3E7FEE770B519487D
:1008C00086B00024016841F001010160016801F077
:1008D00001010591016841F0100101600068124DAD
:1008E00000F010000590224601212846FFF75BFE2C
:1008F0000E4E01221C213046FFF755FE1C20CDE98B
:10090000000401240320CDE9024069463046FFF788
:1009100065FD02200290694600942846FFF75EFDBF
:1009200006B070BD303802400000024000100240A6
:1009300070B504460E480D468442204609D1FFF7A3
:100940002DFE50B929462046FFF728FE0028F9D091
:100950000BE0FFF723FE012801D0002070BD2946DF
:100960002046FFF71BFE0128F9D0012070BD0000D2
:1009700000100240104D114E114C01212846FFF786
:10098000D7FF012806D10FA000F046FA0121206808
:1009900001F088F808213046FFF7CAFF012806D188
:1009A0000BA000F039FA0221206801F07BF8322018
:1009B00000F000FFE1E700000000024000100240EC
:1009C00070000020B4A5B7A24B6579312E2E0A0025
:1009D000B4A5B7A24B6579322E2E0A0030B5134864
:1009E00087B00024016841F0200101600068104DCB
:1009F00000F0200005904FF4C060009001200190AD
:100A000002900320039069462846FFF7E7FC012285
:100A100051022846FFF7C7FD012291022846FFF741
:100A2000C2FD04480470447007B030BD3038024045
:100A30000014024080000020FEE7704708B50A4D10
:100A40004FF0FF34012300941A460321286801F077
:100A500083F8C043800702D104A000F0DDF9322002
:100A600000F0A8FEEEE7000070000020526563650C
:100A70006976655F5461736B3ABCECB2E2B5BD2038
:100A80004B6579312026204B65793220B6BCB1BB4D
:100A9000B0B4CFC22E2E2E0A00000000704710B551
:100AA00001F0B6F9012803D0BDE8104001F06EB99D
:100AB00010BD00001048016841F4700101600F484A
:100AC000016841F0010101600C4A00210832116007
:100AD00002680B4B1A400260031D0A4A1A60026842
:100AE00022F48022026005480C3001600249580659
:100AF000803908607047000088ED00E0003802404F
:100B0000FFFFF6FE103000242DE9F0410446006896
:100B10000169E26821F4405111430161A168206933
:100B2000E26901436069104301432068C26849F2E9
:100B30000C639A430A43C26020684169A26921F4A8
:100B4000407111434161E0696425B0F5004F974A57
:100B5000974920684FF032083FD0884201D0904238
:100B60007CD1FFF7B5FD00EBC00101EB001061681F
:100B70008900B0FBF1F6FFF7ABFD00EBC00101EB24
:100B8000001061688900B0FBF1F0B0FBF5F06FF088
:100B90001801484306EB800108EB0110B0FBF5F0AB
:100BA00000F0F006FFF794FD00EBC00101EB001030
:100BB00061688900B0FBF1F0B0FBF5F006EB0016C0
:100BC000FFF786FD00EBC00101EB001061688900B2
:100BD000B0FBF1F7FFF77CFDD2E0884201D09042F4
:100BE0003DD1FFF775FD00EBC00101EB001061681E
:100BF0004900B0FBF1F0B0FBF5F00601FFF768FD2E
:100C000000EBC00101EB001061684900B0FBF1F797
:100C1000FFF75EFD00EBC00101EB001061684900C9
:100C2000B0FBF1F0B0FBF5F06FF01801484307EBB3
:100C3000800108EBC100B0FBF5F000F0F80006EB16
:100C40004006FFF745FD00EBC00101EB00106168B5
:100C50004900B0FBF1F7FFF73BFD3CE055E0FFF743
:100C600027FD00EBC00101EB001061684900B0FBFB
:100C7000F1F0B0FBF5F00601FFF71AFD00EBC00143
:100C800001EB001061684900B0FBF1F7FFF710FDC0
:100C900000EBC00101EB001061684900B0FBF1F00E
:100CA000B0FBF5F06FF01801484307EB800108EB4B
:100CB000C100B0FBF5F000F0F80006EB4006FFF7CE
:100CC000F7FC00EBC00101EB001061684900B0FBCC
:100CD000F1F7FFF7EDFC00EBC00101EB00106168DC
:100CE0004900B0FBF1F0B0FBF5F06FF0180148439C
:100CF00007EB800108EBC100B0FBF5F000F0070046
:100D0000216830448860BDE8F081FFF7D1FC00EB3A
:100D1000C00101EB001061688900B0FBF1F6FFF73C
:100D2000C7FC00EBC00101EB001061688900B0FB5B
:100D3000F1F0B0FBF5F06FF01801484306EB8001CD
:100D400008EB0110B0FBF5F000F0F006FFF7B0FC87
:100D500000EBC00101EB001061688900B0FBF1F00D
:100D6000B0FBF5F006EB0016FFF7A2FC00EBC001AC
:100D700001EB001061688900B0FBF1F7FFF798FC08
:100D800000EBC00101EB001061688900B0FBF1F0DD
:100D9000B0FBF5F06FF01801484307EB800108EB5A
:100DA0000110B0FBF5F000F00F00A9E700140140BE
:100DB000001001402DE9F0411E46174688460446C2
:100DC000069D1CE0681C1AD025B1FFF7F1FB801BC3
:100DD000A84214D92068C16821F4D071C16020688C
:100DE000416921F001014161202084F8390084F833
:100DF0003A00002084F838000320BDE8F081206824
:100E0000016838EA010004D00020B842DAD000209E
:100E1000F3E70120F9E7FEE70FB4054B10B503A98E
:100E2000044A029800F028F810BC5DF814FB00009A
:100E300031100008840000200907090E002804DB97
:100E400000F1E02080F80014704700F00F0000F17E
:100E5000E02080F8141D704702E008C8121F08C186
:100E6000002AFAD170477047002001E001C1121F2B
:100E7000002AFBD1704700002DE9FF4F8BB09A4646
:100E80000F460546002606E025280BD052460D9950
:100E900090476D1C761C28780028F5D10FB030469D
:100EA000BDE8F08F0024A0460122604900E0044321
:100EB00015F8013F203B02FA03F00842F7D12878E9
:100EC0002E2817D115F8010F44F004042A280ED05B
:100ED0006FF02F022878A0F1300109290AD808EB19
:100EE000880102EB410100EB01086D1CF2E757F8A5
:100EF000048B6D1C287869283ED006DC0028CDD0F4
:100F000063280BD0642804D136E0732810D07528EC
:100F10004BD052460D999047761C85E017F8040B8C
:100F20008DF8000000208DF80100E946012003E063
:100F300057F8049B4FF0FF3061074FF0000401D4D5
:100F40000AE0641C44450DDA8442FADB19F8041007
:100F50000029F6D106E0641C8442FCDB19F8041079
:100F60000029F8D1264404E019F8010B52460D99E6
:100F70009047641EF8D257E001CF4FF00A0B0028CB
:100F800002DA40422D2102E0210504D52B218DF803
:100F90002410012103E0E10705D02021F7E70DF13E
:100FA000200908910CE00021F9E701CF4FF00A0B6E
:100FB000F9E75946FFF772F901F1300209F8012DFE
:100FC0000028F6D1ADEB090000F1200B600701D439
:100FD0004FF00108D84502DDA8EB0B0000E000202F
:100FE0008046002406E009A85246005D0D9990470E
:100FF000641C761C08988442F5DB04E030205246DD
:101000000D999047761CB8F10001A8F10108F5DCB4
:1010100005E019F8010B52460D999047761CBBF17B
:101020000001ABF1010BF4DC6D1C34E70928010071
:1010300013B54FF47A73012269460248FFF7E0FBCB
:1010400000981CBD6C9300201CB5FFF7B7FAFFF7A2
:1010500035FCFFF7C3FCFFF7A1F909490920CDE9E9
:10106000000100234FF4007206A10A4800F0A4FE1C
:10107000012801D000201CBD00F076FCFEE7000036
:10108000740000204170705461736B437265617429
:1010900065000000ED0200082DE9F041184E0F46F2
:1010A0000446F5683068001D00F06EFA38B9306803
:1010B00090F82C1001208840316981433161601C17
:1010C00007D137B13168BDE8F0410E48091D00F085
:1010D0009FBA30682C44AC424460316805D2B06B92
:1010E000BDE8F041091D00F07BBA706B091D00F0EE
:1010F00077FAB06A844200D2B462BDE8F0810000A1
:1011000010000020580300202DE9F041054600F0B2
:101110008BFA2D4EB068401CB06030682B4F10B178
:10112000706930B32BE03560B068012827D1002406
:1011300004EB840007EB800000F044FA641C202CD0
:10114000F6D3234800F03EFA2148143000F03AFA72
:101150001F48283000F036FA1D483C3000F032FAC3
:101160001B48503000F02EFA194870631430B063F9
:1011700005E03068E96AC06A884200D83560706A64
:101180000121401C7062E86A32698140114331617B
:1011900000EB800007EB8000291D00F039FA00F019
:1011A0007DFA706900280CD03068E96AC06A88420C
:1011B00007D208494FF080500860BFF34F8FBFF34C
:1011C0006F8FBDE8F0810000100000208800002033
:1011D0000803002004ED00E070B5124E124D1CE033
:1011E00000F00AFC306820B1002400F0E3FEA4B94E
:1011F00001E00124F9E700F017FAF068C468201D47
:1012000000F0C2F9A868401EA8606868401E6860C7
:1012100000F044FA204600F009F868680028DFD1A1
:1012200070BD0000440300201000002010B50446EB
:10123000006B00F063FA2046BDE8104000F05EBA93
:1012400010484FF41041420706D0C01D0D4920F050
:101250000700411AC1F510410B4A00230144C2E9BD
:1012600000030839103A21F0070111604B600B6050
:101270000B1AC0E9001393604FF000405360D06038
:10128000704700006C03002068000020074E4FF0FC
:101290008054074DFFF7A0FF30680128FAD92C6071
:1012A000BFF34F8FBFF36F8FF4E70000880000207B
:1012B00004ED00E02DE9F047DDE909840E468246A1
:1012C0006FF00301206B01EB82010844089D20F0C0
:1012D00007079946780705D040F22B3219A11FA0C5
:1012E000FFF79AFD00202218315C82F83410315C3F
:1012F00011B1401C1028F6D3002684F84360202D3D
:1013000000D31F25E562C4E91156201D00F065F9E0
:1013100004F1180000F061F92461C5F12000646255
:10132000A061E66484F850604A465146384600F0B1
:1013300015F92060B8F1000F01D0C8F80040BDE8F1
:10134000F08700002E2E5C4672656552544F535C48
:101350007372635C7461736B732E63004572726F9A
:10136000723A25732C25640D0A00000030B511492E
:1013700000E011460A688242FBD34B685C18844245
:1013800003D1406818444860084643681C189442DA
:1013900009D1084C103C2468A24209D052681A4472
:1013A00042600A6812680260814200D0086030BD65
:1013B0000460F9E7680000200648416B096829B11C
:1013C000416BC968C9684968816270474FF0FF3155
:1013D000FAE700001000002008484068401C05D0D3
:1013E00040F20F1206A110A0FFF716FD502080F367
:1013F0001188BFF34F8FBFF36F8FFEE74C000020C3
:101400002E2E5C4672656552544F535C706F727439
:101410005C525644535C41524D5F434D34465C70C0
:101420006F72742E630000004572726F723A2573FA
:101430002C25640D0A0000000346002012B19943D8
:1014400002D070470B42FCD0012070472DE9F041DB
:101450000546002600F0D0FA324F386808B9FFF789
:10146000EFFEF86805424FD1002D4DD008356807D2
:101470000BD005F00700C0F108000544680704D050
:10148000BF2229A131A0FFF7C7FC002D3CD078680E
:10149000854239D8234910310846046801E02146C5
:1014A00004466068A84202D220680028F7D1386854
:1014B000B846844228D00E68206808606068083604
:1014C000401B10280ED96719780704D0EC2216A10A
:1014D0001EA0FFF7A1FC6068401B7860384665607D
:1014E000FFF744FF6168D8F804004246401AC8F884
:1014F0000400D8F80830984200D29060D8F80C0068
:1015000001430020C4E9000100F054FD700705D03C
:101510004FF4967204A10DA0FFF77EFC3046BDE8A3
:10152000F0810000580000202E2E5C467265655246
:10153000544F535C706F72745C4D656D4D616E6796
:101540005C686561705F342E630000004572726FE5
:10155000723A25732C25640D0A00000010B5031F94
:101560004FF080741C601B1F21F001011960191FCE
:10157000044B0B6014390A60091F6FF002024438F3
:101580000A6010BDD9130008D0E9013201699A60E0
:10159000D0E901235A604A68824201D182684A60D8
:1015A000002202610868401E08607047044908680C
:1015B0000A688069D26A0968C2F120028A617047AC
:1015C0001000002000F108014FF0FF32C0E90112C5
:1015D000C160016100210160704700210161704715
:1015E00030B50C68621C02D000F1080202E002690A
:1015F00004E01A4653681D68A542FAD953684B6047
:1016000099608A60516008610168491C016030BDC1
:1016100042684A6093688B60936859609160086182
:101620000168491C01607047502080F31188BFF3A6
:101630004F8FBFF36F8F09494868401C48600128ED
:101640000AD10748006810F0FF0F05D040F2B91228
:1016500004A10EA0FFF7E0BB704700004C00002083
:1016600004ED00E02E2E5C4672656552544F535CCB
:10167000706F72745C525644535C41524D5F434DDF
:1016800034465C706F72742E630000004572726F96
:10169000723A25732C25640D0A00000010B5084C21
:1016A000606828B94FF4E07206A110A0FFF7B4FB00
:1016B0006068401E606001D180F3118810BD000099
:1016C0004C0000202E2E5C4672656552544F535CD0
:1016D000706F72745C525644535C41524D5F434D7F
:1016E00034465C706F72742E630000004572726F36
:1016F000723A25732C25640D0A00000070B500288D
:101700002AD0164DA0F108046068E968084205D1A6
:101710004FF4A07212A11BA0FFF77EFB206828B136
:1017200040F241120EA117A0FFF776FB6068E9684E
:10173000084211D02268002A0ED18843606000F070
:101740005BF960686968084468602046FFF70EFE30
:10175000BDE8704000F02EBC70BD000058000020B5
:101760002E2E5C4672656552544F535C706F7274D6
:101770005C4D656D4D616E675C686561705F342EB0
:10178000630000004572726F723A25732C25640D58
:101790000A00000006484FF47A710068B0FBF1F1CE
:1017A0004FF0E020491E41610721016170470000B0
:1017B0000000002010B5040012D00E49096B29B1B9
:1017C00040F2CF420CA112A0FFF726FB00F014F963
:1017D00000212046FFF760FC00F0ECFB002807D159
:1017E0000F494FF080500860BFF34F8FBFF36F8FEA
:1017F00010BD0000100000202E2E5C467265655260
:10180000544F535C7372635C7461736B732E63002B
:101810004572726F723A25732C25640D0A00000020
:1018200004ED00E070B50446FFF7FEFE234D04B959
:101830002C68201DFFF7A8FE58B9E06A204A00EB8B
:10184000800152F8211021B9012181402869884383
:101850002861A06A18B104F11800FFF795FE686AC4
:10186000401C68622868844207D1211D1548FFF793
:10187000CFFE6868401C686007E0A868401EA8604A
:101880002046FFF7D3FCFFF797FDFFF707FF6869D6
:10189000002812D0286884420FD1286B28B140F26A
:1018A000654209A10EA0FFF7B7FA11494FF0805029
:1018B0000860BFF34F8FBFF36F8F70BD1000002023
:1018C00088000020440300202E2E5C46726565527D
:1018D000544F535C7372635C7461736B732E63005B
:1018E0004572726F723A25732C25640D0A00000050
:1018F00004ED00E02DE9F04117460E46050005D144
:1019000040F617320DA113A0FFF786FA154C206B95
:1019100028B940F61B3209A10EA0FFF77DFA216815
:1019200046F000408861216828461831FFF770FEB4
:101930003846BDE8F0410121FFF7AEBB2E2E5C46D4
:1019400072656552544F535C7372635C7461736B60
:10195000732E63004572726F723A25732C25640DE5
:101960000A000000100000201CB515480024CDE935
:1019700000402346802213A1144800F01DFA0128DC
:101980000AD0401C1BD102B040F28472BDE8104066
:101990000FA115A0FFF740BA502080F31188BFF3C4
:1019A0004F8FBFF36F8F06484FF0FF312C388162A5
:1019B00001214161C460BDE81C4000F05FB91CBD5D
:1019C0003C00002049444C45000000008D120008F6
:1019D0002E2E5C4672656552544F535C7372635C85
:1019E0007461736B732E63004572726F723A257364
:1019F0002C25640D0A0000000248016B491C01639C
:101A0000704700001000002070B5134D286B10B116
:101A10000120E86170BD0020E86128690F4EB0FA2E
:101A200080F0C0F11F0000EB800456F8240028B9B4
:101A300040F6F6220AA110A0FFF7EEF906EB8400AB
:101A400000F10802416849684160914201D149684A
:101A50004160C868286070BD100000208800002028
:101A60002E2E5C4672656552544F535C7372635CF4
:101A70007461736B732E63004572726F723A2573D3
:101A80002C25640D0A00000010B51820FFF7DEFCBD
:101A9000040004D000202060201DFFF793FD2046A5
:101AA00010BD00002DE9F04100258846040005D155
:101AB00040F21D221CA124A0FFF7AEF95FEA1860D6
:101AC00005D040F21E2218A11FA0FFF7A5F9261D80
:101AD00004F10C07FFF790FF2168F06841EA080164
:101AE000216017E0D0E9001601F07F42530123681E
:101AF00021F07F4102D40B4203D10AE031EA030313
:101B000007D1D20100D50D43216841F0007100F0EA
:101B100003FA3046B842E5D12068A843206000F0BF
:101B200049FA2068BDE8F0812E2E5C467265655248
:101B3000544F535C7372635C6576656E745F677255
:101B40006F7570732E6300004572726F723A257361
:101B50002C25640D0A0000002DE9F047089F9A46E5
:101B600091460D4604004FF0000605D140F24D129B
:101B700035A13DA0FFF750F9280E05D04FF4A7720C
:101B800031A139A0FFF748F92DB940F24F122EA12B
:101B900035A0FFF741F900F03BF930B92FB14FF410
:101BA000A97229A130A0FFF737F9FFF725FFD4F874
:101BB0000080524629464046FFF73EFC40B10027D0
:101BC0004646B9F1000F15D02068A843206011E007
:101BD000AFB1B9F1000F01D04FF08076BAF1000F2C
:101BE00001D046F0806645EA06013A46201DFFF71F
:101BF00081FE002600F0DEF91FB310B109E0464671
:101C0000F8E71D494FF080500860BFF34F8FBFF3D6
:101C10006F8FFFF7CBFC0646800110D4FFF704FD61
:101C20002668524629463046FFF706FC28B1B9F12E
:101C3000000F02D02068A8432060FFF72FFD26F098
:101C40007F463046BDE8F0872E2E5C4672656552B1
:101C5000544F535C7372635C6576656E745F677234
:101C60006F7570732E6300004572726F723A257340
:101C70002C25640D0A00000004ED00E01CB5304C7A
:101C800020683049884205D140F259122EA138A06F
:101C9000FFF7C2F820682B49491E884205D14FF44E
:101CA000AD7229A132A0FFF7B7F8354C207801902A
:101CB000FF20207020788DF800009DF800009DF82E
:101CC000001000F0F000884205D040F273121EA10F
:101CD00027A0FFF7A1F89DF800002A4A00F0500065
:101CE00010700720906007E09068401E90609DF89B
:101CF000000040008DF800009DF800000006F3D4BD
:101D0000107A000200F4E0609060019820700C48A6
:101D10002030016841F470010160016841F07041B8
:101D20000160FFF737FD00205060FEF769FA1648A2
:101D3000016841F040410160FEF752FA00201CBDED
:101D400000ED00E071C20F412E2E5C4672656552B7
:101D5000544F535C706F72745C525644535C4152E2
:101D60004D5F434D34465C706F72742E630000000B
:101D70004572726F723A25732C25640D0A000000BB
:101D800000E400E04C00002034EF00E010B55020EB
:101D900080F31188BFF34F8FBFF36F8F00F046F8C9
:101DA00018B104494FF080500860002080F311887A
:101DB00010BD000004ED00E02DE9FF5F8346DDE982
:101DC0000E87994616468A469000FFF73FFB0500AE
:101DD0001AD05420FFF73AFB040012D025630021EB
:101DE000CDE90241CDE900874B463246514658467F
:101DF000FFF760FA2046FFF787F9012004B0BDE83D
:101E0000F09F2846FFF77AFC4FF0FF30F6E700001E
:101E10000548416919B1006B18B1002070470120D5
:101E20007047022070470000100000202DE9F041AB
:101E30002D4F0026386B40B1B869401CB861F86975
:101E400000B101263046BDE8F081FD686D1CFD60E3
:101E500011D1786B006828B140F6D91223A129A0CE
:101E6000FEF7DAFF786BB96B7963B863386A401CA8
:101E70003862FFF7A1FAB86ADFF89880854209D383
:101E8000786B006880B1786BC068C4686068854210
:101E90000DD2B8623868C06A00EB800158F82100A2
:101EA0000128CCD90126CAE74FF0FF30F1E7201D09
:101EB000FFF76AFBA06A18B104F11800FFF764FB92
:101EC000E06A01213A6981401143396100EB8001E8
:101ED00008EB8100211DFFF79BFBE06A3968C96AA6
:101EE0008842CDD30126CBE7100000202E2E5C4681
:101EF00072656552544F535C7372635C7461736BAB
:101F0000732E63004572726F723A25732C25640D2F
:101F10000A0000008800002070B51A4D06460C46E5
:101F2000286B28B940F6993217A11DA0FEF774FF5F
:101F300044F000403060F4682CB940F6A13212A1A0
:101F400017A0FEF769FF3046FFF71EFB201DFFF7C5
:101F50001BFBE06A01262A6906FA00F11143296198
:101F6000134900EB800001EB8000211DFFF750FBBF
:101F7000E06A2968C96A884202D90120EE6170BD11
:101F8000002070BD100000202E2E5C467265655248
:101F9000544F535C7372635C7461736B732E630094
:101FA0004572726F723A25732C25640D0A00000089
:101FB000880000202DE9F0472B4D00242746286B90
:101FC00028B94FF4FD6229A12EA0FEF725FFFFF7E7
:101FD0002BFB286B401E2863286BE8BBA8682D49A3
:101FE0000126C8B3A1F52A798846D8F80010E9B1CE
:101FF000D8F80C00C46804F11800FFF7C5FA201DDA
:10200000FFF7C2FAE06A2A6906FA00F11143296172
:1020100000EB800109EB8100211DFFF7F9FAE06A6E
:102020002968C96A8842E0D3EE61DEE70CB1FFF7A8
:10203000C3F9AC693CB1FFF7F9FE00B1EE61641E73
:10204000F9D10020A861E86930B1134901273807A8
:102050000860BFF34F8F00E001E0BFF36F8FFFF721
:102060001DFB3846BDE8F087100000202E2E5C4690
:1020700072656552544F535C7372635C7461736B29
:10208000732E63004572726F723A25732C25640DAE
:102090000A0000003003002004ED00E00000000012
:1020A00001020304C4200008000000208800000092
:1020B000580E00084C2100088800002028970000D6
:1020C000680E00080024F400010000001000000069
:1020D0000000000000000000000000000000000000
:1020E00000000000000000000000000000000000F0
:1020F00000000000000000000000000000000000E0
:1021000000000000000000000000000000000000CF
:1021100000000000AAAAAAAA000000000000000017
:1021200000000000000000000000000000000000AF
:10213000000000000000000000000000000000009F
:0C21400000000000000000000000000093
:04000005080001AD41
:00000001FF
