:020000040800F2
:10000000B0970020790200081D0B0008C308000803
:10001000F10A0008A9030008970E0008000000007C
:10002000000000000000000000000000C101000806
:10003000E90300080000000015020008210B000879
:10004000930200089302000893020008930200083C
:10005000930200089302000893020008930200082C
:10006000930200089302000893020008930200081C
:10007000930200089302000893020008930200080C
:1000800093020008930200089302000893020008FC
:1000900093020008930200089302000893020008EC
:1000A00093020008930200089302000893020008DC
:1000B00093020008930200089302000893020008CC
:1000C00093020008930200089302000893020008BC
:1000D00093020008930200089302000893020008AC
:1000E000930200089302000893020008930200089C
:1000F000930200089302000893020008930200088C
:10010000930200081F0B00089302000893020008E6
:10011000930200089302000893020008930200086B
:10012000930200089302000893020008E503000808
:10013000930200089302000893020008930200084B
:10014000930200089302000893020008930200083B
:1001500093020008E70300089302000893020008D6
:10016000930200089302000893020008930200081B
:1001700093020008930200089302000800000000A8
:1001800093020008930200089302000893020008FB
:1001900093020008930200089302000893020008EB
:1001A000930200089302000893020008DFF80CD0C5
:1001B00000F09CF800480047C9100008B0970020E4
:1001C0002A4B19680868B0E8F04F80F30988BFF33C
:1001D0006F8F4FF0000080F311887047000000001F
:1001E00006480068006880F3088862B661B6BFF30D
:1001F0004F8FBFF36F8F00DF00BF00BF08ED00E03F
:10020000DFF80C00016841F470010160704700BF25
:1002100088ED00E0EFF30980BFF36F8F134B1A688E
:100220001EF0100F08BF20ED108A20E9F04F10607B
:1002300008B44FF0500080F31188BFF34F8FBFF325
:100240006F8F01F005FD4FF0000080F3118808BCAE
:1002500019680868B0E8F04F1EF0100F08BFB0EC46
:10026000108A80F30988BFF36F8F70471000002059
:10027000EFF30580704700000648804706480047B6
:10028000FEE7FEE7FEE7FEE7FEE7FEE7FEE7FEE746
:10029000FEE7FEE7350B0008AD01000840EA010368
:1002A0009B0703D009E008C9121F08C0042AFAD22C
:1002B00003E011F8013B00F8013B521EF9D27047F0
:1002C00030B50B46014600202022012409E021FA26
:1002D00002F59D4205D303FA02F5491B04FA02F523
:1002E0002844151EA2F10102F1DC30BD064C074D79
:1002F00006E0E06840F0010394E8070098471034F6
:10030000AC42F6D3FFF756FF78260008982600087F
:100310007CB501F04DFA012001F078FD154C002369
:1003200004F10801206008208501CDE900012A467A
:1003300011A1144801F0CEFF04F10C010920CDE910
:10034000000100232A4610A1124801F0C3FF04F166
:1003500010010A20CDE9000100232A460EA1114810
:1003600001F0B8FF606801F021FBBDE87C4001F0BE
:1003700059BA0000700000204C6F775F5461736BB6
:10038000000000001D0A00084D69645F5461736B32
:1003900000000000F50A0008486967685F5461734F
:1003A0006B000000C5080008FEE7000010B50C4C0B
:1003B0000A4820604FF4E13060600020A060E060F7
:1003C0002061A0610C206061204600F0A9F920683E
:1003D000C16841F02001C16010BD00000010014063
:1003E0007093002070477047704700002DE9F84F68
:1003F000DFF88C91002209F1040A0AF1040B4FF096
:100400000F080BF1040E01260B6896403340B342EF
:1004100071D14C68022C01D0122C11D1D40800EB00
:1004200084073D6A5407E40E08FA04FC25EA0C052B
:10043000D1F810C00CFA04FC4CEA050CC7F820C037
:1004400007685400032591F804C0A5400CF0030C84
:10045000AF430CFA04FC4CEA070CC0F800C04F682C
:10046000012F05D0022F03D0112F01D0122F11D14F
:100470008768D1F80CC0AF430CFA04FC4CEA070CB7
:10048000C0F808C04768B7430E79C6F30016964017
:100490003E434660C668AE438D68A5403543C5609F
:1004A0004C68E40065D5374C256845F480452560E7
:1004B000246822F0030504F480440094324C2E1981
:1004C000D6F808789407250F08FA05F4A7432F4CAF
:1004D000A04201D1002424E02D4CA04201D10124EE
:1004E0001FE02C4CA04201D102241AE02A4CA04269
:1004F00002D1032415E03CE0284CA04201D10424A1
:100500000FE0274CA04201D105240AE0254CA0426F
:1005100001D1062405E0244CA04201D1072400E0CB
:100520000824AC403C43C6F80848D9F800404D4682
:100530004E689C43F60300D51C432C60DAF800405B
:1005400055464E689C43B60300D51C432C60DBF82F
:1005500000405D464E689C43F60200D51C432C606B
:10056000DEF8004075464E689C43B60200D51C4339
:100570002C60521C102AFFF446AFBDE8F88F000033
:10058000003C01404438024000300140000002407D
:100590000004024000080240000C0240001002402B
:1005A0000014024000180240001C02400AB18161A0
:1005B00070470904FBE700000148806870470000AD
:1005C000040000200B4810B5016841F4007101607F
:1005D000016841F480610160016841F4807101604B
:1005E000032000F057F80F2000F006F800F024F880
:1005F000002010BD003C024070B50D4D04464FF484
:100600007A712878B1FBF0F00A490968B1FBF0F083
:1006100000F072F848B9102C07D200222146501E73
:1006200000F018F800206C6070BD012070BD000063
:1006300004000020000000207047002809DB00F0C3
:100640001F02012191404009800000F1E020C0F824
:1006500000117047F0B40E4B1B68C3F30223C3F1C3
:100660000704042C00D904241D1D072D01D20023EA
:1006700000E0DB1E012606FA04F56D1E0D409D40CC
:100680009E40761E164045EA0601F0BC00F014BC00
:100690000CED00E0064A00F0070110684FF6FF037A
:1006A000184040EA012003490843106070470000E9
:1006B0000CED00E00000FA050448054900680968EF
:1006C000044AC1F38221515CC840704700000020F9
:1006D0000838024070260008044805490068096887
:1006E000044AC1F34231515CC84070470000002009
:1006F000083802407026000810B5401EB0F1807F17
:1007000001D3012010BD4FF0E02460610F2160177C
:1007100000F0D2FB0020A06107202061002010BD66
:1007200070B5040004D094F83900002510B106E03B
:10073000012070BD84F83850204600F023F82420B2
:1007400084F839002068C16821F40051C160204656
:1007500000F01AFA2068016921F4904101612068D3
:10076000416921F02A0141612068C16841F40051CA
:10077000C160E563202084F8390084F83A00002045
:1007800070BD000030B51E4887B0016841F010010F
:100790000160006800F010000590194814380168E5
:1007A00041F001010160016801F00101059101685A
:1007B00041F0010101600068072400F0010005908C
:1007C0004FF400700090022001900120029003205D
:1007D000CDE903040B4D69462846FFF707FE2915AE
:1007E0000091049469462846FFF700FE012200218B
:1007F0002520FFF72FFF2520FFF71FFF07B030BD93
:1008000044380240000002402DE9F843044690F8C5
:1008100039001E4617460D46202850D1A5B19FB17C
:1008200094F8380001284AD0012084F838004FF0AD
:100830000008C4F83C80212084F83900FFF7BCFE92
:10084000A7848146E78426E00120BDE8F883E08C98
:10085000401EE084A0684B46B0F5805F4FF0000278
:100860004FF080012046009603D000F0E3FAE8B98B
:100870000DE000F0DFFAC8B928882168C0F308004D
:100880004860206908B16D1C05E0AD1C03E02168DB
:1008900015F8010B4860E08C0028D8D14B460022A7
:1008A00040212046009600F0C5FA08B10320CCE7AD
:1008B000202084F8390084F838800020C5E7022021
:1008C000C3E7FEE70F4C4FF0FF354FF47A760EA0EA
:1008D00000F0E2FA00232A461946206801F0DEFA09
:1008E000012802D110A000F0D7FA14A000F0D4FA29
:1008F00000231A461946206801F0EAFB304601F051
:100900001DF8E4E770000020486967685F54617370
:100910006B2074727920746F20676574206D757414
:1009200065782E2E0A000000486967685F5461737D
:100930006B2052756E696E670A000000486967682F
:100940005F5461736B20676976656E206D757465A1
:10095000782E2E0A0000000070B5194886B00024D9
:10096000016841F001010160016801F00101059198
:10097000016841F0100101600068124D00F01000A4
:100980000590224601212846FFF710FE0E4E012257
:100990001C213046FFF70AFE1C20CDE9000401248B
:1009A0000320CDE9024069463046FFF71FFD0220D3
:1009B0000290694600942846FFF718FD06B070BD06
:1009C000303802400000024000100240114810B5CB
:1009D000016886B041F02001016000680E4C00F013
:1009E000200005904FF4C06000900120019002901B
:1009F0000320039069462046FFF7F8FC01225102CC
:100A00002046FFF7D3FD012291022046FFF7CEFDDD
:100A100006B010BD3038024000140240194E1A4C86
:100A20004FF0FF394FF000084FF0805544F6206733
:100A30004FF47A7A15A000F02FFA00234A4619469F
:100A4000206801F02BFA012802D118A000F024FA46
:100A5000C4F814803560BFF34F8FBFF36F8F6069A8
:100A6000401C6061B842F5D300231A46194620683D
:100A700001F02EFB18A000F00FFA504600F05EFFC8
:100A8000D8E7000004ED00E0700000204C6F775FB5
:100A90005461736B2074727920746F2067657420C1
:100AA0006D757465782E2E0A000000004C6F775F1C
:100AB0005461736B20676F74206D75746578206165
:100AC0006E642069742069732052756E6E696E675A
:100AD0002E2E0A0A000000004C6F775F5461736B82
:100AE00020676976656E206D757465782E2E0A0014
:100AF000FEE700004FF47A7403A000F0CDF9204621
:100B000000F01CFFF8E700004D69645F5461736BEF
:100B10002052756E696E670A0000000070477047CA
:100B200010B501F003FC012803D0BDE8104001F02E
:100B300057B910BD1048016841F4700101600F48B9
:100B4000016841F0010101600C4A00210832116086
:100B500002680B4B1A400260031D0A4A1A600268C1
:100B600022F48022026005480C30016002495806D8
:100B7000803908607047000088ED00E000380240CE
:100B8000FFFFF6FE103000242DE9F0410446006816
:100B90000169E26821F4405111430161A1682069B3
:100BA000E26901436069104301432068C26849F269
:100BB0000C639A430A43C26020684169A26921F428
:100BC000407111434161E0696425B0F5004F974AD7
:100BD000974920684FF032083FD0884201D09042B8
:100BE0007CD1FFF779FD00EBC00101EB00106168DB
:100BF0008900B0FBF1F6FFF76FFD00EBC00101EBE0
:100C0000001061688900B0FBF1F0B0FBF5F06FF007
:100C10001801484306EB800108EB0110B0FBF5F02A
:100C200000F0F006FFF758FD00EBC00101EB0010EB
:100C300061688900B0FBF1F0B0FBF5F006EB00163F
:100C4000FFF74AFD00EBC00101EB0010616889006D
:100C5000B0FBF1F7FFF740FDD2E0884201D09042AF
:100C60003DD1FFF739FD00EBC00101EB00106168D9
:100C70004900B0FBF1F0B0FBF5F00601FFF72CFDE9
:100C800000EBC00101EB001061684900B0FBF1F717
:100C9000FFF722FD00EBC00101EB00106168490085
:100CA000B0FBF1F0B0FBF5F06FF01801484307EB33
:100CB000800108EBC100B0FBF5F000F0F80006EB96
:100CC0004006FFF709FD00EBC00101EB0010616871
:100CD0004900B0FBF1F7FFF7FFFC3CE055E0FFF700
:100CE000EBFC00EBC00101EB001061684900B0FBB8
:100CF000F1F0B0FBF5F00601FFF7DEFC00EBC00100
:100D000001EB001061684900B0FBF1F7FFF7D4FC7C
:100D100000EBC00101EB001061684900B0FBF1F08D
:100D2000B0FBF5F06FF01801484307EB800108EBCA
:100D3000C100B0FBF5F000F0F80006EB4006FFF74D
:100D4000BBFC00EBC00101EB001061684900B0FB87
:100D5000F1F7FFF7B1FC00EBC00101EB0010616897
:100D60004900B0FBF1F0B0FBF5F06FF0180148431B
:100D700007EB800108EBC100B0FBF5F000F00700C5
:100D8000216830448860BDE8F081FFF795FC00EBF6
:100D9000C00101EB001061688900B0FBF1F6FFF7BC
:100DA0008BFC00EBC00101EB001061688900B0FB17
:100DB000F1F0B0FBF5F06FF01801484306EB80014D
:100DC00008EB0110B0FBF5F000F0F006FFF774FC43
:100DD00000EBC00101EB001061688900B0FBF1F08D
:100DE000B0FBF5F006EB0016FFF766FC00EBC00168
:100DF00001EB001061688900B0FBF1F7FFF75CFCC4
:100E000000EBC00101EB001061688900B0FBF1F05C
:100E1000B0FBF5F06FF01801484307EB800108EBD9
:100E20000110B0FBF5F000F00F00A9E7001401403D
:100E3000001001402DE9F0411E4617468846044641
:100E4000069D1CE0681C1AD025B1FFF7B5FB801B7E
:100E5000A84214D92068C16821F4D071C16020680B
:100E6000416921F001014161202084F8390084F8B2
:100E70003A00002084F838000320BDE8F0812068A3
:100E8000016838EA010004D00020B842DAD000201E
:100E9000F3E70120F9E7FEE70FB4054B10B503A90E
:100EA000044A029800F028F810BC5DF814FB00001A
:100EB000B1100008880000200907090E002804DB93
:100EC00000F1E02080F80014704700F00F0000F1FE
:100ED000E02080F8141D704702E008C8121F08C106
:100EE000002AFAD170477047002001E001C1121FAB
:100EF000002AFBD1704700002DE9FF4F8BB09A46C6
:100F00000F460546002606E025280BD052460D99CF
:100F100090476D1C761C28780028F5D10FB030461C
:100F2000BDE8F08F0024A0460122604900E00443A0
:100F300015F8013F203B02FA03F00842F7D1287868
:100F40002E2817D115F8010F44F004042A280ED0DA
:100F50006FF02F022878A0F1300109290AD808EB98
:100F6000880102EB410100EB01086D1CF2E757F824
:100F7000048B6D1C287869283ED006DC0028CDD073
:100F800063280BD0642804D136E0732810D075286C
:100F90004BD052460D999047761C85E017F8040B0C
:100FA0008DF8000000208DF80100E946012003E0E3
:100FB00057F8049B4FF0FF3061074FF0000401D455
:100FC0000AE0641C44450DDA8442FADB19F8041087
:100FD0000029F6D106E0641C8442FCDB19F80410F9
:100FE0000029F8D1264404E019F8010B52460D9966
:100FF0009047641EF8D257E001CF4FF00A0B00284B
:1010000002DA40422D2102E0210504D52B218DF882
:101010002410012103E0E10705D02021F7E70DF1BD
:10102000200908910CE00021F9E701CF4FF00A0BED
:10103000F9E75946FFF744F901F1300209F8012DAB
:101040000028F6D1ADEB090000F1200B600701D4B8
:101050004FF00108D84502DDA8EB0B0000E00020AE
:101060008046002406E009A85246005D0D9990478D
:10107000641C761C08988442F5DB04E0302052465C
:101080000D999047761CB8F10001A8F10108F5DC34
:1010900005E019F8010B52460D999047761CBBF1FB
:1010A0000001ABF1010BF4DC6D1C34E709280100F1
:1010B00013B54FF47A73012269460248FFF7A4FB87
:1010C00000981CBD709300201CB5FFF77BFAFFF75A
:1010D00043FCFFF77BFCFFF769F909490C20CDE9D8
:1010E000000100234FF4007206A10A4801F0F2F853
:1010F000012801D000201CBD00F05AFDFEE70000D1
:10110000740000204170705461736B4372656174A8
:1011100065000000110300082DE9F041184E0F464C
:101120000446F5683068001D00F0FEFA38B93068F2
:1011300090F82C1001208840316981433161601C96
:1011400007D137B13168BDE8F0410E48091D00F004
:1011500023BB30682C44AC424460316805D2B06B8C
:10116000BDE8F041091D00F0FFBA706B091D00F0E9
:10117000FBFAB06A844200D2B462BDE8F08100009C
:10118000100000205C0300202DE9F041054600F02E
:101190000FFB2D4EB068401CB06030682B4F10B173
:1011A000706930B32BE03560B068012827D1002486
:1011B00004EB840007EB800000F0C8FA641C202CCC
:1011C000F6D3234800F0C2FA2148143000F0BEFAEA
:1011D0001F48283000F0BAFA1D483C3000F0B6FA3B
:1011E0001B48503000F0B2FA194870631430B063F5
:1011F00005E03068E96AC06A884200D83560706AE4
:101200000121401C7062E86A3269814011433161FA
:1012100000EB800007EB8000291D00F0BDFA00F014
:1012200001FB706900280CD03068E96AC06A884206
:1012300007D208494FF080500860BFF34F8FBFF3CB
:101240006F8FBDE8F0810000100000208C000020AE
:101250000C03002004ED00E070B5124E124D1CE0AE
:1012600000F0EEFC306820B1002401F08DF9A4B943
:1012700001E00124F9E700F09BFAF068C468201D42
:1012800000F052FAA868401EA8606868401E6860B6
:1012900000F0C8FA204600F052F868680028DFD154
:1012A00070BD0000480300201000002030B4026C24
:1012B0000B46002A0BD0C1681144C1604468A142AA
:1012C00001D30168C16030BC1846FEF7E7BF30BCEF
:1012D00070472DE9F041856B174604460026026CE5
:1012E00082B1C7B1E068FEF7D9FFE168206C091A46
:1012F000E1602268914202D26168081AE060022F20
:1013000016D017E02068A8B9606801F093F8064687
:10131000002060600EE0A068FEF7C0FF216CA068AE
:101320000844A0606168884204D32068A06001E09E
:1013300005B16D1E6D1CA5633046BDE8F08110B58A
:101340000446006B00F09EFA2046BDE8104000F015
:1013500099BA000010484FF41041420706D0C01D52
:101360000D4920F00700411AC1F510410B4A002336
:101370000144C2E900030839103A21F00701116065
:101380004B600B600B1AC0E9001393604FF00040F4
:101390005360D06070470000700300206800002098
:1013A000074E4FF08054074DFFF756FF3068012875
:1013B000FAD92C60BFF34F8FBFF36F8FF4E70000B3
:1013C0008C00002004ED00E02DE9F047DDE9098400
:1013D0000E4682466FF00301206B01EB8201084448
:1013E000089D20F007079946780705D040F22B3278
:1013F00019A11FA0FFF750FD00202218315C82F8D0
:101400003410315C11B1401C1028F6D3002684F84A
:101410004360202D00D31F25E562C4E91156201D2D
:1014200000F09FF904F1180000F09BF92461C5F168
:1014300020006462A061E66484F850604A46514628
:10144000384600F05BF92060B8F1000F01D0C8F811
:101450000040BDE8F08700002E2E5C4672656552A4
:10146000544F535C7372635C7461736B732E6300CF
:101470004572726F723A25732C25640D0A000000C4
:1014800030B5114900E011460A688242FBD34B682F
:101490005C18844203D14068184448600846436899
:1014A0001C18944209D1084C103C2468A24209D06F
:1014B00052681A4442600A6812680260814200D091
:1014C000086030BD0460F9E76800002010B50446EC
:1014D00000F06EF9A06B20B1002400F0A3F92046C3
:1014E00010BD0124F9E700000648416B096829B1E5
:1014F000416BC968C9684968816270474FF0FF3124
:10150000FAE700001000002008484068401C05D0A1
:1015100040F20F1206A110A0FFF7BEFC502080F38E
:101520001188BFF34F8FBFF36F8FFEE74C00002091
:101530002E2E5C4672656552544F535C706F727408
:101540005C525644535C41524D5F434D34465C708F
:101550006F72742E630000004572726F723A2573C9
:101560002C25640D0A0000002DE9F041044600F02E
:101570001FF994F9455004F1240609E0606A48B166
:10158000304600F0B3FF08B100F078FA6D1E6DB27E
:10159000002DF3DC4FF0FF3684F8456000F042F98F
:1015A00000F006F994F9445004F1100709E02069AD
:1015B00048B1384600F09AFF08B100F05FFA6D1E9E
:1015C0006DB2002DF3DC84F84460BDE8F04100F01A
:1015D00029B900002DE9F0410546002600F030FB56
:1015E000324F386808B9FFF7B5FEF86805424FD1A9
:1015F000002D4DD0083568070BD005F00700C0F16D
:1016000008000544680704D0BF2229A131A0FFF7D4
:1016100043FC002D3CD07868854239D823491031ED
:101620000846046801E0214604466068A84202D2E8
:1016300020680028F7D13868B846844228D00E6860
:101640002068086060680836401B10280ED96719AA
:10165000780704D0EC2216A11EA0FFF71DFC6068DD
:10166000401B786038466560FFF70AFF6168D8F86C
:1016700004004246401AC8F80400D8F808309842DE
:1016800000D29060D8F80C0001430020C4E90001AA
:1016900000F07AFF700705D04FF4967204A10DA0F8
:1016A000FFF7FAFB3046BDE8F0810000580000204B
:1016B0002E2E5C4672656552544F535C706F727487
:1016C0005C4D656D4D616E675C686561705F342E61
:1016D000630000004572726F723A25732C25640D09
:1016E0000A0000000449086818B10868826C521C9E
:1016F00082640868704700001000002010B5031FC6
:101700004FF080741C601B1F21F001011960191F2C
:10171000044B0B6014390A60091F6FF00202443851
:101720000A6010BD09150008D0E9013201699A600C
:10173000D0E901235A604A68824201D182684A6036
:10174000002202610868401E0860704700F108012D
:101750004FF0FF32C0E90112C16001610021016058
:10176000704700210161704730B50C68621C02D0DF
:1017700000F1080202E0026904E01A4653681D689D
:10178000A542FAD953684B6099608A60516008613C
:101790000168491C016030BD42684A6093688B60F3
:1017A00093685960916008610168491C0160704745
:1017B000502080F31188BFF34F8FBFF36F8F09491B
:1017C0004868401C486001280AD10748006810F0AA
:1017D000FF0F05D040F2B91204A10EA0FFF75CBBC9
:1017E000704700004C00002004ED00E02E2E5C4607
:1017F00072656552544F535C706F72745C525644FC
:10180000535C41524D5F434D34465C706F72742E91
:10181000630000004572726F723A25732C25640DC7
:101820000A00000010B5084C606828B94FF4E07257
:1018300006A110A0FFF730FB6068401E606001D178
:1018400080F3118810BD00004C0000202E2E5C4655
:1018500072656552544F535C706F72745C5256449B
:10186000535C41524D5F434D34465C706F72742E31
:10187000630000004572726F723A25732C25640D67
:101880000A00000070B500282AD0164DA0F1080407
:101890006068E968084205D14FF4A07212A11BA04C
:1018A000FFF7FAFA206828B140F241120EA117A002
:1018B000FFF7F2FA6068E968084211D02268002A4E
:1018C0000ED18843606000F0BBF960686968084425
:1018D00068602046FFF7D4FDBDE8704000F054BEBC
:1018E00070BD0000580000202E2E5C4672656552C7
:1018F000544F535C706F72745C4D656D4D616E67D3
:101900005C686561705F342E630000004572726F21
:10191000723A25732C25640D0A00000006484FF426
:101920007A710068B0FBF1F14FF0E020491E41618F
:1019300007210161704700000000002010B504007D
:1019400012D00E49096B29B140F2CF420CA112A06E
:10195000FFF7A2FA00F074F900212046FFF7DCFB44
:1019600000F012FE002807D10F494FF080500860A8
:10197000BFF34F8FBFF36F8F10BD0000100000202A
:101980002E2E5C4672656552544F535C7372635CD5
:101990007461736B732E63004572726F723A2573B4
:1019A0002C25640D0A00000004ED00E070B504462B
:1019B000FFF7FEFE234D04B92C68201DFFF7B4FE8F
:1019C00058B9E06A204A00EB800152F8211021B991
:1019D00001218140286988432861A06A18B104F177
:1019E0001800FFF7A1FE686A401C686228688442FC
:1019F00007D1211D1548FFF7CFFE6868401C6860BD
:101A000007E0A868401EA8602046FFF798FCFFF793
:101A10006BFDFFF707FF6869002812D02868844231
:101A20000FD1286B28B140F2654209A10EA0FFF743
:101A300033FA11494FF080500860BFF34F8FBFF366
:101A40006F8F70BD100000208C0000204803002024
:101A50002E2E5C4672656552544F535C7372635C04
:101A60007461736B732E63004572726F723A2573E3
:101A70002C25640D0A00000004ED00E0014901205E
:101A8000C86170471000002070B50D46040005D1F4
:101A900040F6063207A10DA0FFF7FEF90F480168D6
:101AA00020461831FFF760FE2846BDE8704001214E
:101AB000FFF732BB2E2E5C4672656552544F535C65
:101AC0007372635C7461736B732E63004572726F23
:101AD000723A25732C25640D0A00000010000020C6
:101AE00070B5040039D01D4DE06A2968C96A884282
:101AF00033D2A069002804DB2868C06AC0F1200046
:101B0000A061E06A164E00EB8000616906EB800080
:101B100081421FD1201DFFF707FE012150B9E06A65
:101B200000EB800256F8222022B92A6901FA00F05F
:101B300082432A612868C06AE0622A6981401143B1
:101B4000296100EB800006EB8000211DBDE870409C
:101B5000FFF722BE2868C06AE06270BD1000002056
:101B60008C00002010B5040005D140F6C13205A15B
:101B70000AA0FFF791F90D48016A2160C068606012
:101B800010BD00002E2E5C4672656552544F535CAA
:101B90007372635C7461736B732E63004572726F52
:101BA000723A25732C25640D0A00000010000020F5
:101BB0001CB515480024CDE900402346802213A11E
:101BC000144800F087FB01280AD0401C1BD102B04A
:101BD00040F28472BDE810400FA115A0FFF75CB978
:101BE000502080F31188BFF34F8FBFF36F8F0648EB
:101BF0004FF0FF312C38816201214161C460BDE8A2
:101C00001C4000F065B81CBD3C00002049444C4518
:101C100000000000A11300082E2E5C46726565527C
:101C2000544F535C7372635C7461736B732E630007
:101C30004572726F723A25732C25640D0A000000FC
:101C40000248016B491C016370470000100000202E
:101C500070B5134D286B10B10120E86170BD0020F4
:101C6000E86128690F4EB0FA80F0C0F11F0000EB68
:101C7000800456F8240028B940F6F6220AA110A0E4
:101C8000FFF70AF906EB840000F108024168496891
:101C90004160914201D149684160C868286070BDC7
:101CA000100000208C0000202E2E5C4672656552CC
:101CB000544F535C7372635C7461736B732E630077
:101CC0004572726F723A25732C25640D0A0000006C
:101CD0001CB5304C20683049884205D140F2591279
:101CE0002EA138A0FFF7D8F820682B49491E88425A
:101CF00005D14FF4AD7229A132A0FFF7CDF8354CD4
:101D000020780190FF20207020788DF800009DF849
:101D100000009DF8001000F0F000884205D040F26D
:101D200073121EA127A0FFF7B7F89DF800002A4AFA
:101D300000F0500010700720906007E09068401E8F
:101D400090609DF8000040008DF800009DF80000B4
:101D50000006F3D4107A000200F4E060906001986D
:101D600020700C482030016841F470010160016866
:101D700041F070410160FFF7D1FD00205060FEF797
:101D80003FFA1648016841F040410160FEF728FA29
:101D900000201CBD00ED00E071C20F412E2E5C46FC
:101DA00072656552544F535C706F72745C52564446
:101DB000535C41524D5F434D34465C706F72742EDC
:101DC000630000004572726F723A25732C25640D12
:101DD0000A00000000E400E04C00002034EF00E0C6
:101DE00010B5502080F31188BFF34F8FBFF36F8F72
:101DF00000F0AAFA18B104494FF0805008600020A2
:101E000080F3118810BD000004ED00E010B502461B
:101E10000021012000F00CF8040007D000214160EF
:101E200001600B460A46C16000F052F9204610BD21
:101E300070B50E46050005D14FF4C4720DA113A074
:101E4000FFF72AF896B105FB06F04830FFF7C2FB12
:101E5000040009D004F1480120464EB10160C0E9F8
:101E60000F56012100F0DEF8204670BD0020ECE79F
:101E70000060F4E72E2E5C4672656552544F535C49
:101E80007372635C71756575652E63004572726F60
:101E9000723A25732C25640D0A0000002DE9FF4FCE
:101EA00083B09B468A4604004FF0000605D140F2FD
:101EB000DC4251A156A0FEF7EFFFBAF1000F07D1A7
:101EC000206C28B140F2DD424BA151A0FEF7E4FFA7
:101ED00000F02CFA38B9059828B14FF49C6246A15D
:101EE0004BA0FEF7D9FF4FF000094FF08057DFF805
:101EF0003081FFF75DFCA56B45B351462046E6688F
:101F0000FFF7D4F9BBF1000F13D0E660606A50B15F
:101F100004F1240000F0EAFA28B1C8F80070BFF319
:101F20004F8FBFF36F8FFFF77DFC012007B0BDE837
:101F3000F08F6D1EA563206810B9FFF7D3FB6060BA
:101F400020690028EFD004F11000E3E7059808B1FC
:101F50001EB106E0FFF766FC27E06846FFF702FEC9
:101F60000126FFF75FFCFFF76BFEFFF721FC94F9FA
:101F70004400401C01D184F8449094F94500401C71
:101F800001D184F84590FFF74DFC05A9684600F0A3
:101F90005BF9002820460AD0FFF7E6FA00F0F4FAD1
:101FA0002046FFF793FA0028A3D00020BEE7FFF7F2
:101FB0008DFAD8B1206830B9FFF7FAFB6068FFF7F7
:101FC0008FFDFFF72FFC04F124000599FFF75CFD5E
:101FD0002046FFF7C9FA00F0D7FA002889D1C8F8DF
:101FE0000070BFF34F8FBFF36F8F82E72046FFF77C
:101FF000BBFA00F0C9FA7CE72E2E5C46726565528A
:10200000544F535C7372635C71756575652E630024
:102010004572726F723A25732C25640D0A00000018
:1020200004ED00E070B50D46040005D140F21B122E
:102030001CA122A0FEF730FFFFF7BAFBD4E90F2066
:10204000216802FB001161600021A1632168A16089
:102050000A46D4E90F01401E00FB0121E160214640
:102060004FF0FF3001F8440F487004F110004DB1FB
:10207000FFF76CFB04F12400FFF768FBFFF7D2FBCE
:10208000012070BD21690029F8D000F02FFA002846
:10209000F4D00E494FF080500860BFF34F8FBFF36C
:1020A0006F8FEBE72E2E5C4672656552544F535C82
:1020B0007372635C71756575652E63004572726F2E
:1020C000723A25732C25640D0A00000004ED00E02F
:1020D0002DE9FF4F83B01F468B4604004FF00006EA
:1020E00005D140F2D9224DA152A0FEF7D5FEBBF199
:1020F000000F07D1206C28B140F2DA2247A14DA091
:10210000FEF7CAFE022F08D1E06B012805D040F28D
:10211000DB2242A147A0FEF7BFFE00F007F938B965
:10212000059828B140F2DE223CA142A0FEF7B4FEA1
:102130004FF0000A4FF08058DFF80891FFF738FBA6
:10214000A06BE16B884205D3022F03D00598C8B17C
:10215000DEB11EE03A4659462046FFF7BAF8616AFA
:1021600019B104F1240000F0C1F928B1C9F80080C8
:10217000BFF34F8FBFF36F8FFFF754FB012007B002
:10218000BDE8F08FFFF74EFB21E06846FFF7EAFC61
:102190000126FFF747FBFFF753FDFFF709FB94F913
:1021A0004400401C01D184F844A094F94500401C2F
:1021B00001D184F845A0FFF735FB05A9684600F07A
:1021C00043F830B12046FFF7CFF900F0DDF90020E9
:1021D000D5E7FFF7EDFAA06BE16B884201D101254D
:1021E00000E00025FFF71EFB95B104F110000599F2
:1021F000FFF74AFC2046FFF7B7F900F0C5F90028C1
:102200009CD1C9F80080BFF34F8FBFF36F8F95E764
:102210002046FFF7A9F900F0B7F98FE72E2E5C46AC
:1022200072656552544F535C7372635C717565756A
:10223000652E63004572726F723A25732C25640D0A
:102240000A00000004ED00E070B50D46040005D161
:1022500040F6CB3214A11AA0FEF71EFE2DB940F6AF
:10226000CC3211A116A0FEF717FEFFF7A1FA184A0B
:10227000D06829684B1C0FD02368126A934202D0A1
:10228000626882420AD96268801A884206D2081AB5
:1022900028602046FFF766FC002400E00124FFF7D9
:1022A000C1FA204670BD00002E2E5C467265655254
:1022B000544F535C7372635C7461736B732E630071
:1022C0004572726F723A25732C25640D0A00000066
:1022D000100000202DE9FF5F8346DDE90E87994657
:1022E00016468A469000FFF775F905001AD054206B
:1022F000FFF770F9040012D025630021CDE90241F7
:10230000CDE900874B46324651465846FFF75CF808
:102310002046FEF739FF012004B0BDE8F09F2846B3
:10232000FFF7B0FA4FF0FF30F6E7000005484169CB
:1023300019B1006B18B100207047012070470220CE
:1023400070470000100000202DE9F0412D4F0026BD
:10235000386B40B1B869401CB861F86900B101261A
:102360003046BDE8F081FD686D1CFD6011D1786BD1
:10237000006828B140F6D91223A129A0FEF78CFDF0
:10238000786BB96B7963B863386A401C3862FFF7C1
:10239000ABF8B86ADFF89880854209D3786B00689B
:1023A00080B1786BC068C468606885420DD2B8623D
:1023B0003868C06A00EB800158F821000128CCD9A8
:1023C0000126CAE74FF0FF30F1E7201DFFF7ACF917
:1023D000A06A18B104F11800FFF7A6F9E06A01211C
:1023E0003A6981401143396100EB800108EB8100BB
:1023F000211DFFF7D1F9E06A3968C96A8842CDD357
:102400000126CBE7100000202E2E5C467265655237
:10241000544F535C7372635C7461736B732E63000F
:102420004572726F723A25732C25640D0A00000004
:102430008C00002070B504004FF000063CD01F4D0A
:102440002868844205D040F6C7621DA122A0FEF78D
:1024500023FDA06C28B940F6C96219A11EA0FEF7A1
:102460001BFDA06C401EA064626CE16A914223D007
:1024700010BB201DFFF758F91B49012250B9E06A33
:1024800000EB800351F8233023B92B6902FA00F0E6
:1024900083432B61606CE062C0F12000A061E06AC0
:1024A0002B6982401A432A6100EB800001EB800017
:1024B000211DFFF771F90126304670BD1000002084
:1024C0002E2E5C4672656552544F535C7372635C8A
:1024D0007461736B732E63004572726F723A257369
:1024E0002C25640D0A0000008C0000202DE9F0412D
:1024F000C068C4682CB940F6613216A11BA0FEF773
:10250000CBFC04F118000746FFF70EF91B4D286BB2
:10251000012660B139461A48FFF73EF9E06A29689A
:10252000C96A884213D90120EE61BDE8F081201DFF
:10253000FFF7FAF8E06A2A6906FA00F11143296107
:10254000104900EB800001EB8000211DE4E7002032
:10255000EBE700002E2E5C4672656552544F535CCB
:102560007372635C7461736B732E63004572726F78
:10257000723A25732C25640D0A000000100000201B
:10258000340300208C0000202DE9F0472B4D00245F
:102590002746286B28B94FF4FD6229A12EA0FEF72B
:1025A0007BFCFFF705F9286B401E2863286BE8BB0E
:1025B000A8682D490126C8B3A1F52A798846D8F81C
:1025C0000010E9B1D8F80C00C46804F11800FFF756
:1025D000ABF8201DFFF7A8F8E06A2A6906FA00F1B7
:1025E0001143296100EB800109EB8100211DFFF7F8
:1025F000D3F8E06A2968C96A8842E0D3EE61DEE771
:102600000CB1FEF771FFAC693CB1FFF79DFE00B164
:10261000EE61641EF9D10020A861E86930B1134968
:10262000012738070860BFF34F8F00E001E0BFF3D8
:102630006F8FFFF7F7F83846BDE8F08710000020ED
:102640002E2E5C4672656552544F535C7372635C08
:102650007461736B732E63004572726F723A2573E7
:102660002C25640D0A0000003403002004ED00E076
:10267000000000000102030498260008000000206A
:102680008C000000D80E0008242700088C000020D1
:1026900024970000E80E00080024F4000100000068
:1026A000100000000000000000000000000000001A
:1026B000000000000000000000000000000000001A
:1026C000000000000000000000000000000000000A
:1026D00000000000000000000000000000000000FA
:1026E0000000000000000000AAAAAAAA0000000042
:1026F00000000000000000000000000000000000DA
:1027000000000000000000000000000000000000C9
:1027100000000000000000000000000000000000B9
:0427200000000000B5
:04000005080001AD41
:00000001FF
