:020000040800F2
:100000003898002079020008AF0A0008BB080008F1
:10001000AD0A0008990300087F0E000800000000E8
:10002000000000000000000000000000C101000806
:10003000D90300080000000015020008070B0008A3
:10004000930200089302000893020008930200083C
:10005000930200089302000893020008930200082C
:10006000930200089302000893020008930200081C
:10007000930200089302000893020008930200080C
:1000800093020008930200089302000893020008FC
:1000900093020008930200089302000893020008EC
:1000A00093020008930200089302000893020008DC
:1000B00093020008930200089302000893020008CC
:1000C00093020008930200089302000893020008BC
:1000D00093020008930200089302000893020008AC
:1000E000930200089302000893020008930200089C
:1000F000930200089302000893020008930200088C
:1001000093020008050B0008930200089302000800
:10011000930200089302000893020008930200086B
:10012000930200089302000893020008D503000818
:10013000930200089302000893020008930200084B
:10014000930200089302000893020008930200083B
:1001500093020008D70300089302000893020008E6
:10016000930200089302000893020008930200081B
:1001700093020008930200089302000800000000A8
:1001800093020008930200089302000893020008FB
:1001900093020008930200089302000893020008EB
:1001A000930200089302000893020008DFF80CD0C5
:1001B00000F09CF800480047B11000083898002073
:1001C0002A4B19680868B0E8F04F80F30988BFF33C
:1001D0006F8F4FF0000080F311887047000000001F
:1001E00006480068006880F3088862B661B6BFF30D
:1001F0004F8FBFF36F8F00DF00BF00BF08ED00E03F
:10020000DFF80C00016841F470010160704700BF25
:1002100088ED00E0EFF30980BFF36F8F134B1A688E
:100220001EF0100F08BF20ED108A20E9F04F10607B
:1002300008B44FF0500080F31188BFF34F8FBFF325
:100240006F8F01F021FF4FF0000080F3118808BC90
:1002500019680868B0E8F04F1EF0100F08BFB0EC46
:10026000108A80F30988BFF36F8F70471000002059
:10027000EFF30580704700000648804706480047B6
:10028000FEE7FEE7FEE7FEE7FEE7FEE7FEE7FEE746
:10029000FEE7FEE71D0B0008AD01000840EA010380
:1002A0009B0703D009E008C9121F08C0042AFAD22C
:1002B00003E011F8013B00F8013B521EF9D27047F0
:1002C00030B50B46014600202022012409E021FA26
:1002D00002F59D4205D303FA02F5491B04FA02F523
:1002E0002844151EA2F10102F1DC30BD064C074D79
:1002F00006E0E06840F0010394E8070098471034F6
:10030000AC42F6D3FFF756FF682E0008882E00088F
:100310001CB501F0BDFB12490920CDE900014FF4E5
:100320000074002322460FA1114802F049FA0C493B
:100330000820091DCDE90001002322460DA1104827
:1003400002F03EFA012802D10EA000F099FD044807
:10035000001F006801F012FDBDE81C4001F0D2BB97
:10036000880000204B65795F5461736B00000000CA
:1003700075090008526563765F5461736B00000075
:10038000B10A00085461736B20B4B4BDA8B3C9B9F5
:10039000A62E2E2E0A000000FEE7000010B50C4C21
:1003A0000A4820604FF4E13060600020A060E06007
:1003B0002061A0610C206061204600F0ADF920684A
:1003C000C16841F02001C16010BD00000010014073
:1003D000F493002070477047704700002DE9F84FF4
:1003E000DFF88C91002209F1040A0AF1040B4FF0A6
:1003F0000F080BF1040E01260B6896403340B34200
:1004000071D14C68022C01D0122C11D1D40800EB10
:1004100084073D6A5407E40E08FA04FC25EA0C053B
:10042000D1F810C00CFA04FC4CEA050CC7F820C047
:1004300007685400032591F804C0A5400CF0030C94
:10044000AF430CFA04FC4CEA070CC0F800C04F683C
:10045000012F05D0022F03D0112F01D0122F11D15F
:100460008768D1F80CC0AF430CFA04FC4CEA070CC7
:10047000C0F808C04768B7430E79C6F30016964027
:100480003E434660C668AE438D68A5403543C560AF
:100490004C68E40065D5374C256845F480452560F7
:1004A000246822F0030504F480440094324C2E1991
:1004B000D6F808789407250F08FA05F4A7432F4CBF
:1004C000A04201D1002424E02D4CA04201D10124FE
:1004D0001FE02C4CA04201D102241AE02A4CA04279
:1004E00002D1032415E03CE0284CA04201D10424B1
:1004F0000FE0274CA04201D105240AE0254CA04280
:1005000001D1062405E0244CA04201D1072400E0DB
:100510000824AC403C43C6F80848D9F800404D4692
:100520004E689C43F60300D51C432C60DAF800406B
:1005300055464E689C43B60300D51C432C60DBF83F
:1005400000405D464E689C43F60200D51C432C607B
:10055000DEF8004075464E689C43B60200D51C4349
:100560002C60521C102AFFF446AFBDE8F88F000043
:10057000003C01404438024000300140000002408D
:100580000004024000080240000C0240001002403B
:100590000014024000180240001C0240006908409C
:1005A00000D0012070470AB1816170470904FBE760
:1005B0000148806870470000040000200B4810B517
:1005C000016841F400710160016841F480610160DB
:1005D000016841F480710160032000F057F80F209A
:1005E00000F006F800F024F8002010BD003C0240A6
:1005F00070B50D4D04464FF47A712878B1FBF0F0D8
:100600000A490968B1FBF0F000F072F848B9102C03
:1006100007D200222146501E00F018F800206C601E
:1006200070BD012070BD000004000020000000200B
:100630007047002809DB00F01F02012191404009AA
:10064000800000F1E020C0F800117047F0B40E4BBC
:100650001B68C3F30223C3F10704042C00D904244C
:100660001D1D072D01D2002300E0DB1E012606FA26
:1006700004F56D1E0D409D409E40761E164045EAD5
:100680000601F0BC00F00CBC0CED00E0064A00F0E6
:10069000070110684FF6FF03184040EA01200349A4
:1006A00008431060704700000CED00E00000FA0500
:1006B0000448054900680968044AC1F38221515C75
:1006C000C84070470000002008380240602E000833
:1006D0000448054900680968044AC1F34231515C85
:1006E000C84070470000002008380240602E000813
:1006F00010B5401EB0F1807F01D3012010BD4FF036
:10070000E02460610F21601700F0CAFB0020A061A7
:1007100007202061002010BD70B5040004D094F8BB
:100720003900002510B106E0012070BD84F8385072
:10073000204600F023F8242084F839002068C1689E
:1007400021F40051C160204600F012FA20680169CE
:1007500021F4904101612068416921F02A01416141
:100760002068C16841F40051C160E563202084F82D
:10077000390084F83A00002070BD000030B51E48F2
:1007800087B0016841F010010160006800F01000BE
:10079000059019481438016841F0010101600168B1
:1007A00001F001010591016841F00101016000685B
:1007B000072400F0010005904FF400700090022023
:1007C0000190012002900320CDE903040B4D6946FE
:1007D0002846FFF703FE2915009104946946284630
:1007E000FFF7FCFD012200212520FFF72FFF252028
:1007F000FFF71FFF07B030BD443802400000024041
:100800002DE9F843044690F839001E4617460D4678
:10081000202850D1A5B19FB194F8380001284AD0C2
:10082000012084F838004FF00008C4F83C802120F3
:1008300084F83900FFF7BCFEA7848146E78426E0F0
:100840000120BDE8F883E08C401EE084A0684B46A0
:10085000B0F5805F4FF000024FF080012046009617
:1008600003D000F0DBFAE8B90DE000F0D7FAC8B920
:1008700028882168C0F308004860206908B16D1C11
:1008800005E0AD1C03E0216815F8010B4860E08C21
:100890000028D8D14B46002240212046009600F087
:1008A000BDFA08B10320CCE7202084F8390084F891
:1008B00038800020C5E70220C3E7FEE770B519487D
:1008C00086B00024016841F001010160016801F077
:1008D00001010591016841F0100101600068124DAD
:1008E00000F010000590224601212846FFF75BFE2C
:1008F0000E4E01221C213046FFF755FE1C20CDE98B
:10090000000401240320CDE9024069463046FFF788
:1009100065FD02200290694600942846FFF75EFDBF
:1009200006B070BD303802400000024000100240A6
:1009300070B504460E480D468442204609D1FFF7A3
:100940002DFE50B929462046FFF728FE0028F9D091
:100950000BE0FFF723FE012801D0002070BD2946DF
:100960002046FFF71BFE0128F9D0012070BD0000D2
:10097000001002400026154FDFF85480154C012569
:1009800001213846FFF7D4FF01280AD100230422B1
:100990003146A06801F040FF012802D10EA000F00E
:1009A0006FFA08214046FFF7C3FF01280AD1002350
:1009B00004222946A06801F02FFF012802D10DA0D2
:1009C00000F05EFA322001F0A1F9D9E70000024000
:1009D0000010024084000020646174613020C8CEA1
:1009E000CEF1CDA8D6AAD2D1CACDB7C52E2E2E0A09
:1009F00000000000646174613120C8CECEF1CDA842
:100A0000D6AAD2D1CACDB7C52E2E2E0A000000001C
:100A100070B50D4B0D4D0C4640B194B100224FF412
:100A200080611846FFF7BFFD2C7070BD3CB10022FD
:100A30004FF400711846FFF7B6FD6C7070BD0122CF
:100A4000F6E70122EBE700000014024090000020CE
:100A500030B5134887B00024016841F020010160DF
:100A60000068104D00F0200005904FF4C060009029
:100A70000120019002900320039069462846FFF769
:100A8000ADFC012251022846FFF78DFD01229102A3
:100A90002846FFF788FD04480470447007B030BD55
:100AA000303802400014024090000020FEE77047FA
:100AB00008B54FF0FF34214623466A46002001F076
:100AC000ABFF012803D108A0009900F0D9F90098E4
:100AD00008B1012100E000210020FFF799FF642008
:100AE00001F014F9E7E7000052656376315F546165
:100AF000736B20C8CECEF1CDA8D6AACEAA2025648D
:100B0000200A0000704710B501F0FCFE012803D058
:100B1000BDE8104001F080BB10BD00001048016826
:100B200041F4700101600F48016841F0010101606A
:100B30000C4A00210832116002680B4B1A40026017
:100B4000031D0A4A1A60026822F4802202600548E6
:100B50000C30016002495806803908607047000077
:100B600088ED00E000380240FFFFF6FE1030002460
:100B70002DE9F041044600680169E26821F4405122
:100B800011430161A1682069E26901436069104372
:100B900001432068C26849F20C639A430A43C26069
:100BA00020684169A26921F4407111434161E06903
:100BB0006425B0F5004F974A974920684FF03208F6
:100BC0003FD0884201D090427CD1FFF781FD00EBFD
:100BD000C00101EB001061688900B0FBF1F6FFF77E
:100BE00077FD00EBC00101EB001061688900B0FBEC
:100BF000F1F0B0FBF5F06FF01801484306EB80010F
:100C000008EB0110B0FBF5F000F0F006FFF760FD17
:100C100000EBC00101EB001061688900B0FBF1F04E
:100C2000B0FBF5F006EB0016FFF752FD00EBC0013C
:100C300001EB001061688900B0FBF1F7FFF748FD98
:100C4000D2E0884201D090423DD1FFF741FD00EB58
:100C5000C00101EB001061684900B0FBF1F0B0FB8E
:100C6000F5F00601FFF734FD00EBC00101EB0010C9
:100C700061684900B0FBF1F7FFF72AFD00EBC00106
:100C800001EB001061684900B0FBF1F0B0FBF5F03A
:100C90006FF01801484307EB800108EBC100B0FB7F
:100CA000F5F000F0F80006EB4006FFF711FD00EB51
:100CB000C00101EB001061684900B0FBF1F7FFF7DC
:100CC00007FD3CE055E0FFF7F3FC00EBC00101EB52
:100CD000001061684900B0FBF1F0B0FBF5F00601CF
:100CE000FFF7E6FC00EBC00101EB00106168490072
:100CF000B0FBF1F7FFF7DCFC00EBC00101EB0010EB
:100D000061684900B0FBF1F0B0FBF5F06FF018013D
:100D1000484307EB800108EBC100B0FBF5F000F0A1
:100D2000F80006EB4006FFF7C3FC00EBC00101EB47
:100D3000001061684900B0FBF1F7FFF7B9FC00EB68
:100D4000C00101EB001061684900B0FBF1F0B0FB9D
:100D5000F5F06FF01801484307EB800108EBC10084
:100D6000B0FBF5F000F00700216830448860BDE872
:100D7000F081FFF79DFC00EBC00101EB0010616802
:100D80008900B0FBF1F6FFF793FC00EBC00101EB2B
:100D9000001061688900B0FBF1F0B0FBF5F06FF076
:100DA0001801484306EB800108EB0110B0FBF5F099
:100DB00000F0F006FFF77CFC00EBC00101EB001037
:100DC00061688900B0FBF1F0B0FBF5F006EB0016AE
:100DD000FFF76EFC00EBC00101EB001061688900B9
:100DE000B0FBF1F7FFF764FC00EBC00101EB001072
:100DF00061688900B0FBF1F0B0FBF5F06FF018010D
:100E0000484307EB800108EB0110B0FBF5F000F060
:100E10000F00A9E700140140001001402DE9F04146
:100E20001E46174688460446069D1CE0681C1AD0DC
:100E300025B1FFF7BDFB801BA84214D92068C1680B
:100E400021F4D071C1602068416921F00101416144
:100E5000202084F8390084F83A00002084F8380013
:100E60000320BDE8F0812068016838EA010004D061
:100E70000020B842DAD00020F3E70120F9E7FEE7CE
:100E80000FB4054B10B503A9044A029800F028F8E6
:100E900010BC5DF814FB00009910000894000020BD
:100EA0000907090E002804DB00F1E02080F8001497
:100EB000704700F00F0000F1E02080F8141D70472B
:100EC00002E008C8121F08C1002AFAD17047704713
:100ED000002001E001C1121F002AFBD17047000071
:100EE0002DE9FF4F8BB09A460F460546002606E0D7
:100EF00025280BD052460D9990476D1C761C2878FA
:100F00000028F5D10FB03046BDE8F08F0024A04690
:100F10000122604900E0044315F8013F203B02FA3A
:100F200003F00842F7D128782E2817D115F8010FC1
:100F300044F004042A280ED06FF02F022878A0F184
:100F4000300109290AD808EB880102EB410100EBC6
:100F500001086D1CF2E757F8048B6D1C287869288E
:100F60003ED006DC0028CDD063280BD0642804D105
:100F700036E0732810D075284BD052460D99904713
:100F8000761C85E017F8040B8DF8000000208DF822
:100F90000100E946012003E057F8049B4FF0FF30C1
:100FA00061074FF0000401D40AE0641C44450DDAE7
:100FB0008442FADB19F804100029F6D106E0641C1B
:100FC0008442FCDB19F804100029F8D1264404E01F
:100FD00019F8010B52460D999047641EF8D257E05C
:100FE00001CF4FF00A0B002802DA40422D2102E027
:100FF000210504D52B218DF82410012103E0E10700
:1010000005D02021F7E70DF1200908910CE000211F
:10101000F9E701CF4FF00A0BF9E75946FFF750F90E
:1010200001F1300209F8012D0028F6D1ADEB0900DD
:1010300000F1200B600701D44FF00108D84502DD14
:10104000A8EB0B0000E000208046002406E009A881
:101050005246005D0D999047641C761C08988442A6
:10106000F5DB04E0302052460D999047761CB8F12C
:101070000001A8F10108F5DC05E019F8010B524662
:101080000D999047761CBBF10001ABF1010BF4DC2C
:101090006D1C34E70928010013B54FF47A7301225F
:1010A00069460248FFF7ACFB00981CBDF493002092
:1010B0001CB5FFF783FAFFF771F9FFF7C9FCFFF7DB
:1010C000FDFB09490920CDE9000100234FF400721E
:1010D00006A10A4801F074FB012801D000201CBDC4
:1010E00000F07EFFFEE70000840000204170705495
:1010F00061736B4372656174650000001103000841
:101100002DE9F041184E0F460446F5683068001D81
:1011100000F07AFC38B9306890F82C100120884033
:10112000316981433161601C07D137B13168BDE855
:10113000F0410E48091D00F09FBC30682C44AC42C1
:101140004460316805D2B06BBDE8F041091D00F084
:101150007BBC706B091D00F077FCB06A844200D242
:10116000B462BDE8F081000010000020B803002048
:101170002DE9F041054600F08BFC2D4EB068401C77
:10118000B06030682B4F10B1706930B32BE0356020
:10119000B068012827D1002404EB840007EB80000D
:1011A00000F044FC641C202CF6D3234800F03EFCE5
:1011B0002148143000F03AFC1F48283000F036FC7B
:1011C0001D483C3000F032FC1B48503000F02EFC33
:1011D000194870631430B06305E03068E96AC06A8A
:1011E000884200D83560706A0121401C7062E86A4C
:1011F000326981401143316100EB800007EB8000D0
:10120000291D00F039FC00F07DFC706900280CD02D
:101210003068E96AC06A884207D208494FF08050B6
:101220000860BFF34F8FBFF36F8FBDE8F081000000
:1012300010000020E80000206803002004ED00E01A
:1012400010B500F025FC0E4C2068A0B90D4800F048
:10125000EDFB0C48143000F0E9FB0A48E060143064
:10126000206100220C210A2000F0ECFF206010B168
:1012700005A100F017FDBDE8104000F043BC0000E0
:101280004C000020CC030020546D7251000000007F
:1012900070B5124E124D1CE000F0EEFE306820B129
:1012A000002401F0A9FCA4B901E00124F9E700F051
:1012B000EFFBF068C468201D00F0A6FBA868401E84
:1012C000A8606868401E686000F01CFC204600F0C2
:1012D00052F868680028DFD170BD0000A403002028
:1012E0001000002030B4026C0B46002A0BD0C168FD
:1012F0001144C1604468A14201D30168C16030BC9F
:101300001846FEF7CBBF30BC70472DE9F041856B26
:10131000174604460026026C82B1C7B1E068FEF7AA
:10132000BDFFE168206C091AE1602268914202D297
:101330006168081AE060022F16D017E02068A8B98B
:10134000606801F0AFFB0646002060600EE0A06818
:10135000FEF7A4FF216CA0680844A0606168884281
:1013600004D32068A06001E005B16D1E6D1CA5636B
:101370003046BDE8F08110B50446006B00F0F2FB8A
:101380002046BDE8104000F0EDBB000010484FF4CF
:101390001041420706D0C01D0D4920F00700411A38
:1013A000C1F510410B4A00230144C2E9000308398A
:1013B000103A21F0070111604B600B600B1AC0E975
:1013C000001393604FF000405360D06070470000FE
:1013D000F40300207C000020074E4FF08054074D9E
:1013E000FFF756FF30680128FAD92C60BFF34F8F02
:1013F000BFF36F8FF4E70000E800002004ED00E089
:101400002DE9F047DDE909840E4682466FF00301BD
:10141000206B01EB82010844089D20F007079946E4
:10142000780705D040F22B3219A11FA0FFF728FD45
:1014300000202218315C82F83410315C11B1401C5C
:101440001028F6D3002684F84360202D00D31F25F2
:10145000E562C4E91156201D00F0F3FA04F118000A
:1014600000F0EFFA2461C5F120006462A061E66437
:1014700084F850604A465146384600F0AFFA206082
:10148000B8F1000F01D0C8F80040BDE8F0870000B7
:101490002E2E5C4672656552544F535C7372635CCA
:1014A0007461736B732E63004572726F723A2573A9
:1014B0002C25640D0A00000030B5114900E01146EA
:1014C0000A688242FBD34B685C18844203D14068AF
:1014D00018444860084643681C18944209D1084CD7
:1014E000103C2468A24209D052681A4442600A683B
:1014F00012680260814200D0086030BD0460F9E7E4
:101500007C00002070B5002441600B4D00619142C9
:1015100006D8D11A8269914206D2011D286907E0D6
:101520009A4203D2994201D3012403E0011DE868E5
:1015300000F08AFA204670BD4C00002010B5044629
:1015400000F0A6FAA06B20B1002400F0DBFA2046E0
:1015500010BD0124F9E70000F8B5054614480E4611
:10156000C068C068C468201D00F04EFAE069012818
:1015700017D1A0692B46411932462046FFF7C2FF1A
:1015800078B100200346014600902A46204601F02B
:101590001FFC30B907494FF4027201F11C00FFF73C
:1015A0006FFC616A01B02046BDE8F04008470000CA
:1015B0004C0000202C2D000870B586B02C4E4CE05D
:1015C0000198002849DB039C606910B1201D00F0E0
:1015D0001BFA04A800F0AAF8054601980A283CD294
:1015E000DFE800F00505053B273805053B27029895
:1015F000A169034601442A462046FFF783FF0028DD
:101600002BD0616A20468847E069012825D1002057
:1016100000900298A169002342181946204601F063
:10162000D7FBD0B940F2213212A119A0FFF728FC54
:1016300013E00298A06128B94FF44E720DA114A0D6
:10164000FFF71EFCA0692B4641191A462046FFF7FA
:1016500059FF02E0204600F085FA00231A4601A94E
:10166000306800F025FE0028AAD106B070BD000049
:101670004C0000202E2E5C4672656552544F535C20
:101680007372635C74696D6572732E630000000091
:101690004572726F723A25732C25640D0A000000A2
:1016A000F8B50D46064600F0E7FC684600F03EF847
:1016B0000446009810B101F09FFAF8BD1148ADB191
:1016C00001690968D9B10025311B2A46006800F07C
:1016D000FBFA01F091FA0028EFD10B494FF080504E
:1016E0000860BFF34F8FBFF36F8FF8BDA642EBD8F2
:1016F00001F082FA21463046FFF72EFFF8BD0125A2
:10170000E2E700004C00002004ED00E00648416BD9
:10171000096829B1416BC968C96849688162704725
:101720004FF0FF31FAE700001000002070B50546C9
:1017300001F0F6F8064E0446B068844203D200F089
:1017400009F8012000E0002028602046B46070BD48
:101750004C000020F8B5184E26E0C068C468056843
:10176000201D00F051F9616A20468847E069012890
:101770001AD1A0692844A84206D924616060211DBD
:10178000F06800F061F90FE0002003460146009088
:101790002A46204601F01CFB30B9084940F292323B
:1017A00001F11C00FFF76CFBF06801680029D4D13F
:1017B0003169C6E90310F8BD4C0000202C2D00084B
:1017C00008484068401C05D040F20F1206A110A046
:1017D000FFF756FB502080F31188BFF34F8FBFF304
:1017E0006F8FFEE7600000202E2E5C46726565520A
:1017F000544F535C706F72745C525644535C415248
:101800004D5F434D34465C706F72742E6300000070
:101810004572726F723A25732C25640D0A00000020
:10182000084CE068016839B1002139B10020FFF7A8
:1018300037FFFFF7C1FEF4E70121F6E7C068006853
:10184000F5E700004C0000202DE9F041044600F0CF
:101850001FF994F9455004F1240609E0606A48B183
:10186000304601F07BF908B100F0F0FA6D1E6DB260
:10187000002DF3DC4FF0FF3684F8456000F042F9AC
:1018800000F006F994F9445004F1100709E02069CA
:1018900048B1384601F062F908B100F0D7FA6D1E80
:1018A0006DB2002DF3DC84F84460BDE8F04100F037
:1018B00029B900002DE9F0410546002600F0DCFBC7
:1018C000324F386808B9FFF761FDF86805424FD11B
:1018D000002D4DD0083568070BD005F00700C0F18A
:1018E00008000544680704D0BF2229A131A0FFF7F2
:1018F000C7FA002D3CD07868854239D82349103189
:101900000846046801E0214604466068A84202D205
:1019100020680028F7D13868B846844228D00E687D
:101920002068086060680836401B10280ED96719C7
:10193000780704D0EC2216A11EA0FFF7A1FA606878
:10194000401B786038466560FFF7B6FD6168D8F8DF
:1019500004004246401AC8F80400D8F808309842FB
:1019600000D29060D8F80C0001430020C4E90001C7
:1019700001F042F9700705D04FF4967204A10DA052
:10198000FFF77EFA3046BDE8F08100006C000020D1
:101990002E2E5C4672656552544F535C706F7274A4
:1019A0005C4D656D4D616E675C686561705F342E7E
:1019B000630000004572726F723A25732C25640D26
:1019C0000A0000000449086818B10868826C521CBB
:1019D00082640868704700001000002010B5031FE3
:1019E0004FF080741C601B1F21F001011960191F4A
:1019F000044B0B6014390A60091F6FF0020244386F
:101A00000A6010BDC1170008D0E9013201699A606F
:101A1000D0E901235A604A68824201D182684A6053
:101A2000002202610868401E0860704700F108014A
:101A30004FF0FF32C0E90112C16001610021016075
:101A4000704700210161704730B50C68621C02D0FC
:101A500000F1080202E0026904E01A4653681D68BA
:101A6000A542FAD953684B6099608A605160086159
:101A70000168491C016030BD42684A6093688B6010
:101A800093685960916008610168491C0160704762
:101A9000502080F31188BFF34F8FBFF36F8F094938
:101AA0004868401C486001280AD10748006810F0C7
:101AB000FF0F05D040F2B91204A10EA0FFF7E0B964
:101AC000704700006000002004ED00E02E2E5C4610
:101AD00072656552544F535C706F72745C52564419
:101AE000535C41524D5F434D34465C706F72742EAF
:101AF000630000004572726F723A25732C25640DE5
:101B00000A00000010B5084C606828B94FF4E07274
:101B100006A110A0FFF7B4F96068401E606001D113
:101B200080F3118810BD0000600000202E2E5C465E
:101B300072656552544F535C706F72745C525644B8
:101B4000535C41524D5F434D34465C706F72742E4E
:101B5000630000004572726F723A25732C25640D84
:101B60000A00000070B500282AD0164DA0F1080424
:101B70006068E968084205D14FF4A07212A11BA069
:101B8000FFF77EF9206828B140F241120EA117A09C
:101B9000FFF776F96068E968084211D02268002AE8
:101BA0000ED18843606000F067FA60686968084495
:101BB00068602046FFF780FCBDE8704001F01CB86B
:101BC00070BD00006C0000202E2E5C4672656552D0
:101BD000544F535C706F72745C4D656D4D616E67F0
:101BE0005C686561705F342E630000004572726F3F
:101BF000723A25732C25640D0A00000006484FF444
:101C00007A710068B0FBF1F14FF0E020491E4161AC
:101C100007210161704700000000002010B5FEF7A9
:101C200027FB104C10280CD300F1E02090F8F003B3
:101C30002178884205D24FF440720BA114A0FFF71F
:101C40001FF917480068A16800F4E060884207D9CE
:101C5000BDE810404FF4447203A10DA0FFF710B986
:101C600010BD0000600000202E2E5C46726565529B
:101C7000544F535C706F72745C525644535C4152C3
:101C80004D5F434D34465C706F72742E63000000EC
:101C90004572726F723A25732C25640D0A0000009C
:101CA0000CED00E010B5074B002253F832401CB198
:101CB000521C0A2AF9D310BD43F8321003EBC201BB
:101CC000486010BD9800002070B515460E460446C9
:101CD000FFF7DEFE94F944100020491C01D184F87E
:101CE000440094F94510491C01D184F84500FFF7E0
:101CF00009FFA06B28B92A46314604F1240000F000
:101D0000D7F82046BDE87040FFF79EBD10B504002F
:101D100012D00E49096B29B140F2CF420CA112A09A
:101D2000FFF7AEF800F0A8F900212046FFF7E8F928
:101D300000F062FF002807D10F494FF08050086083
:101D4000BFF34F8FBFF36F8F10BD00001000002056
:101D50002E2E5C4672656552544F535C7372635C01
:101D60007461736B732E63004572726F723A2573E0
:101D70002C25640D0A00000004ED00E070B5044657
:101D8000FFF786FE234D04B92C68201DFFF73CFEAB
:101D900058B9E06A204A00EB800152F8211021B9BD
:101DA00001218140286988432861A06A18B104F1A3
:101DB0001800FFF729FE686A401C686228688442A0
:101DC00007D1211D1548FFF757FE6868401C686061
:101DD00007E0A868401EA8602046FFF7CCFAFFF78E
:101DE00095FCFFF78FFE6869002812D028688442AE
:101DF0000FD1286B28B140F2654209A10EA0FFF770
:101E00003FF811494FF080500860BFF34F8FBFF388
:101E10006F8F70BD10000020E8000020A403002098
:101E20002E2E5C4672656552544F535C7372635C30
:101E30007461736B732E63004572726F723A25730F
:101E40002C25640D0A00000004ED00E0014901208A
:101E5000C86170471000002070B50D46040005D120
:101E600040F6063207A10DA0FFF70AF80F480168F7
:101E700020461831FFF7E8FD2846BDE870400121F3
:101E8000FFF73EB92E2E5C4672656552544F535C87
:101E90007372635C7461736B732E63004572726F4F
:101EA000723A25732C25640D0A00000010000020F2
:101EB00070B514460E46050005D140F6313209A131
:101EC0000EA0FEF7DDFF1148016828461831FFF724
:101ED000D3FD0CB14FF0FF3621463046BDE87040CF
:101EE000FFF70EB92E2E5C4672656552544F535C57
:101EF0007372635C7461736B732E63004572726FEF
:101F0000723A25732C25640D0A0000001000002091
:101F100070B5040039D01D4DE06A2968C96A88424D
:101F200033D2A069002804DB2868C06AC0F1200011
:101F3000A061E06A164E00EB8000616906EB80004C
:101F400081421FD1201DFFF75FFD012150B9E06ADA
:101F500000EB800256F8222022B92A6901FA00F02B
:101F600082432A612868C06AE0622A69814011437D
:101F7000296100EB800006EB8000211DBDE8704068
:101F8000FFF77ABD2868C06AE06270BD10000020CB
:101F9000E800002010B5040005D140F6C13205A1CB
:101FA0000AA0FEF76DFF0D48016A2160C0686060FD
:101FB00010BD00002E2E5C4672656552544F535C76
:101FC0007372635C7461736B732E63004572726F1E
:101FD000723A25732C25640D0A00000010000020C1
:101FE0001CB517480024CDE900402346802215A1E6
:101FF000164800F0E5FB012803D100F0ADFE0128F2
:102000000AD0401C1BD102B040F28472BDE81040DF
:102010000FA115A0FEF734BF502080F31188BFF345
:102020004F8FBFF36F8F06484FF0FF312C3881621E
:1020300001214161C460BDE81C4000F065B81CBDD1
:102040003C00002049444C4500000000D913000822
:102050002E2E5C4672656552544F535C7372635CFE
:102060007461736B732E63004572726F723A2573DD
:102070002C25640D0A0000000248016B491C016315
:10208000704700001000002070B5134D286B10B190
:102090000120E86170BD0020E86128690F4EB0FAA8
:1020A00080F0C0F11F0000EB800456F8240028B92E
:1020B00040F6F6220AA110A0FEF7E2FE06EB84002D
:1020C00000F10802416849684160914201D14968C4
:1020D0004160C868286070BD10000020E800002042
:1020E0002E2E5C4672656552544F535C7372635C6E
:1020F0007461736B732E63004572726F723A25734D
:102100002C25640D0A0000001CB5304C20683049B5
:10211000884205D140F259122EA138A0FEF7B0FE38
:1021200020682B49491E884205D14FF4AD7229A180
:1021300032A0FEF7A5FE354C20780190FF202070DC
:1021400020788DF800009DF800009DF8001000F048
:10215000F000884205D040F273121EA127A0FEF7BE
:102160008FFE9DF800002A4A00F0500010700720F2
:10217000906007E09068401E90609DF8000040006D
:102180008DF800009DF800000006F3D4107A0002DC
:1021900000F4E0609060019820700C4820300168E5
:1021A00041F470010160016841F070410160FFF786
:1021B00025FD00205060FEF723F81648016841F025
:1021C00040410160FEF70CF800201CBD00ED00E06E
:1021D00071C20F412E2E5C4672656552544F535C9E
:1021E000706F72745C525644535C41524D5F434D64
:1021F00034465C706F72742E630000004572726F1B
:10220000723A25732C25640D0A00000000E400E0FA
:102210006000002034EF00E010B5502080F31188FA
:10222000BFF34F8FBFF36F8F00F080FB18B10449ED
:102230004FF080500860002080F3118810BD00002E
:1022400004ED00E070B50E46050005D14FF4C472F0
:102250000DA113A0FEF714FE96B105FB06F0483061
:10226000FFF728FB040009D004F1480120464EB1D5
:102270000160C0E90F56012100F0DEF8204670BD74
:102280000020ECE70060F4E72E2E5C467265655294
:10229000544F535C7372635C71756575652E630092
:1022A0004572726F723A25732C25640D0A00000086
:1022B0002DE9FF4F83B09B468A4604004FF000068D
:1022C00005D140F2DC4251A156A0FEF7D9FDBAF18A
:1022D000000F07D1206C28B140F2DD424BA151A084
:1022E000FEF7CEFD00F00EFB38B9059828B14FF48B
:1022F0009C6246A14BA0FEF7C3FD4FF000094FF0D2
:102300008057DFF83081FFF7C3FBA56B45B351461B
:102310002046E668FEF7E6FFBBF1000F13D0E6604B
:10232000606A50B104F1240000F018FC28B1C8F82C
:102330000070BFF34F8FBFF36F8FFFF7E3FB0120F8
:1023400007B0BDE8F08F6D1EA563206810B9FFF7D8
:1023500039FB606020690028EFD004F11000E3E74A
:10236000059808B11EB106E0FFF7CCFB27E06846F0
:10237000FFF710FE0126FFF7C5FBFFF77DFEFFF715
:1023800087FB94F94400401C01D184F8449094F9EF
:102390004500401C01D184F84590FFF7B3FB05A927
:1023A000684600F0C7F9002820460AD0FFF74CFA2B
:1023B00000F022FC2046FFF7C1F80028A3D000203F
:1023C000BEE7FFF7BBF8D8B1206830B9FFF760FB74
:1023D0006068FFF79DFDFFF795FB04F12400059968
:1023E000FFF73AFD2046FFF72FFA00F005FC002822
:1023F00089D1C8F80070BFF34F8FBFF36F8F82E7AA
:102400002046FFF721FA00F0F7FB7CE72E2E5C4612
:1024100072656552544F535C7372635C7175657578
:10242000652E63004572726F723A25732C25640D18
:102430000A00000004ED00E070B50D46040005D16F
:1024400040F21B121CA122A0FEF71AFDFFF720FB91
:10245000D4E90F20216802FB001161600021A16313
:102460002168A1600A46D4E90F01401E00FB01214A
:10247000E16021464FF0FF3001F8440F487004F14D
:1024800010004DB1FFF7D2FA04F12400FFF7CEFAA5
:10249000FFF738FB012070BD21690029F8D000F05A
:1024A0005DFB0028F4D00E494FF080500860BFF368
:1024B0004F8FBFF36F8FEBE72E2E5C467265655230
:1024C000544F535C7372635C71756575652E630060
:1024D0004572726F723A25732C25640D0A00000054
:1024E00004ED00E02DE9FF4F83B01F468B4604004A
:1024F0004FF0000605D140F2D9224DA152A0FEF7BF
:10250000BFFCBBF1000F07D1206C28B140F2DA22EA
:1025100047A14DA0FEF7B4FC022F08D1E06B0128C3
:1025200005D040F2DB2242A147A0FEF7A9FC00F053
:10253000E9F938B9059828B140F2DE223CA142A061
:10254000FEF79EFC4FF0000A4FF08058DFF808912C
:10255000FFF79EFAA06BE16B884205D3022F03D0F0
:102560000598C8B1DEB11EE03A4659462046FEF74E
:10257000CCFE616A19B104F1240000F0EFFA28B131
:10258000C9F80080BFF34F8FBFF36F8FFFF7BAFA20
:10259000012007B0BDE8F08FFFF7B4FA21E06846EC
:1025A000FFF7F8FC0126FFF7ADFAFFF765FDFFF72F
:1025B0006FFA94F94400401C01D184F844A094F9C6
:1025C0004500401C01D184F845A0FFF79BFA05A9FE
:1025D000684600F0AFF830B12046FFF735F900F05B
:1025E0000BFB0020D5E7FFF753FAA06BE16B8842A5
:1025F00001D1012500E00025FFF784FA95B104F12F
:1026000010000599FFF728FC2046FFF71DF900F0A0
:10261000F3FA00289CD1C9F80080BFF34F8FBFF3B5
:102620006F8F95E72046FFF70FF900F0E5FA8FE787
:102630002E2E5C4672656552544F535C7372635C18
:1026400071756575652E63004572726F723A2573F8
:102650002C25640D0A00000004ED00E02DE9F04790
:102660001F4690468946040005D140F29F3227A1BB
:102670002CA0FEF705FCB9F1000F07D1206C28B1A2
:102680004FF4687221A127A0FEF7FAFB022F08D1B0
:10269000E06B012805D040F2A1321CA121A0FEF779
:1026A000EFFBFFF7BBFA5020EFF3118680F31188A0
:1026B000BFF34F8FBFF36F8FA06BE16B884206D3E0
:1026C000022F04D0002086F31188BDE8F08794F92A
:1026D00045503A4649462046FEF717FE681C04D08E
:1026E0006D1C84F845500120EDE7606A0028FAD09F
:1026F00004F1240000F032FA0028F4D0B8F1000F01
:10270000F1D00121C8F80010EDE700002E2E5C4644
:1027100072656552544F535C7372635C7175657575
:10272000652E63004572726F723A25732C25640D15
:102730000A00000070B50D46040005D140F6CB320A
:1027400014A11AA0FEF79CFB2DB940F6CC3211A1C2
:1027500016A0FEF795FBFFF79BF9184AD068296889
:102760004B1C0FD02368126A934202D062688242E7
:102770000AD96268801A884206D2081A2860204660
:10278000FFF708FC002400E00124FFF7BBF9204616
:1027900070BD00002E2E5C4672656552544F535C2E
:1027A0007372635C7461736B732E63004572726F36
:1027B000723A25732C25640D0A00000010000020D9
:1027C0002DE9FF5F8346DDE90E87994616468A4666
:1027D0009000FFF76FF805001AD05420FFF76AF851
:1027E000040012D025630021CDE90241CDE9008724
:1027F0004B46324651465846FEF702FE2046FEF74B
:10280000B7FC012004B0BDE8F09F2846FFF7AAF905
:102810004FF0FF30F6E700002DE9F0411F469046EB
:102820000D4604004FF0010605D141F2FD0228A13A
:102830002DA0FEF725FBFFF72BF90FB1E06C3860F8
:1028400094F85000022184F85010B8F1050F0ED210
:10285000DFE808F00D03060C0A00E16C294301E0F3
:10286000E16C491CE16402E0022803D0E564012820
:1028700002D028E0002626E0201DFFF7C5F81E4DF7
:10288000E06A01212A698140114329611B4900EB5B
:10289000800001EB8000211DFFF7EEF8A06A28B14F
:1028A00041F235120AA110A0FEF7EAFAE06A29689F
:1028B000C96A884207D912494FF080500860BFF3B7
:1028C0004F8FBFF36F8FFFF71DF93046BDE8F081E2
:1028D0002E2E5C4672656552544F535C7372635C76
:1028E0007461736B732E63004572726F723A257355
:1028F0002C25640D0A00000010000020E8000020D4
:1029000004ED00E00548416919B1006B18B10020E1
:10291000704701207047022070470000100000201F
:102920000148C06870470000100000202DE9F04108
:102930002D4F0026386B40B1B869401CB861F8696A
:1029400000B101263046BDE8F081FD686D1CFD60D8
:1029500011D1786B006828B140F6D91223A129A0C3
:10296000FEF78EFA786BB96B7963B863386A401CEE
:102970003862FEF7CBFEB86ADFF89880854209D34B
:10298000786B006880B1786BC068C4686068854205
:102990000DD2B8623868C06A00EB800158F8210097
:1029A0000128CCD90126CAE74FF0FF30F1E7201DFE
:1029B000FFF72AF8A06A18B104F11800FFF724F80D
:1029C000E06A01213A6981401143396100EB8001DD
:1029D00008EB8100211DFFF74FF8E06A3968C96AEA
:1029E0008842CDD30126CBE7100000202E2E5C4676
:1029F00072656552544F535C7372635C7461736BA0
:102A0000732E63004572726F723A25732C25640D24
:102A10000A000000E80000202DE9F0411E4615469E
:102A200088460746FFF734F81C4C206890F85000A1
:102A3000022814D02068C16CB943C1642168012008
:102A400081F850005EB101213046FEF759FB144970
:102A50004FF080500860BFF34F8FBFF36F8FFFF7C9
:102A600051F8FFF715F815B12068C06C2860206890
:102A700090F8500001280ED02068C16C21EA0801AE
:102A8000C16401252168002081F85000FFF73AF861
:102A90002846BDE8F0810025F4E700001000002082
:102AA00004ED00E070B504004FF000063CD01F4D6F
:102AB0002868844205D040F6C7621DA122A0FEF717
:102AC000DFF9A06C28B940F6C96219A11EA0FEF773
:102AD000D7F9A06C401EA064626CE16A914223D0D9
:102AE00010BB201DFEF790FF1B49012250B9E06A80
:102AF00000EB800351F8233023B92B6902FA00F070
:102B000083432B61606CE062C0F12000A061E06A49
:102B10002B6982401A432A6100EB800001EB8000A0
:102B2000211DFEF7A9FF0126304670BD10000020D0
:102B30002E2E5C4672656552544F535C7372635C13
:102B40007461736B732E63004572726F723A2573F2
:102B50002C25640D0A000000E80000202DE9F0415A
:102B6000C068C4682CB940F6613216A11BA0FEF7FC
:102B700087F904F118000746FEF746FF1B4D286B46
:102B8000012660B139461A48FEF776FFE06A2968E7
:102B9000C96A884213D90120EE61BDE8F081201D89
:102BA000FEF732FFE06A2A6906FA00F11143296153
:102BB000104900EB800001EB8000211DE4E70020BC
:102BC000EBE700002E2E5C4672656552544F535C55
:102BD0007372635C7461736B732E63004572726F02
:102BE000723A25732C25640D0A00000010000020A5
:102BF00090030020E80000202DE9F0472B4D002431
:102C00002746286B28B94FF4FD6229A12EA0FEF7B4
:102C100037F9FEF73DFF286B401E2863286BE8BBA1
:102C2000A8682D490126C8B3A1F52A798846D8F8A5
:102C30000010E9B1D8F80C00C46804F11800FEF7E0
:102C4000E3FE201DFEF7E0FEE06A2A6906FA00F1C5
:102C50001143296100EB800109EB8100211DFEF782
:102C60000BFFE06A2968C96A8842E0D3EE61DEE7BB
:102C70000CB1FEF74BFDAC693CB1FFF757FE00B15C
:102C8000EE61641EF9D10020A861E86930B11349F2
:102C9000012738070860BFF34F8F00E001E0BFF362
:102CA0006F8FFEF72FFF3846BDE8F0871000002039
:102CB0002E2E5C4672656552544F535C7372635C92
:102CC0007461736B732E63004572726F723A257371
:102CD0002C25640D0A0000009003002004ED00E0A4
:102CE0002DE9F0470746994616460D462820DDF89F
:102CF00020A0FEF7DFFD040014D0B8464F46D146B1
:102D00002DB94FF4C67209A10FA0FEF7B9F8FEF76E
:102D100097FA04F11801C4F8008081E8E002201D50
:102D2000FEF78FFE2046BDE8F08700002E2E5C46A1
:102D300072656552544F535C7372635C74696D6560
:102D400072732E63000000004572726F723A257331
:102D50002C25640D0A0000001CB50024FEF770FA53
:102D60000C48006868B10B491F20091DCDE900011E
:102D700000234FF4807208A10948FFF721FD0400E9
:102D800005D140F2331207A10DA0FEF779F82046D5
:102D90001CBD00004C000020546D7220537663006F
:102DA000211800082E2E5C4672656552544F535C04
:102DB0007372635C74696D6572732E63000000004A
:102DC0004572726F723A25732C25640D0A0000005B
:102DD0002DE9FE4FDDF830A0994690460D460600DD
:102DE0004FF0000705D14FF4D37211A117A0FEF7E1
:102DF00047F81A4C206880B1CDE900580296062D9C
:102E000010DAFFF77FFD02284FF0000308D0002200
:102E100069462068FFF766FB07463846BDE8FE8F27
:102E20005246F5E700234A466946FFF717FCF3E7E9
:102E30002E2E5C4672656552544F535C7372635C10
:102E400074696D6572732E63000000004572726FC5
:102E5000723A25732C25640D0A0000004C000020F6
:102E60000000000001020304882E0008000000207A
:102E700098000000C00E0008202F000898000020D5
:102E8000A0970000D00E00080024F400010000000C
:102E90001000000000000000000000000000000022
:102EA0000000000000000000000000000000000022
:102EB0000000000000000000000000000000000012
:102EC0000000000000000000000000000000000002
:102ED00000000000000000000000000000000000F2
:102EE000000000000000000000000000AAAAAAAA3A
:102EF00000000000000000000000000000000000D2
:102F000000000000000000000000000000000000C1
:102F100000000000000000000000000000000000B1
:04000005080001AD41
:00000001FF
