:020000040800F2
:10000000A8970020790200082F0A0008FB080008C2
:100010002D0A0008D9030008DF0E000800000000C8
:10002000000000000000000000000000C101000806
:10003000190400080000000015020008690B000800
:10004000930200089302000893020008930200083C
:10005000930200089302000893020008930200082C
:10006000930200089302000893020008930200081C
:10007000930200089302000893020008930200080C
:1000800093020008930200089302000893020008FC
:1000900093020008930200089302000893020008EC
:1000A00093020008930200089302000893020008DC
:1000B00093020008930200089302000893020008CC
:1000C00093020008930200089302000893020008BC
:1000D00093020008930200089302000893020008AC
:1000E000930200089302000893020008930200089C
:1000F000930200089302000893020008930200088C
:1001000093020008950A0008930200089302000871
:10011000930200089302000893020008930200086B
:1001200093020008930200089302000815040008D7
:10013000930200089302000893020008930200084B
:10014000930200089302000893020008930200083B
:1001500093020008170400089302000893020008A5
:10016000930200089302000893020008930200081B
:1001700093020008930200089302000800000000A8
:1001800093020008930200089302000893020008FB
:1001900093020008930200089302000893020008EB
:1001A000930200089302000893020008DFF80CD0C5
:1001B00000F09CF80048004711110008A8970020A3
:1001C0002A4B19680868B0E8F04F80F30988BFF33C
:1001D0006F8F4FF0000080F311887047000000001F
:1001E00006480068006880F3088862B661B6BFF30D
:1001F0004F8FBFF36F8F00DF00BF00BF08ED00E03F
:10020000DFF80C00016841F470010160704700BF25
:1002100088ED00E0EFF30980BFF36F8F134B1A688E
:100220001EF0100F08BF20ED108A20E9F04F10607B
:1002300008B44FF0500080F31188BFF34F8FBFF325
:100240006F8F01F0CFFC4FF0000080F3118808BCE5
:1002500019680868B0E8F04F1EF0100F08BFB0EC46
:10026000108A80F30988BFF36F8F70471000002059
:10027000EFF30580704700000648804706480047B6
:10028000FEE7FEE7FEE7FEE7FEE7FEE7FEE7FEE746
:10029000FEE7FEE77D0B0008AD01000840EA010320
:1002A0009B0703D009E008C9121F08C0042AFAD22C
:1002B00003E011F8013B00F8013B521EF9D27047F0
:1002C00030B50B46014600202022012409E021FA26
:1002D00002F59D4205D303FA02F5491B04FA02F523
:1002E0002844151EA2F10102F1DC30BD064C074D79
:1002F00006E0E06840F0010394E8070098471034F6
:10030000AC42F6D3FFF756FF142500083425000849
:100310007CB501F059FA15A000F0E2FD032200219E
:10032000012001F03DFD184C002304F1080120607C
:1003300008208501CDE900012A4614A1164801F0E4
:1003400073FF04F10C010720CDE9000100232A46C8
:1003500012A1164801F068FF15A000F0C1FD606809
:1003600001F030FBBDE87C4001F068BAB4B4BDA830
:10037000B6FED6B5D0C5BAC5C1BFBCB0C8CECEF1E9
:10038000D6D02E2E2E2E0A007000002053656E64EB
:100390005F5461736B000000990A00085265636541
:1003A0006976655F5461736B00000000310A0008D4
:1003B000B4B4BDA8CDEAB3C92E2E2E2E0AB0B4CF48
:1003C000C25550BCFCCACDB7C5B6FED6B5D0C5BA6D
:1003D000C5C1BF2E2E2E0A00FEE7000010B50C4C42
:1003E0000A4820604FF4E13060600020A060E060C7
:1003F0002061A0610C206061204600F0ADF920680A
:10040000C16841F02001C16010BD00000010014032
:100410006893002070477047704700002DE9F84F3F
:10042000DFF88C91002209F1040A0AF1040B4FF065
:100430000F080BF1040E01260B6896403340B342BF
:1004400071D14C68022C01D0122C11D1D40800EBD0
:1004500084073D6A5407E40E08FA04FC25EA0C05FB
:10046000D1F810C00CFA04FC4CEA050CC7F820C007
:1004700007685400032591F804C0A5400CF0030C54
:10048000AF430CFA04FC4CEA070CC0F800C04F68FC
:10049000012F05D0022F03D0112F01D0122F11D11F
:1004A0008768D1F80CC0AF430CFA04FC4CEA070C87
:1004B000C0F808C04768B7430E79C6F300169640E7
:1004C0003E434660C668AE438D68A5403543C5606F
:1004D0004C68E40065D5374C256845F480452560B7
:1004E000246822F0030504F480440094324C2E1951
:1004F000D6F808789407250F08FA05F4A7432F4C7F
:10050000A04201D1002424E02D4CA04201D10124BD
:100510001FE02C4CA04201D102241AE02A4CA04238
:1005200002D1032415E03CE0284CA04201D1042470
:100530000FE0274CA04201D105240AE0254CA0423F
:1005400001D1062405E0244CA04201D1072400E09B
:100550000824AC403C43C6F80848D9F800404D4652
:100560004E689C43F60300D51C432C60DAF800402B
:1005700055464E689C43B60300D51C432C60DBF8FF
:1005800000405D464E689C43F60200D51C432C603B
:10059000DEF8004075464E689C43B60200D51C4309
:1005A0002C60521C102AFFF446AFBDE8F88F000003
:1005B000003C01404438024000300140000002404D
:1005C0000004024000080240000C024000100240FB
:1005D0000014024000180240001C0240006908405C
:1005E00000D0012070470AB1816170470904FBE720
:1005F0000148806870470000040000200B4810B5D7
:10060000016841F400710160016841F4806101609A
:10061000016841F480710160032000F057F80F2059
:1006200000F006F800F024F8002010BD003C024065
:1006300070B50D4D04464FF47A712878B1FBF0F097
:100640000A490968B1FBF0F000F072F848B9102CC3
:1006500007D200222146501E00F018F800206C60DE
:1006600070BD012070BD00000400002000000020CB
:100670007047002809DB00F01F020121914040096A
:10068000800000F1E020C0F800117047F0B40E4B7C
:100690001B68C3F30223C3F10704042C00D904240C
:1006A0001D1D072D01D2002300E0DB1E012606FAE6
:1006B00004F56D1E0D409D409E40761E164045EA95
:1006C0000601F0BC00F01CBC0CED00E0064A00F096
:1006D000070110684FF6FF03184040EA0120034964
:1006E00008431060704700000CED00E00000FA05C0
:1006F0000448054900680968044AC1F38221515C35
:10070000C840704700000020083802400C2500084F
:100710000448054900680968044AC1F34231515C44
:10072000C840704700000020083802400C2500082F
:1007300010B5401EB0F1807F01D3012010BD4FF0F5
:10074000E02460610F21601700F0DAFB0020A06157
:1007500007202061002010BD70B5040004D094F87B
:100760003900002510B106E0012070BD84F8385032
:10077000204600F023F8242084F839002068C1685E
:1007800021F40051C160204600F022FA206801697E
:1007900021F4904101612068416921F02A01416101
:1007A0002068C16841F40051C160E563202084F8ED
:1007B000390084F83A00002070BD000030B51E48B2
:1007C00087B0016841F010010160006800F010007E
:1007D000059019481438016841F001010160016871
:1007E00001F001010591016841F00101016000681B
:1007F000072400F0010005904FF4007000900220E3
:100800000190012002900320CDE903040B4D6946BD
:100810002846FFF703FE29150091049469462846EF
:10082000FFF7FCFD012200212520FFF72FFF2520E7
:10083000FFF71FFF07B030BD443802400000024000
:100840002DE9F843044690F839001E4617460D4638
:10085000202850D1A5B19FB194F8380001284AD082
:10086000012084F838004FF00008C4F83C802120B3
:1008700084F83900FFF7BCFEA7848146E78426E0B0
:100880000120BDE8F883E08C401EE084A0684B4660
:10089000B0F5805F4FF000024FF0800120460096D7
:1008A00003D000F0EBFAE8B90DE000F0E7FAC8B9C0
:1008B00028882168C0F308004860206908B16D1CD1
:1008C00005E0AD1C03E0216815F8010B4860E08CE1
:1008D0000028D8D14B46002240212046009600F047
:1008E000CDFA08B10320CCE7202084F8390084F841
:1008F00038800020C5E70220C3E7FEE770B519483D
:1009000086B00024016841F001010160016801F036
:1009100001010591016841F0100101600068124D6C
:1009200000F010000590224601212846FFF75BFEEB
:100930000E4E01221C213046FFF755FE1C20CDE94A
:10094000000401240320CDE9024069463046FFF748
:1009500065FD02200290694600942846FFF75EFD7F
:1009600006B070BD30380240000002400010024066
:1009700070B504460E480D468442204609D1FFF763
:100980002DFE50B929462046FFF728FE0028F9D051
:100990000BE0FFF723FE012801D0002070BD29469F
:1009A0002046FFF71BFE0128F9D0012070BD000092
:1009B00000100240084B30B161B100224FF4806159
:1009C0001846FFF710BE19B100224FF40071F7E787
:1009D0000122FAE70122F1E700140240114810B5A4
:1009E000016886B041F02001016000680E4C00F003
:1009F000200005904FF4C06000900120019002900B
:100A00000320039069462046FFF708FD01225102AA
:100A10002046FFF7E8FD012291022046FFF7E3FDA3
:100A200006B010BD3038024000140240FEE77047A7
:100A3000104C4FF0FF3500232A461946206801F07C
:100A4000E5F900231A461946206801F0EBFA012166
:100A50000020FFF7AFFFC82000F07CFF0021084610
:100A6000FFF7A8FFC82000F075FF03A000F038FAD8
:100A7000E1E7000070000020526563656976655FFC
:100A80005461736B20D5FDD4DAD4CBD0D0D6D02E20
:100A90002E2E0A0070470000134D144C4FF0FF3605
:100AA00001212846FFF764FF012818D100231A46C8
:100AB0001946206801F0B6FA012808D00023324612
:100AC0001946206801F0A2F9012805D007E008A026
:100AD00000F006FA0CA000E018A000F001FA1E20B9
:100AE00000F038FFDCE7000000000240700000204A
:100AF000B6FED6B5D0C5BAC5C1BFCACDB7C5B3C994
:100B0000B9A62E2E2E0A0000526563656976655FD0
:100B10005461736B20C8CECEF1BDABD2BBD6B1D47D
:100B2000CBD0D0A3ACD4D9B4CEB0B4CFC2D6D0D66B
:100B3000B9D4CBD0D02E2E2E0A000000B3C9B9A64E
:100B4000B0FEB6E1206E526563656976655F5461FB
:100B5000736B20C8CECEF1B5C4B6FED6B5D0C5BA3B
:100B6000C5C1BF2E2E2E0A0010B501F089FB012849
:100B700003D0BDE8104001F0FDB810BD1048016879
:100B800041F4700101600F48016841F0010101600A
:100B90000C4A00210832116002680B4B1A400260B7
:100BA000031D0A4A1A60026822F480220260054886
:100BB0000C30016002495806803908607047000017
:100BC00088ED00E000380240FFFFF6FE1030002400
:100BD0002DE9F041044600680169E26821F44051C2
:100BE00011430161A1682069E26901436069104312
:100BF00001432068C26849F20C639A430A43C26009
:100C000020684169A26921F4407111434161E069A2
:100C10006425B0F5004F974A974920684FF0320895
:100C20003FD0884201D090427CD1FFF771FD00EBAC
:100C3000C00101EB001061688900B0FBF1F6FFF71D
:100C400067FD00EBC00101EB001061688900B0FB9B
:100C5000F1F0B0FBF5F06FF01801484306EB8001AE
:100C600008EB0110B0FBF5F000F0F006FFF750FDC7
:100C700000EBC00101EB001061688900B0FBF1F0EE
:100C8000B0FBF5F006EB0016FFF742FD00EBC001EC
:100C900001EB001061688900B0FBF1F7FFF738FD48
:100CA000D2E0884201D090423DD1FFF731FD00EB08
:100CB000C00101EB001061684900B0FBF1F0B0FB2E
:100CC000F5F00601FFF724FD00EBC00101EB001079
:100CD00061684900B0FBF1F7FFF71AFD00EBC001B6
:100CE00001EB001061684900B0FBF1F0B0FBF5F0DA
:100CF0006FF01801484307EB800108EBC100B0FB1F
:100D0000F5F000F0F80006EB4006FFF701FD00EB00
:100D1000C00101EB001061684900B0FBF1F7FFF77B
:100D2000F7FC3CE055E0FFF7E3FC00EBC00101EB12
:100D3000001061684900B0FBF1F0B0FBF5F006016E
:100D4000FFF7D6FC00EBC00101EB00106168490021
:100D5000B0FBF1F7FFF7CCFC00EBC00101EB00109A
:100D600061684900B0FBF1F0B0FBF5F06FF01801DD
:100D7000484307EB800108EBC100B0FBF5F000F041
:100D8000F80006EB4006FFF7B3FC00EBC00101EBF7
:100D9000001061684900B0FBF1F7FFF7A9FC00EB18
:100DA000C00101EB001061684900B0FBF1F0B0FB3D
:100DB000F5F06FF01801484307EB800108EBC10024
:100DC000B0FBF5F000F00700216830448860BDE812
:100DD000F081FFF78DFC00EBC00101EB00106168B2
:100DE0008900B0FBF1F6FFF783FC00EBC00101EBDB
:100DF000001061688900B0FBF1F0B0FBF5F06FF016
:100E00001801484306EB800108EB0110B0FBF5F038
:100E100000F0F006FFF76CFC00EBC00101EB0010E6
:100E200061688900B0FBF1F0B0FBF5F006EB00164D
:100E3000FFF75EFC00EBC00101EB00106168890068
:100E4000B0FBF1F7FFF754FC00EBC00101EB001021
:100E500061688900B0FBF1F0B0FBF5F06FF01801AC
:100E6000484307EB800108EB0110B0FBF5F000F000
:100E70000F00A9E700140140001001402DE9F041E6
:100E80001E46174688460446069D1CE0681C1AD07C
:100E900025B1FFF7ADFB801BA84214D92068C168BB
:100EA00021F4D071C1602068416921F001014161E4
:100EB000202084F8390084F83A00002084F83800B3
:100EC0000320BDE8F0812068016838EA010004D001
:100ED0000020B842DAD00020F3E70120F9E7FEE76E
:100EE0000FB4054B10B503A9044A029800F028F886
:100EF00010BC5DF814FB0000F91000088000002011
:100F00000907090E002804DB00F1E02080F8001436
:100F1000704700F00F0000F1E02080F8141D7047CA
:100F200002E008C8121F08C1002AFAD170477047B2
:100F3000002001E001C1121F002AFBD17047000010
:100F40002DE9FF4F8BB09A460F460546002606E076
:100F500025280BD052460D9990476D1C761C287899
:100F60000028F5D10FB03046BDE8F08F0024A04630
:100F70000122604900E0044315F8013F203B02FADA
:100F800003F00842F7D128782E2817D115F8010F61
:100F900044F004042A280ED06FF02F022878A0F124
:100FA000300109290AD808EB880102EB410100EB66
:100FB00001086D1CF2E757F8048B6D1C287869282E
:100FC0003ED006DC0028CDD063280BD0642804D1A5
:100FD00036E0732810D075284BD052460D999047B3
:100FE000761C85E017F8040B8DF8000000208DF8C2
:100FF0000100E946012003E057F8049B4FF0FF3061
:1010000061074FF0000401D40AE0641C44450DDA86
:101010008442FADB19F804100029F6D106E0641CBA
:101020008442FCDB19F804100029F8D1264404E0BE
:1010300019F8010B52460D999047641EF8D257E0FB
:1010400001CF4FF00A0B002802DA40422D2102E0C6
:10105000210504D52B218DF82410012103E0E1079F
:1010600005D02021F7E70DF1200908910CE00021BF
:10107000F9E701CF4FF00A0BF9E75946FFF720F9DE
:1010800001F1300209F8012D0028F6D1ADEB09007D
:1010900000F1200B600701D44FF00108D84502DDB4
:1010A000A8EB0B0000E000208046002406E009A821
:1010B0005246005D0D999047641C761C0898844246
:1010C000F5DB04E0302052460D999047761CB8F1CC
:1010D0000001A8F10108F5DC05E019F8010B524602
:1010E0000D999047761CBBF10001ABF1010BF4DCCC
:1010F0006D1C34E70928010013B54FF47A730122FF
:1011000069460248FFF79CFB00981CBD68930020CD
:101110001CB5FFF773FAFFF7F1FBFFF75FFCFFF772
:101120005DF909490520CDE9000100234FF4007263
:1011300006A10A4801F078F8012801D000201CBD62
:1011400000F000FDFEE700007400002041707054C4
:1011500061736B43726561746500000011030008E0
:101160002DE9F041184E0F460446F5683068001D21
:1011700000F0E6FA38B9306890F82C100120884069
:10118000316981433161601C07D137B13168BDE8F5
:10119000F0410E48091D00F00BBB30682C44AC42F6
:1011A0004460316805D2B06BBDE8F041091D00F024
:1011B000E7BA706B091D00F0E3FAB06A844200D20E
:1011C000B462BDE8F081000010000020540300204C
:1011D0002DE9F041054600F0F7FA2D4EB068401CAD
:1011E000B06030682B4F10B1706930B32BE03560C0
:1011F000B068012827D1002404EB840007EB8000AD
:1012000000F0B0FA641C202CF6D3234800F0AAFAB0
:101210002148143000F0A6FA1F48283000F0A2FA46
:101220001D483C3000F09EFA1B48503000F09AFAFE
:10123000194870631430B06305E03068E96AC06A29
:10124000884200D83560706A0121401C7062E86AEB
:10125000326981401143316100EB800007EB80006F
:10126000291D00F0A5FA00F0E9FA706900280CD0F9
:101270003068E96AC06A884207D208494FF0805056
:101280000860BFF34F8FBFF36F8FBDE8F0810000A0
:1012900010000020840000200403002004ED00E082
:1012A00070B5124E124D1CE000F094FC306820B175
:1012B000002401F0B7F8A4B901E00124F9E700F037
:1012C00083FAF068C468201D00F03AFAA868401E4E
:1012D000A8606868401E686000F0B0FA204600F020
:1012E00049F868680028DFD170BD00004003002085
:1012F0001000002030B4026C0B46002A0BD0C168ED
:101300001144C1604468A14201D30168C16030BC8E
:101310001846FEF7C3BF30BC70472DE9F041856B1E
:10132000164604460027026CFAB17EB1E068FEF76B
:10133000B5FFE168206C091AE1602268914202D28F
:101340006168081AE060022E0DD00EE0A068FEF77A
:10135000A5FF216CA0680844A0606168884204D39E
:101360002068A06001E005B16D1E6D1CA5633846C4
:10137000BDE8F08110B50446006B00F08FFA2046FE
:10138000BDE8104000F08ABA10484FF410414207FF
:1013900006D0C01D0D4920F00700411AC1F51041CB
:1013A0000B4A00230144C2E900030839103A21F036
:1013B000070111604B600B600B1AC0E900139360CA
:1013C0004FF000405360D060704700006803002079
:1013D00068000020074E4FF08054074DFFF760FF74
:1013E00030680128FAD92C60BFF34F8FBFF36F8F9D
:1013F000F4E700008400002004ED00E02DE9F04750
:10140000DDE909840E4682466FF00301206B01EB93
:1014100082010844089D20F007079946780705D007
:1014200040F22B3218A11EA0FFF75AFD002022180F
:10143000315C82F83410315C11B1401C1028F6D3B5
:10144000002684F84360202D00D31F25201DE5626F
:1014500000F093F904F1180000F08FF92461C5F150
:1014600020006462A061666484F848604A46514680
:10147000384600F04FF92060B8F1000F01D0C8F8ED
:101480000040BDE8F08700002E2E5C467265655274
:10149000544F535C7372635C7461736B732E63009F
:1014A0004572726F723A25732C25640D0A00000094
:1014B00030B5114900E011460A688242FBD34B68FF
:1014C0005C18844203D14068184448600846436869
:1014D0001C18944209D1084C103C2468A24209D03F
:1014E00052681A4442600A6812680260814200D061
:1014F000086030BD0460F9E76800002010B50446BC
:1015000000F062F9A06B20B1002400F097F92046AA
:1015100010BD0124F9E700000648416B096829B1B4
:10152000416BC968C9684968816270474FF0FF31F3
:10153000FAE700001000002008484068401C05D071
:1015400040F20F1206A110A0FFF7CAFC502080F352
:101550001188BFF34F8FBFF36F8FFEE74C00002061
:101560002E2E5C4672656552544F535C706F7274D8
:101570005C525644535C41524D5F434D34465C705F
:101580006F72742E630000004572726F723A257399
:101590002C25640D0A0000002DE9F041044600F0FE
:1015A00013F994F9455004F1240609E0606A48B142
:1015B000304600F0E9FE08B100F06CFA6D1E6DB225
:1015C000002DF3DC4FF0FF3684F8456000F036F96B
:1015D00000F0FAF894F9445004F1100709E020698A
:1015E00048B1384600F0D0FE08B100F053FA6D1E45
:1015F0006DB2002DF3DC84F84460BDE8F04100F0EA
:101600001DB900002DE9F0410546002600F0E2FA80
:10161000324F386808B9FFF7B7FEF86805424FD176
:10162000002D4DD0083568070BD005F00700C0F13C
:1016300008000544680704D0BF2229A131A0FFF7A4
:101640004FFC002D3CD07868854239D823491031B1
:101650000846046801E0214604466068A84202D2B8
:1016600020680028F7D13868B846844228D00E6830
:101670002068086060680836401B10280ED967197A
:10168000780704D0EC2216A11EA0FFF729FC6068A1
:10169000401B786038466560FFF70AFF6168D8F83C
:1016A00004004246401AC8F80400D8F808309842AE
:1016B00000D29060D8F80C0001430020C4E900017A
:1016C00000F0B0FE700705D04FF4967204A10DA093
:1016D000FFF706FC3046BDE8F0810000580000200E
:1016E0002E2E5C4672656552544F535C706F727457
:1016F0005C4D656D4D616E675C686561705F342E31
:10170000630000004572726F723A25732C25640DD8
:101710000A00000010B5031F4FF080741C601B1FEF
:1017200021F001011960191F044B0B6014390A6084
:10173000091F6FF0020244380A6010BD3915000815
:10174000D0E9013201699A60D0E901235A604A6800
:10175000824201D182684A60002202610868401E0C
:101760000860704700F108014FF0FF32C0E9011234
:10177000C160016100210160704700210161704773
:1017800030B50C68621C02D000F1080202E0026968
:1017900004E01A4653681D68A542FAD953684B60A5
:1017A00099608A60516008610168491C016030BD20
:1017B00042684A6093688B609368596091600861E1
:1017C0000168491C01607047502080F31188BFF305
:1017D0004F8FBFF36F8F09494868401C486001284C
:1017E0000AD10748006810F0FF0F05D040F2B91287
:1017F00004A10EA0FFF774BB704700004C0000204E
:1018000004ED00E02E2E5C4672656552544F535C29
:10181000706F72745C525644535C41524D5F434D3D
:1018200034465C706F72742E630000004572726FF4
:10183000723A25732C25640D0A00000010B5084C7F
:10184000606828B94FF4E07206A110A0FFF748FBCA
:101850006068401E606001D180F3118810BD0000F7
:101860004C0000202E2E5C4672656552544F535C2E
:10187000706F72745C525644535C41524D5F434DDD
:1018800034465C706F72742E630000004572726F94
:10189000723A25732C25640D0A00000070B50028EB
:1018A0002AD0164DA0F108046068E968084205D105
:1018B0004FF4A07212A11BA0FFF712FB206828B101
:1018C00040F241120EA117A0FFF70AFB6068E96819
:1018D000084211D02268002A0ED18843606000F0CF
:1018E00079F960686968084468602046FFF7E0FDA0
:1018F000BDE8704000F096BD70BD000058000020AB
:101900002E2E5C4672656552544F535C706F727434
:101910005C4D656D4D616E675C686561705F342E0E
:10192000630000004572726F723A25732C25640DB6
:101930000A00000006484FF47A710068B0FBF1F12C
:101940004FF0E020491E416107210161704700000E
:101950000000002010B5040012D00E49096B29B117
:1019600040F2CF420CA112A0FFF7BAFA00F032F910
:1019700000212046FFF7F4FB00F054FD002807D1BA
:101980000F494FF080500860BFF34F8FBFF36F8F48
:1019900010BD0000100000202E2E5C4672656552BE
:1019A000544F535C7372635C7461736B732E63008A
:1019B0004572726F723A25732C25640D0A0000007F
:1019C00004ED00E070B50446FFF7FEFE234D04B9B8
:1019D0002C68201DFFF7B4FE58B9E06A204A00EBDE
:1019E000800152F8211021B90121814028698843E2
:1019F0002861A06A18B104F11800FFF7A1FE686A17
:101A0000401C68622868844207D1211D1548FFF7F1
:101A1000CFFE6868401C686007E0A868401EA860A8
:101A20002046FFF7A7FCFFF777FDFFF707FF686980
:101A3000002812D0286884420FD1286B28B140F2C8
:101A4000654209A10EA0FFF74BFA11494FF08050F3
:101A50000860BFF34F8FBFF36F8F70BD1000002081
:101A600084000020400300202E2E5C4672656552E3
:101A7000544F535C7372635C7461736B732E6300B9
:101A80004572726F723A25732C25640D0A000000AE
:101A900004ED00E001490120C861704710000020FA
:101AA00070B50D46040005D140F6063207A10DA021
:101AB000FFF716FA0F48016820461831FFF760FE5D
:101AC0002846BDE870400121FFF74ABB2E2E5C4638
:101AD00072656552544F535C7372635C7461736BCF
:101AE000732E63004572726F723A25732C25640D54
:101AF0000A0000001000002010B5040005D140F6D7
:101B0000C13205A10AA0FFF7EBF90D48016A216077
:101B1000C068606010BD00002E2E5C467265655284
:101B2000544F535C7372635C7461736B732E630008
:101B30004572726F723A25732C25640D0A000000FD
:101B4000100000201CB515480024CDE900402346B4
:101B5000802213A1144800F067FB01280AD0401C22
:101B60001BD102B040F28472BDE810400FA115A055
:101B7000FFF7B6B9502080F31188BFF34F8FBFF342
:101B80006F8F06484FF0FF312C388162012141618F
:101B9000C460BDE81C4000F065B81CBD3C000020DE
:101BA00049444C4500000000D51300082E2E5C4629
:101BB00072656552544F535C7372635C7461736BEE
:101BC000732E63004572726F723A25732C25640D73
:101BD0000A0000000248016B491C016370470000C5
:101BE0001000002070B5134D286B10B10120E86182
:101BF00070BD0020E86128690F4EB0FA80F0C0F196
:101C00001F0000EB800456F8240028B940F6F622A5
:101C10000AA110A0FFF764F906EB840000F10802A6
:101C2000416849684160914201D149684160C86892
:101C3000286070BD10000020840000202E2E5C461D
:101C400072656552544F535C7372635C7461736B5D
:101C5000732E63004572726F723A25732C25640DE2
:101C60000A0000001CB5304C20683049884205D17C
:101C700040F259122EA138A0FFF732F920682B4903
:101C8000491E884205D14FF4AD7229A132A0FFF759
:101C900027F9354C20780190FF20207020788DF8AE
:101CA00000009DF800009DF8001000F0F000884250
:101CB00005D040F273121EA127A0FFF711F99DF87D
:101CC00000002A4A00F0500010700720906007E0E2
:101CD0009068401E90609DF8000040008DF8000064
:101CE0009DF800000006F3D4107A000200F4E060D2
:101CF0009060019820700C482030016841F4700118
:101D00000160016841F070410160FFF713FE00209F
:101D10005060FEF775FA1648016841F040410160D5
:101D2000FEF75EFA00201CBD00ED00E071C20F411D
:101D30002E2E5C4672656552544F535C706F727400
:101D40005C525644535C41524D5F434D34465C7087
:101D50006F72742E630000004572726F723A2573C1
:101D60002C25640D0A00000000E400E04C00002077
:101D700034EF00E010B5502080F31188BFF34F8F8F
:101D8000BFF36F8F00F08AFA18B104494FF080500A
:101D90000860002080F3118810BD000004ED00E011
:101DA00070B50E46050005D14FF4C4720DA113A005
:101DB000FFF796F896B105FB06F04830FFF722FCD6
:101DC000040009D004F1480120464EB10160C0E989
:101DD0000F56012100F0D0F8204670BD0020ECE73E
:101DE0000060F4E72E2E5C4672656552544F535CDA
:101DF0007372635C71756575652E63004572726FF1
:101E0000723A25732C25640D0A0000002DE9FF4F5E
:101E100083B09B468A4604004FF0000605D140F28D
:101E2000DC424AA14FA0FFF75BF8BAF1000F07D1DF
:101E3000206C28B140F2DD4244A14AA0FFF750F8DF
:101E400000F01EFA38B9059828B14FF49C623FA102
:101E500044A0FFF745F84FF000094FF08057DFF836
:101E60001481FFF7B1FCA56B1DB351462046E6680F
:101E7000FFF740FABBF1000F13D0E660606A50B183
:101E800004F1240000F080FA28B1C8F80070BFF314
:101E90004F8FBFF36F8FFFF7D1FC012007B0BDE874
:101EA000F08F6D1EA56320690028F4D004F11000A6
:101EB000E8E7059808B11EB106E0FFF7BFFC27E090
:101EC0006846FFF719FE0126FFF7B8FCFFF782FE10
:101ED000FFF77AFC94F94400401C01D184F8449047
:101EE00094F94500401C01D184F84590FFF7A6FC09
:101EF00005A9684600F052F9002820460AD0FFF7ED
:101F00004BFB00F08FFA2046FFF7F8FA0028A8D024
:101F10000020C3E7FFF7F2FA90B104F1240005991D
:101F2000FFF7BEFD2046FFF737FB00F07BFA0028E5
:101F300097D1C8F80070BFF34F8FBFF36F8F90E752
:101F40002046FFF729FB00F06DFA8AE72E2E5C464B
:101F500072656552544F535C7372635C717565753D
:101F6000652E63004572726F723A25732C25640DDD
:101F70000A00000004ED00E070B50D46040005D134
:101F800040F21B121CA122A0FEF7AAFFFFF71CFCC7
:101F9000D4E90F20216802FB001161600021A163D8
:101FA0002168A1600A46D4E90F01401E00FB01210F
:101FB000E16021464FF0FF3001F8440F487004F112
:101FC00010004DB1FFF7CEFB04F12400FFF7CAFB70
:101FD000FFF734FC012070BD21690029F8D000F022
:101FE000D3F90028F4D00E494FF080500860BFF3B9
:101FF0004F8FBFF36F8FEBE72E2E5C4672656552F5
:10200000544F535C7372635C71756575652E630024
:102010004572726F723A25732C25640D0A00000018
:1020200004ED00E02DE9FF4F83B01F468B4604000E
:102030004FF0000605D140F2D9224DA152A0FEF783
:102040004FFFBBF1000F07D1206C28B140F2DA221C
:1020500047A14DA0FEF744FF022F08D1E06B0128F5
:1020600005D040F2DB2242A147A0FEF739FF00F085
:1020700007F938B9059828B140F2DE223CA142A008
:10208000FEF72EFF4FF0000A4FF08058DFF808915E
:10209000FFF79AFBA06BE16B884205D3022F03D0B8
:1020A0000598C8B1DEB11EE03A4659462046FFF712
:1020B00034F9616A19B104F1240000F065F928B11E
:1020C000C9F80080BFF34F8FBFF36F8FFFF7B6FBE8
:1020D000012007B0BDE8F08FFFF7B0FB21E06846B4
:1020E000FFF70AFD0126FFF7A9FBFFF773FDFFF7D6
:1020F0006BFB94F94400401C01D184F844A094F98E
:102100004500401C01D184F845A0FFF797FB05A9C5
:10211000684600F043F830B12046FFF73DFA00F082
:1021200081F90020D5E7FFF74FFBA06BE16B8842F8
:1021300001D1012500E00025FFF780FB95B104F1F6
:1021400010000599FFF7ACFC2046FFF725FA00F0D8
:1021500069F900289CD1C9F80080BFF34F8FBFF305
:102160006F8F95E72046FFF717FA00F05BF98FE7CE
:102170002E2E5C4672656552544F535C7372635CDD
:1021800071756575652E63004572726F723A2573BD
:102190002C25640D0A00000004ED00E070B50D462A
:1021A000040005D140F6CB3214A11AA0FEF798FE28
:1021B0002DB940F6CC3211A116A0FEF791FEFFF723
:1021C00003FB184AD06829684B1C0FD02368126A99
:1021D000934202D0626882420AD96268801A8842B9
:1021E00006D2081A28602046FFF786FC002400E08B
:1021F0000124FFF723FB204670BD00002E2E5C4615
:1022000072656552544F535C7372635C7461736B97
:10221000732E63004572726F723A25732C25640D1C
:102220000A000000100000202DE9FF5F8346DDE971
:102230000E87994616468A469000FFF7E3F9050097
:102240001AD04C20FFF7DEF9040012D025630021DC
:10225000CDE90241CDE900874B463246514658460A
:10226000FFF7CCF82046FEF7B3FF012004B0BDE82D
:10227000F09F2846FFF712FB4FF0FF30F6E7000013
:102280000548416919B1006B18B100207047012061
:102290007047022070470000100000202DE9F04137
:1022A0002D4F0026386B40B1B869401CB861F86901
:1022B00000B101263046BDE8F081FD686D1CFD606F
:1022C00011D1786B006828B140F6D91223A129A05A
:1022D000FEF706FE786BB96B7963B863386A401C09
:1022E0003862FFF719F9B86ADFF89880854209D398
:1022F000786B006880B1786BC068C468606885429C
:102300000DD2B8623868C06A00EB800158F821002D
:102310000128CCD90126CAE74FF0FF30F1E7201D94
:10232000FFF70EFAA06A18B104F11800FFF708FAD7
:10233000E06A01213A6981401143396100EB800173
:1023400008EB8100211DFFF733FAE06A3968C96A9A
:102350008842CDD30126CBE7100000202E2E5C460C
:1023600072656552544F535C7372635C7461736B36
:10237000732E63004572726F723A25732C25640DBB
:102380000A000000840000202DE9F041C068C46804
:102390002CB940F6613216A11BA0FEF7A1FD04F195
:1023A00018000746FFF7CCF91B4D286B012660B1DA
:1023B00039461A48FFF7FCF9E06A2968C96A884279
:1023C00013D90120EE61BDE8F081201DFFF7B8F9B7
:1023D000E06A2A6906FA00F111432961104900EB0D
:1023E000800001EB8000211DE4E70020EBE7000006
:1023F0002E2E5C4672656552544F535C7372635C5B
:102400007461736B732E63004572726F723A257339
:102410002C25640D0A000000100000202C03002071
:10242000840000202DE9F0472B4D00242746286B1F
:1024300028B94FF4FD6229A12EA0FEF751FDFFF748
:10244000C3F9286B401E2863286BE8BBA8682D4998
:102450000126C8B3A1F52A798846D8F80010E9B159
:10246000D8F80C00C46804F11800FFF769F9201DC2
:10247000FFF766F9E06A2A6906FA00F1114329615B
:1024800000EB800109EB8100211DFFF791F9E06A63
:102490002968C96A8842E0D3EE61DEE70CB1FFF734
:1024A0003BF8AC693CB1FFF7F9FE00B1EE61641E88
:1024B000F9D10020A861E86930B113490127380734
:1024C0000860BFF34F8F00E001E0BFF36F8FFFF7AD
:1024D000B5F93846BDE8F087100000202E2E5C4686
:1024E00072656552544F535C7372635C7461736BB5
:1024F000732E63004572726F723A25732C25640D3A
:102500000A0000002C03002004ED00E000000000A1
:1025100001020304342500080000002084000000AC
:10252000200F0008B8250008840000202497000030
:10253000300F00080024F40001000000100000002B
:10254000000000000000000000000000000000008B
:10255000000000000000000000000000000000007B
:10256000000000000000000000000000000000006B
:10257000000000000000000000000000000000005B
:1025800000000000AAAAAAAA0000000000000000A3
:10259000000000000000000000000000000000003B
:1025A000000000000000000000000000000000002B
:0825B000000000000000000023
:04000005080001AD41
:00000001FF
